{
  "_format": "hh-sol-artifact-1",
  "contractName": "BabyDogeNFT",
  "sourceName": "contracts/BabyDogeNft.sol",
  "abi": [
    {
      "inputs": [
        {
          "internalType": "string",
          "name": "name",
          "type": "string"
        },
        {
          "internalType": "string",
          "name": "symbol",
          "type": "string"
        },
        {
          "internalType": "string",
          "name": "baseTokenURI",
          "type": "string"
        },
        {
          "internalType": "uint256",
          "name": "maxNftSupply",
          "type": "uint256"
        }
      ],
      "stateMutability": "nonpayable",
      "type": "constructor"
    },
    {
      "anonymous": false,
      "inputs": [
        {
          "indexed": true,
          "internalType": "address",
          "name": "owner",
          "type": "address"
        },
        {
          "indexed": true,
          "internalType": "address",
          "name": "approved",
          "type": "address"
        },
        {
          "indexed": true,
          "internalType": "uint256",
          "name": "tokenId",
          "type": "uint256"
        }
      ],
      "name": "Approval",
      "type": "event"
    },
    {
      "anonymous": false,
      "inputs": [
        {
          "indexed": true,
          "internalType": "address",
          "name": "owner",
          "type": "address"
        },
        {
          "indexed": true,
          "internalType": "address",
          "name": "operator",
          "type": "address"
        },
        {
          "indexed": false,
          "internalType": "bool",
          "name": "approved",
          "type": "bool"
        }
      ],
      "name": "ApprovalForAll",
      "type": "event"
    },
    {
      "anonymous": false,
      "inputs": [
        {
          "indexed": false,
          "internalType": "uint256",
          "name": "_id",
          "type": "uint256"
        },
        {
          "indexed": false,
          "internalType": "uint256",
          "name": "_prize",
          "type": "uint256"
        }
      ],
      "name": "LottoClaimed",
      "type": "event"
    },
    {
      "anonymous": false,
      "inputs": [
        {
          "indexed": true,
          "internalType": "address",
          "name": "previousOwner",
          "type": "address"
        },
        {
          "indexed": true,
          "internalType": "address",
          "name": "newOwner",
          "type": "address"
        }
      ],
      "name": "OwnershipTransferred",
      "type": "event"
    },
    {
      "anonymous": false,
      "inputs": [
        {
          "indexed": true,
          "internalType": "address",
          "name": "from",
          "type": "address"
        },
        {
          "indexed": true,
          "internalType": "address",
          "name": "to",
          "type": "address"
        },
        {
          "indexed": true,
          "internalType": "uint256",
          "name": "tokenId",
          "type": "uint256"
        }
      ],
      "name": "Transfer",
      "type": "event"
    },
    {
      "anonymous": false,
      "inputs": [
        {
          "indexed": false,
          "internalType": "uint256[]",
          "name": "_ids",
          "type": "uint256[]"
        }
      ],
      "name": "WinnersPicked",
      "type": "event"
    },
    {
      "inputs": [],
      "name": "REVEAL_TIMESTAMP",
      "outputs": [
        {
          "internalType": "uint256",
          "name": "",
          "type": "uint256"
        }
      ],
      "stateMutability": "view",
      "type": "function"
    },
    {
      "inputs": [
        {
          "internalType": "address",
          "name": "to",
          "type": "address"
        },
        {
          "internalType": "uint256",
          "name": "tokenId",
          "type": "uint256"
        }
      ],
      "name": "approve",
      "outputs": [],
      "stateMutability": "nonpayable",
      "type": "function"
    },
    {
      "inputs": [
        {
          "internalType": "address",
          "name": "owner",
          "type": "address"
        }
      ],
      "name": "balanceOf",
      "outputs": [
        {
          "internalType": "uint256",
          "name": "",
          "type": "uint256"
        }
      ],
      "stateMutability": "view",
      "type": "function"
    },
    {
      "inputs": [],
      "name": "baseURI",
      "outputs": [
        {
          "internalType": "string",
          "name": "",
          "type": "string"
        }
      ],
      "stateMutability": "view",
      "type": "function"
    },
    {
      "inputs": [
        {
          "internalType": "uint256",
          "name": "_id",
          "type": "uint256"
        }
      ],
      "name": "claimLotto",
      "outputs": [],
      "stateMutability": "nonpayable",
      "type": "function"
    },
    {
      "inputs": [],
      "name": "currentIteration",
      "outputs": [
        {
          "internalType": "uint256",
          "name": "_value",
          "type": "uint256"
        }
      ],
      "stateMutability": "view",
      "type": "function"
    },
    {
      "inputs": [],
      "name": "dogePrice",
      "outputs": [
        {
          "internalType": "uint256",
          "name": "",
          "type": "uint256"
        }
      ],
      "stateMutability": "view",
      "type": "function"
    },
    {
      "inputs": [],
      "name": "ethPayout",
      "outputs": [
        {
          "internalType": "bool",
          "name": "",
          "type": "bool"
        }
      ],
      "stateMutability": "view",
      "type": "function"
    },
    {
      "inputs": [],
      "name": "flipEthPayout",
      "outputs": [],
      "stateMutability": "nonpayable",
      "type": "function"
    },
    {
      "inputs": [
        {
          "internalType": "uint256",
          "name": "tokenId",
          "type": "uint256"
        }
      ],
      "name": "getApproved",
      "outputs": [
        {
          "internalType": "address",
          "name": "",
          "type": "address"
        }
      ],
      "stateMutability": "view",
      "type": "function"
    },
    {
      "inputs": [],
      "name": "getCurrentWinners",
      "outputs": [
        {
          "internalType": "uint256[]",
          "name": "",
          "type": "uint256[]"
        }
      ],
      "stateMutability": "view",
      "type": "function"
    },
    {
      "inputs": [],
      "name": "getMaxDogesPurchaseable",
      "outputs": [
        {
          "internalType": "uint256",
          "name": "",
          "type": "uint256"
        }
      ],
      "stateMutability": "view",
      "type": "function"
    },
    {
      "inputs": [],
      "name": "getSaleStatus",
      "outputs": [
        {
          "internalType": "enum BabyDogeNFT.SaleStatus",
          "name": "",
          "type": "uint8"
        }
      ],
      "stateMutability": "view",
      "type": "function"
    },
    {
      "inputs": [
        {
          "internalType": "address",
          "name": "owner",
          "type": "address"
        },
        {
          "internalType": "address",
          "name": "operator",
          "type": "address"
        }
      ],
      "name": "isApprovedForAll",
      "outputs": [
        {
          "internalType": "bool",
          "name": "",
          "type": "bool"
        }
      ],
      "stateMutability": "view",
      "type": "function"
    },
    {
      "inputs": [],
      "name": "merkleRoot",
      "outputs": [
        {
          "internalType": "bytes32",
          "name": "",
          "type": "bytes32"
        }
      ],
      "stateMutability": "view",
      "type": "function"
    },
    {
      "inputs": [
        {
          "internalType": "uint256",
          "name": "numberOfTokens",
          "type": "uint256"
        }
      ],
      "name": "mintDoge",
      "outputs": [],
      "stateMutability": "payable",
      "type": "function"
    },
    {
      "inputs": [
        {
          "internalType": "uint256",
          "name": "numberOfTokens",
          "type": "uint256"
        },
        {
          "internalType": "bytes32[]",
          "name": "_merkleProof",
          "type": "bytes32[]"
        }
      ],
      "name": "mintWhitelistDoge",
      "outputs": [],
      "stateMutability": "payable",
      "type": "function"
    },
    {
      "inputs": [],
      "name": "name",
      "outputs": [
        {
          "internalType": "string",
          "name": "",
          "type": "string"
        }
      ],
      "stateMutability": "view",
      "type": "function"
    },
    {
      "inputs": [],
      "name": "nextRewardNonce",
      "outputs": [
        {
          "internalType": "bytes32",
          "name": "requestId",
          "type": "bytes32"
        }
      ],
      "stateMutability": "nonpayable",
      "type": "function"
    },
    {
      "inputs": [],
      "name": "owner",
      "outputs": [
        {
          "internalType": "address",
          "name": "",
          "type": "address"
        }
      ],
      "stateMutability": "view",
      "type": "function"
    },
    {
      "inputs": [
        {
          "internalType": "uint256",
          "name": "tokenId",
          "type": "uint256"
        }
      ],
      "name": "ownerOf",
      "outputs": [
        {
          "internalType": "address",
          "name": "",
          "type": "address"
        }
      ],
      "stateMutability": "view",
      "type": "function"
    },
    {
      "inputs": [],
      "name": "prizePool",
      "outputs": [
        {
          "internalType": "uint256",
          "name": "",
          "type": "uint256"
        }
      ],
      "stateMutability": "view",
      "type": "function"
    },
    {
      "inputs": [
        {
          "internalType": "bytes32",
          "name": "requestId",
          "type": "bytes32"
        },
        {
          "internalType": "uint256",
          "name": "randomness",
          "type": "uint256"
        }
      ],
      "name": "rawFulfillRandomness",
      "outputs": [],
      "stateMutability": "nonpayable",
      "type": "function"
    },
    {
      "inputs": [],
      "name": "renounceOwnership",
      "outputs": [],
      "stateMutability": "nonpayable",
      "type": "function"
    },
    {
      "inputs": [
        {
          "internalType": "uint256",
          "name": "_ammount",
          "type": "uint256"
        }
      ],
      "name": "reserveDoges",
      "outputs": [],
      "stateMutability": "nonpayable",
      "type": "function"
    },
    {
      "inputs": [
        {
          "internalType": "address",
          "name": "from",
          "type": "address"
        },
        {
          "internalType": "address",
          "name": "to",
          "type": "address"
        },
        {
          "internalType": "uint256",
          "name": "tokenId",
          "type": "uint256"
        }
      ],
      "name": "safeTransferFrom",
      "outputs": [],
      "stateMutability": "nonpayable",
      "type": "function"
    },
    {
      "inputs": [
        {
          "internalType": "address",
          "name": "from",
          "type": "address"
        },
        {
          "internalType": "address",
          "name": "to",
          "type": "address"
        },
        {
          "internalType": "uint256",
          "name": "tokenId",
          "type": "uint256"
        },
        {
          "internalType": "bytes",
          "name": "_data",
          "type": "bytes"
        }
      ],
      "name": "safeTransferFrom",
      "outputs": [],
      "stateMutability": "nonpayable",
      "type": "function"
    },
    {
      "inputs": [],
      "name": "saleIsActive",
      "outputs": [
        {
          "internalType": "bool",
          "name": "",
          "type": "bool"
        }
      ],
      "stateMutability": "view",
      "type": "function"
    },
    {
      "inputs": [],
      "name": "saleStatus",
      "outputs": [
        {
          "internalType": "enum BabyDogeNFT.SaleStatus",
          "name": "",
          "type": "uint8"
        }
      ],
      "stateMutability": "view",
      "type": "function"
    },
    {
      "inputs": [
        {
          "internalType": "address",
          "name": "operator",
          "type": "address"
        },
        {
          "internalType": "bool",
          "name": "approved",
          "type": "bool"
        }
      ],
      "name": "setApprovalForAll",
      "outputs": [],
      "stateMutability": "nonpayable",
      "type": "function"
    },
    {
      "inputs": [
        {
          "internalType": "uint256",
          "name": "_maxDogePurchase",
          "type": "uint256"
        }
      ],
      "name": "setMaxMint",
      "outputs": [],
      "stateMutability": "nonpayable",
      "type": "function"
    },
    {
      "inputs": [
        {
          "internalType": "bytes32",
          "name": "_merkleRoot",
          "type": "bytes32"
        }
      ],
      "name": "setMerkleRoot",
      "outputs": [],
      "stateMutability": "nonpayable",
      "type": "function"
    },
    {
      "inputs": [
        {
          "internalType": "uint256",
          "name": "revealTimeStamp",
          "type": "uint256"
        }
      ],
      "name": "setRevealTimestamp",
      "outputs": [],
      "stateMutability": "nonpayable",
      "type": "function"
    },
    {
      "inputs": [
        {
          "internalType": "enum BabyDogeNFT.SaleStatus",
          "name": "_saleStatus",
          "type": "uint8"
        }
      ],
      "name": "setSaleStatus",
      "outputs": [],
      "stateMutability": "nonpayable",
      "type": "function"
    },
    {
      "inputs": [
        {
          "internalType": "uint16",
          "name": "_devTeamPercent",
          "type": "uint16"
        },
        {
          "internalType": "uint16",
          "name": "_lotoPercent",
          "type": "uint16"
        },
        {
          "internalType": "address",
          "name": "_babyDogeToken",
          "type": "address"
        },
        {
          "internalType": "string",
          "name": "_baseURILink",
          "type": "string"
        }
      ],
      "name": "setSettings",
      "outputs": [],
      "stateMutability": "nonpayable",
      "type": "function"
    },
    {
      "inputs": [
        {
          "internalType": "bytes4",
          "name": "interfaceId",
          "type": "bytes4"
        }
      ],
      "name": "supportsInterface",
      "outputs": [
        {
          "internalType": "bool",
          "name": "",
          "type": "bool"
        }
      ],
      "stateMutability": "view",
      "type": "function"
    },
    {
      "inputs": [],
      "name": "symbol",
      "outputs": [
        {
          "internalType": "string",
          "name": "",
          "type": "string"
        }
      ],
      "stateMutability": "view",
      "type": "function"
    },
    {
      "inputs": [
        {
          "internalType": "uint256",
          "name": "index",
          "type": "uint256"
        }
      ],
      "name": "tokenByIndex",
      "outputs": [
        {
          "internalType": "uint256",
          "name": "",
          "type": "uint256"
        }
      ],
      "stateMutability": "view",
      "type": "function"
    },
    {
      "inputs": [
        {
          "internalType": "address",
          "name": "owner",
          "type": "address"
        },
        {
          "internalType": "uint256",
          "name": "index",
          "type": "uint256"
        }
      ],
      "name": "tokenOfOwnerByIndex",
      "outputs": [
        {
          "internalType": "uint256",
          "name": "",
          "type": "uint256"
        }
      ],
      "stateMutability": "view",
      "type": "function"
    },
    {
      "inputs": [
        {
          "internalType": "uint256",
          "name": "tokenId",
          "type": "uint256"
        }
      ],
      "name": "tokenURI",
      "outputs": [
        {
          "internalType": "string",
          "name": "",
          "type": "string"
        }
      ],
      "stateMutability": "view",
      "type": "function"
    },
    {
      "inputs": [],
      "name": "totalSupply",
      "outputs": [
        {
          "internalType": "uint256",
          "name": "",
          "type": "uint256"
        }
      ],
      "stateMutability": "view",
      "type": "function"
    },
    {
      "inputs": [
        {
          "internalType": "address",
          "name": "from",
          "type": "address"
        },
        {
          "internalType": "address",
          "name": "to",
          "type": "address"
        },
        {
          "internalType": "uint256",
          "name": "tokenId",
          "type": "uint256"
        }
      ],
      "name": "transferFrom",
      "outputs": [],
      "stateMutability": "nonpayable",
      "type": "function"
    },
    {
      "inputs": [
        {
          "internalType": "address",
          "name": "newOwner",
          "type": "address"
        }
      ],
      "name": "transferOwnership",
      "outputs": [],
      "stateMutability": "nonpayable",
      "type": "function"
    },
    {
      "inputs": [
        {
          "internalType": "uint256",
          "name": "",
          "type": "uint256"
        }
      ],
      "name": "winners",
      "outputs": [
        {
          "internalType": "uint256",
          "name": "",
          "type": "uint256"
        }
      ],
      "stateMutability": "view",
      "type": "function"
    },
    {
      "inputs": [],
      "name": "withdrawAndLock",
      "outputs": [],
      "stateMutability": "nonpayable",
      "type": "function"
    },
    {
      "stateMutability": "payable",
      "type": "receive"
    }
  ],
  "bytecode": "0x60c060405260016015556017805462ffffff1916620100001790553480156200002757600080fd5b5060405162003f9e38038062003f9e8339810160408190526200004a91620002dc565b7fb3dccb4cf7a26f6cf6b120cf5a73875b7bbc655b00000000000000000000000060a0527f01be23585060835e02b77ef475b0cc51aa1e0709000000000000000000000000608052835184908490620000ab9060019060208501906200018b565b508051620000c19060029060208401906200018b565b505050620000de620000d86200013560201b60201c565b62000139565b6001600c558151620000f89060109060208501906200018b565b5060165550507f2ed0feb3e7fd2022120aa84fab1945545a9f2ffc9076fd6156fa96eaff4c1311600f5550671bc16d674ec80000601855620003c4565b3390565b600b80546001600160a01b038381166001600160a01b0319831681179093556040519116919082907f8be0079c531659141344cd1fd0a4f28419497f9722a3daafe3b4186f6b6457e090600090a35050565b828054620001999062000371565b90600052602060002090601f016020900481019282620001bd576000855562000208565b82601f10620001d857805160ff191683800117855562000208565b8280016001018555821562000208579182015b8281111562000208578251825591602001919060010190620001eb565b50620002169291506200021a565b5090565b5b808211156200021657600081556001016200021b565b600082601f83011262000242578081fd5b81516001600160401b03808211156200025f576200025f620003ae565b6040516020601f8401601f1916820181018381118382101715620002875762000287620003ae565b60405283825285840181018710156200029e578485fd5b8492505b83831015620002c15785830181015182840182015291820191620002a2565b83831115620002d257848185840101525b5095945050505050565b60008060008060808587031215620002f2578384fd5b84516001600160401b038082111562000309578586fd5b620003178883890162000231565b955060208701519150808211156200032d578485fd5b6200033b8883890162000231565b9450604087015191508082111562000351578384fd5b50620003608782880162000231565b606096909601519497939650505050565b6002810460018216806200038657607f821691505b60208210811415620003a857634e487b7160e01b600052602260045260246000fd5b50919050565b634e487b7160e01b600052604160045260246000fd5b60805160601c60a05160601c613ba0620003fe600039600081816114540152611bd70152600081816109fb0152611ba80152613ba06000f3fe6080604052600436106102765760003560e01c8063715018a61161014f5780639d5719b1116100c1578063c87b56dd1161007a578063c87b56dd146106e8578063db57e74514610708578063e985e9c51461071b578063eb8d24441461073b578063f2fde38b14610750578063f9020e33146107705761027d565b80639d5719b11461063e578063a22cb46514610653578063a2fb117514610673578063a3bc933614610693578063b88d4fde146106b5578063bcfa950e146106d55761027d565b806388c6abf81161011357806388c6abf8146105a85780638ba884aa146105bd5780638c3c4b34146105d25780638da5cb5b146105f457806394985ddd1461060957806395d89b41146106295761027d565b8063715018a61461051e578063719ce73e1461053357806379d49bb0146105485780637cb647591461056857806385142339146105885761027d565b80632eb4a7ab116101e8578063513d29ce116101ac578063513d29ce14610474578063547520fe146104945780636352211e146104b45780636c0360eb146104d45780636c62ef14146104e957806370a08231146104fe5761027d565b80632eb4a7ab146103df5780632f745c59146103f457806342842e0e146104145780634891ad88146104345780634f6ccce7146104545761027d565b8063095ea7b31161023a578063095ea7b31461034b5780630a213e041461036b578063107fb6421461038057806318160ddd1461039557806318e20a38146103aa57806323b872dd146103bf5761027d565b8063018a2c371461028257806301ffc9a7146102a457806306095f59146102da57806306fdde03146102fc578063081812fc1461031e5761027d565b3661027d57005b600080fd5b34801561028e57600080fd5b506102a261029d366004612fbc565b610785565b005b3480156102b057600080fd5b506102c46102bf366004612ff5565b6107d2565b6040516102d1919061333b565b60405180910390f35b3480156102e657600080fd5b506102ef6107ff565b6040516102d19190613346565b34801561030857600080fd5b50610311610809565b6040516102d1919061339b565b34801561032a57600080fd5b5061033e610339366004612fbc565b61089b565b6040516102d19190613208565b34801561035757600080fd5b506102a2610366366004612ece565b6108de565b34801561037757600080fd5b506102c4610976565b34801561038c57600080fd5b506102ef610985565b3480156103a157600080fd5b506102ef610d00565b3480156103b657600080fd5b506102ef610d06565b3480156103cb57600080fd5b506102a26103da366004612de4565b610d0c565b3480156103eb57600080fd5b506102ef610d44565b34801561040057600080fd5b506102ef61040f366004612ece565b610d4a565b34801561042057600080fd5b506102a261042f366004612de4565b610d9c565b34801561044057600080fd5b506102a261044f36600461302d565b610db7565b34801561046057600080fd5b506102ef61046f366004612fbc565b610e2b565b34801561048057600080fd5b506102a261048f36600461309a565b610e86565b3480156104a057600080fd5b506102a26104af366004612fbc565b610f22565b3480156104c057600080fd5b5061033e6104cf366004612fbc565b610f66565b3480156104e057600080fd5b50610311610f9b565b3480156104f557600080fd5b506102a2610faa565b34801561050a57600080fd5b506102ef610519366004612d74565b611011565b34801561052a57600080fd5b506102a2611055565b34801561053f57600080fd5b506102ef6110a0565b34801561055457600080fd5b506102a2610563366004612fbc565b6110a6565b34801561057457600080fd5b506102a2610583366004612fbc565b61112c565b34801561059457600080fd5b506102a26105a3366004612fbc565b611170565b3480156105b457600080fd5b506102ef611425565b3480156105c957600080fd5b506102ef61142b565b3480156105de57600080fd5b506105e7611431565b6040516102d19190613373565b34801561060057600080fd5b5061033e61143a565b34801561061557600080fd5b506102a2610624366004612fd4565b611449565b34801561063557600080fd5b5061031161149f565b34801561064a57600080fd5b506102a26114ae565b34801561065f57600080fd5b506102a261066e366004612ea1565b611551565b34801561067f57600080fd5b506102ef61068e366004612fbc565b611563565b34801561069f57600080fd5b506106a8611584565b6040516102d191906132bc565b3480156106c157600080fd5b506102a26106d0366004612e24565b6115db565b6102a26106e3366004613109565b61161a565b3480156106f457600080fd5b50610311610703366004612fbc565b6117c4565b6102a2610716366004612fbc565b611847565b34801561072757600080fd5b506102c4610736366004612dac565b61193e565b34801561074757600080fd5b506102c461196c565b34801561075c57600080fd5b506102a261076b366004612d74565b611975565b34801561077c57600080fd5b506105e76119e3565b61078d6119ec565b6001600160a01b031661079e61143a565b6001600160a01b0316146107cd5760405162461bcd60e51b81526004016107c49061374b565b60405180910390fd5b601255565b60006001600160e01b0319821663780e9d6360e01b14806107f757506107f7826119f0565b90505b919050565b655af3107a400081565b60606001805461081890613a85565b80601f016020809104026020016040519081016040528092919081815260200182805461084490613a85565b80156108915780601f1061086657610100808354040283529160200191610891565b820191906000526020600020905b81548152906001019060200180831161087457829003601f168201915b5050505050905090565b60006108a682611a30565b6108c25760405162461bcd60e51b81526004016107c4906136ff565b506000908152600560205260409020546001600160a01b031690565b60006108e982610f66565b9050806001600160a01b0316836001600160a01b0316141561091d5760405162461bcd60e51b81526004016107c49061384f565b806001600160a01b031661092f6119ec565b6001600160a01b0316148061094b575061094b816107366119ec565b6109675760405162461bcd60e51b81526004016107c4906135da565b6109718383611a4d565b505050565b60175462010000900460ff1681565b60175460009060ff6101009091041615156001146109a257600080fd5b60006109d66224ea00601e60006109b96020611abb565b815260200190815260200160002054611abf90919063ffffffff16565b42116109e157600080fd5b6018546040516370a0823160e01b81526001600160a01b037f000000000000000000000000000000000000000000000000000000000000000016906370a0823190610a30903090600401613208565b60206040518083038186803b158015610a4857600080fd5b505afa158015610a5c573d6000803e3d6000fd5b505050506040513d601f19601f82011682018060405250810190610a8091906130f1565b1015610a9e5760405162461bcd60e51b81526004016107c490613543565b610aa86020611acb565b42601e6000610ab76020611abb565b8152602081019190915260400160002055610ad0610d00565b601f6000610ade6020611abb565b8152602001908152602001600020819055506000601760029054906101000a900460ff1615610b955750600e544790610b2a9061271090610b2490849061ffff16611ad4565b90611ae0565b9150610b3461143a565b6001600160a01b03166108fc839081150290604051600060405180830381858888f19350505050158015610b6c573d6000803e3d6000fd5b50600e54610b8d9061271090610b2490849062010000900461ffff16611ad4565b601955610ceb565b610b9d611aec565b6011546040516370a0823160e01b81526001600160a01b03909116906370a0823190610bcd903090600401613208565b60206040518083038186803b158015610be557600080fd5b505afa158015610bf9573d6000803e3d6000fd5b505050506040513d601f19601f82011682018060405250810190610c1d91906130f1565b600e54909150610c3a9061271090610b2490849061ffff16611ad4565b6011549092506001600160a01b031663a9059cbb610c5661143a565b846040518363ffffffff1660e01b8152600401610c74929190613273565b602060405180830381600087803b158015610c8e57600080fd5b505af1158015610ca2573d6000803e3d6000fd5b505050506040513d601f19601f82011682018060405250810190610cc69190612fa0565b50600e54610ce79061271090610b2490849062010000900461ffff16611ad4565b6019555b610cf9600f54601854611ba4565b9250505090565b60095490565b60125481565b610d1d610d176119ec565b82611cea565b610d395760405162461bcd60e51b81526004016107c490613890565b610971838383611d67565b60215481565b6000610d5583611011565b8210610d735760405162461bcd60e51b81526004016107c4906133ae565b506001600160a01b03919091166000908152600760209081526040808320938352929052205490565b610971838383604051806020016040528060008152506115db565b610dbf6119ec565b6001600160a01b0316610dd061143a565b6001600160a01b031614610df65760405162461bcd60e51b81526004016107c49061374b565b601c805482919060ff19166001836002811115610e2357634e487b7160e01b600052602160045260246000fd5b021790555050565b6000610e35610d00565b8210610e535760405162461bcd60e51b81526004016107c4906138e1565b60098281548110610e7457634e487b7160e01b600052603260045260246000fd5b90600052602060002001549050919050565b610e8e6119ec565b6001600160a01b0316610e9f61143a565b6001600160a01b031614610ec55760405162461bcd60e51b81526004016107c49061374b565b600e805461ffff191661ffff8681169190911763ffff000019166201000091861691909102179055601180546001600160a01b0319166001600160a01b0384161790558051610f1b906010906020840190612c20565b5050505050565b610f2a6119ec565b6001600160a01b0316610f3b61143a565b6001600160a01b031614610f615760405162461bcd60e51b81526004016107c49061374b565b601555565b6000818152600360205260408120546001600160a01b0316806107f75760405162461bcd60e51b81526004016107c490613681565b6060610fa5611e94565b905090565b610fb26119ec565b6001600160a01b0316610fc361143a565b6001600160a01b031614610fe95760405162461bcd60e51b81526004016107c49061374b565b6017805462ff0000198116620100009182900460ff161590910217905561100e610985565b50565b60006001600160a01b0382166110395760405162461bcd60e51b81526004016107c490613637565b506001600160a01b031660009081526004602052604090205490565b61105d6119ec565b6001600160a01b031661106e61143a565b6001600160a01b0316146110945760405162461bcd60e51b81526004016107c49061374b565b61109e6000611ea3565b565b60195481565b6110ae6119ec565b6001600160a01b03166110bf61143a565b6001600160a01b0316146110e55760405162461bcd60e51b81526004016107c49061374b565b60006110ef610d00565b905060005b828110156109715761111a3361110a83856139f7565b6111159060016139f7565b611ef5565b8061112481613ac0565b9150506110f4565b6111346119ec565b6001600160a01b031661114561143a565b6001600160a01b03161461116b5760405162461bcd60e51b81526004016107c49061374b565b602155565b6002600c5414156111935760405162461bcd60e51b81526004016107c49061392d565b6002600c55336111a282610f66565b6001600160a01b0316146111b557600080fd5b6000805b601b548110156113d55782601b82815481106111e557634e487b7160e01b600052603260045260246000fd5b906000526020600020015414156113c357601b5460195461120591611ae0565b6019549092506112159083611f0f565b601955805b601b5461122990600190613a42565b8110156112a557601b61123d8260016139f7565b8154811061125b57634e487b7160e01b600052603260045260246000fd5b9060005260206000200154601b828154811061128757634e487b7160e01b600052603260045260246000fd5b6000918252602090912001558061129d81613ac0565b91505061121a565b50601b8054806112c557634e487b7160e01b600052603160045260246000fd5b60019003818190600052602060002001600090559055601760029054906101000a900460ff1615611337576112f983610f66565b6001600160a01b03166108fc839081150290604051600060405180830381858888f19350505050158015611331573d6000803e3d6000fd5b506113c3565b6011546001600160a01b031663a9059cbb61135185610f66565b846040518363ffffffff1660e01b815260040161136f929190613273565b602060405180830381600087803b15801561138957600080fd5b505af115801561139d573d6000803e3d6000fd5b505050506040513d601f19601f820116820180604052508101906113c19190612fa0565b505b806113cd81613ac0565b9150506111b9565b50600081116113e357600080fd5b7ff4338f56dc8b8e2b8c87ae4eb8008d2290a524a16c153183ef0b116ef4834d7d82826040516114149291906131cb565b60405180910390a150506001600c55565b60205481565b60155490565b601c5460ff1690565b600b546001600160a01b031690565b336001600160a01b037f000000000000000000000000000000000000000000000000000000000000000016146114915760405162461bcd60e51b81526004016107c490613818565b61149b8282611f1b565b5050565b60606002805461081890613a85565b6114b66119ec565b6001600160a01b03166114c761143a565b6001600160a01b0316146114ed5760405162461bcd60e51b81526004016107c49061374b565b601754610100900460ff161561150257600080fd5b6017805461ff00191661010017905561151961143a565b6001600160a01b03166108fc479081150290604051600060405180830381858888f1935050505015801561100e573d6000803e3d6000fd5b61149b61155c6119ec565b8383612024565b601a818154811061157357600080fd5b600091825260209091200154905081565b6060601a80548060200260200160405190810160405280929190818152602001828054801561089157602002820191906000526020600020905b8154815260200190600101908083116115be575050505050905090565b6115ec6115e66119ec565b83611cea565b6116085760405162461bcd60e51b81526004016107c490613890565b611614848484846120c7565b50505050565b6001601c5460ff16600281111561164157634e487b7160e01b600052602160045260246000fd5b1461164b57600080fd5b3360009081526022602052604090205460ff161561166857600080fd5b60155483111561167757600080fd5b60165461168c84611686610d00565b90611abf565b111561169757600080fd5b346116a8655af3107a400085611ad4565b11156116b357600080fd5b6000336040516020016116c691906131ae565b60405160208183030381529060405280519060200120905061171f8383808060200260200160405190810160405280939291908181526020018383602002808284376000920191909152505060215491508490506120fa565b61172857600080fd5b336000908152602260205260408120805460ff191660011790555b84811015611790576000611755610d00565b6117609060016139f7565b905060165461176d610d00565b101561177d5761177d3382611ef5565b508061178881613ac0565b915050611743565b506013541580156117b557506016546117a7610d00565b14806117b557506012544210155b15611614574360135550505050565b60606117cf82611a30565b6117eb5760405162461bcd60e51b81526004016107c4906137c9565b60006117f5611e94565b905060008151116118155760405180602001604052806000815250611840565b8061181f84612110565b6040516020016118309291906131d9565b6040516020818303038152906040525b9392505050565b6002601c5460ff16600281111561186e57634e487b7160e01b600052602160045260246000fd5b1461187857600080fd5b60155481111561188757600080fd5b60165461189682611686610d00565b11156118a157600080fd5b346118b2655af3107a400083611ad4565b11156118bd57600080fd5b60005b8181101561190d5760006118d2610d00565b6118dd9060016139f7565b90506016546118ea610d00565b10156118fa576118fa3382611ef5565b508061190581613ac0565b9150506118c0565b506013541580156119325750601654611924610d00565b148061193257506012544210155b1561100e574360135550565b6001600160a01b03918216600090815260066020908152604080832093909416825291909152205460ff1690565b60175460ff1681565b61197d6119ec565b6001600160a01b031661198e61143a565b6001600160a01b0316146119b45760405162461bcd60e51b81526004016107c49061374b565b6001600160a01b0381166119da5760405162461bcd60e51b81526004016107c49061344b565b61100e81611ea3565b601c5460ff1681565b3390565b60006001600160e01b031982166380ac58cd60e01b1480611a2157506001600160e01b03198216635b5e139f60e01b145b806107f757506107f78261222b565b6000908152600360205260409020546001600160a01b0316151590565b600081815260056020526040902080546001600160a01b0319166001600160a01b0384169081179091558190611a8282610f66565b6001600160a01b03167f8c5be1e5ebec7d5bd14f71427d1e84f3dd0314c0f7b2291e5b200ac8c7c3b92560405160405180910390a45050565b5490565b600061184082846139f7565b80546001019055565b60006118408284613a23565b60006118408284613a0f565b61109e601160009054906101000a90046001600160a01b0316611b9f47737a250d5630b4cf539739df2c5dacb4c659f2488d6001600160a01b031663ad5c46486040518163ffffffff1660e01b815260040160206040518083038186803b158015611b5657600080fd5b505afa158015611b6a573d6000803e3d6000fd5b505050506040513d601f19601f82011682018060405250810190611b8e9190612d90565b6011546001600160a01b0316612244565b61244c565b60007f00000000000000000000000000000000000000000000000000000000000000006001600160a01b0316634000aea07f000000000000000000000000000000000000000000000000000000000000000084866000604051602001611c0b9291906131cb565b6040516020818303038152906040526040518463ffffffff1660e01b8152600401611c389392919061328c565b602060405180830381600087803b158015611c5257600080fd5b505af1158015611c66573d6000803e3d6000fd5b505050506040513d601f19601f82011682018060405250810190611c8a9190612fa0565b506000611cac8460003060008089815260200190815260200160002054612644565b600085815260208190526040902054909150611cc99060016139f7565b600085815260208190526040902055611ce2848261267e565b949350505050565b6000611cf582611a30565b611d115760405162461bcd60e51b81526004016107c49061358e565b6000611d1c83610f66565b9050806001600160a01b0316846001600160a01b03161480611d575750836001600160a01b0316611d4c8461089b565b6001600160a01b0316145b80611ce25750611ce2818561193e565b826001600160a01b0316611d7a82610f66565b6001600160a01b031614611da05760405162461bcd60e51b81526004016107c490613780565b6001600160a01b038216611dc65760405162461bcd60e51b81526004016107c4906134c8565b611dd18383836126b1565b611ddc600082611a4d565b6001600160a01b0383166000908152600460205260408120805460019290611e05908490613a42565b90915550506001600160a01b0382166000908152600460205260408120805460019290611e339084906139f7565b909155505060008181526003602052604080822080546001600160a01b0319166001600160a01b0386811691821790925591518493918716917fddf252ad1be2c89b69c2b068fc378daa952ba7f163c4a11628f55a4df523b3ef91a4505050565b60606010805461081890613a85565b600b80546001600160a01b038381166001600160a01b0319831681179093556040519116919082907f8be0079c531659141344cd1fd0a4f28419497f9722a3daafe3b4186f6b6457e090600090a35050565b61149b82826040518060200160405280600081525061273a565b60006118408284613a42565b6000611f316101f4611f2b610d00565b90611f0f565b611f3b9083613adb565b90506040518060800160405280828152602001611f636101f484611abf90919063ffffffff16565b8152602001611f7483610190611abf565b8152602001611f858361012c611abf565b9052611f9590601a906004612ca4565b50604080516080810190915281815260208101611fb4836101f4611abf565b8152602001611fc583610190611abf565b8152602001611fd68361012c611abf565b9052611fe690601b906004612ca4565b507f11609bf0dfcab1cd8696cdc747ee705ba9c458e0b7e701b1ebd4e1dfb6b5fb24601a6040516120179190613300565b60405180910390a1505050565b816001600160a01b0316836001600160a01b031614156120565760405162461bcd60e51b81526004016107c49061350c565b6001600160a01b0383811660008181526006602090815260408083209487168084529490915290819020805460ff1916851515179055517f17307eab39ab6107e8899845ad3d59bd9653f200f220920489ca2b5937696c31906120ba90859061333b565b60405180910390a3505050565b6120d2848484611d67565b6120de8484848461276d565b6116145760405162461bcd60e51b81526004016107c4906133f9565b6000826121078584612885565b14949350505050565b60608161213557506040805180820190915260018152600360fc1b60208201526107fa565b8160005b811561215f578061214981613ac0565b91506121589050600a83613a0f565b9150612139565b60008167ffffffffffffffff81111561218857634e487b7160e01b600052604160045260246000fd5b6040519080825280601f01601f1916602001820160405280156121b2576020820181803683370190505b5090505b8415611ce2576121c7600183613a42565b91506121d4600a86613adb565b6121df9060306139f7565b60f81b81838151811061220257634e487b7160e01b600052603260045260246000fd5b60200101906001600160f81b031916908160001a905350612224600a86613a0f565b94506121b6565b6001600160e01b031981166301ffc9a760e01b14919050565b60405163e6a4390560e01b81526000908190735c69bee701ef814a2b6a3edd4b1652cb9cc5aa6f9063e6a4390590612282908790879060040161321c565b60206040518083038186803b15801561229a57600080fd5b505afa1580156122ae573d6000803e3d6000fd5b505050506040513d601f19601f820116820180604052508101906122d29190612d90565b9050600080826001600160a01b0316630902f1ac6040518163ffffffff1660e01b815260040160606040518083038186803b15801561231057600080fd5b505afa158015612324573d6000803e3d6000fd5b505050506040513d601f19601f82011682018060405250810190612348919061304c565b506001600160701b031691506001600160701b031691506000836001600160a01b0316630dfe16816040518163ffffffff1660e01b815260040160206040518083038186803b15801561239a57600080fd5b505afa1580156123ae573d6000803e3d6000fd5b505050506040513d601f19601f820116820180604052508101906123d29190612d90565b9050600080886001600160a01b0316836001600160a01b0316146123f75783856123fa565b84845b9092509050600061240d8b6103e5611ad4565b9050600061241b8284611ad4565b9050600061242f83611686876103e8611ad4565b905061243b8282611ae0565b9d9c50505050505050505050505050565b60408051600280825260608201835247926000929190602083019080368337019050509050737a250d5630b4cf539739df2c5dacb4c659f2488d6001600160a01b031663ad5c46486040518163ffffffff1660e01b815260040160206040518083038186803b1580156124be57600080fd5b505afa1580156124d2573d6000803e3d6000fd5b505050506040513d601f19601f820116820180604052508101906124f69190612d90565b8160008151811061251757634e487b7160e01b600052603260045260246000fd5b60200260200101906001600160a01b031690816001600160a01b031681525050838160018151811061255957634e487b7160e01b600052603260045260246000fd5b6001600160a01b0390921660209283029190910190910152737a250d5630b4cf539739df2c5dacb4c659f2488d637ff36ab58385843061259b426102bc6139f7565b6040518663ffffffff1660e01b81526004016125ba9493929190613964565b6000604051808303818588803b1580156125d357600080fd5b505af11580156125e7573d6000803e3d6000fd5b50505050506040513d6000823e601f3d908101601f191682016040526126109190810190612ef9565b6001825161261e9190613a42565b8151811061263c57634e487b7160e01b600052603260045260246000fd5b505050505050565b60008484848460405160200161265d949392919061334f565b60408051601f19818403018152919052805160209091012095945050505050565b600082826040516020016126939291906131cb565b60405160208183030381529060405280519060200120905092915050565b6126bc838383610971565b6001600160a01b0383166126d8576126d38161293d565b6126fb565b816001600160a01b0316836001600160a01b0316146126fb576126fb8382612981565b6001600160a01b0382166127175761271281612a1e565b610971565b826001600160a01b0316826001600160a01b031614610971576109718282612af7565b6127448383612b3b565b612751600084848461276d565b6109715760405162461bcd60e51b81526004016107c4906133f9565b6000612781846001600160a01b0316612c1a565b1561287d57836001600160a01b031663150b7a0261279d6119ec565b8786866040518563ffffffff1660e01b81526004016127bf9493929190613236565b602060405180830381600087803b1580156127d957600080fd5b505af1925050508015612809575060408051601f3d908101601f1916820190925261280691810190613011565b60015b612863573d808015612837576040519150601f19603f3d011682016040523d82523d6000602084013e61283c565b606091505b50805161285b5760405162461bcd60e51b81526004016107c4906133f9565b805181602001fd5b6001600160e01b031916630a85bd0160e11b149050611ce2565b506001611ce2565b600081815b84518110156129355760008582815181106128b557634e487b7160e01b600052603260045260246000fd5b602002602001015190508083116128f65782816040516020016128d99291906131cb565b604051602081830303815290604052805190602001209250612922565b80836040516020016129099291906131cb565b6040516020818303038152906040528051906020012092505b508061292d81613ac0565b91505061288a565b509392505050565b600980546000838152600a60205260408120829055600182018355919091527f6e1540171b6c0c960b71a7020d9f60077f6af931a8bbf590da0223dacf75c7af0155565b6000600161298e84611011565b6129989190613a42565b6000838152600860205260409020549091508082146129eb576001600160a01b03841660009081526007602090815260408083208584528252808320548484528184208190558352600890915290208190555b5060009182526008602090815260408084208490556001600160a01b039094168352600781528383209183525290812055565b600954600090612a3090600190613a42565b6000838152600a602052604081205460098054939450909284908110612a6657634e487b7160e01b600052603260045260246000fd5b906000526020600020015490508060098381548110612a9557634e487b7160e01b600052603260045260246000fd5b6000918252602080832090910192909255828152600a90915260408082208490558582528120556009805480612adb57634e487b7160e01b600052603160045260246000fd5b6001900381819060005260206000200160009055905550505050565b6000612b0283611011565b6001600160a01b039093166000908152600760209081526040808320868452825280832085905593825260089052919091209190915550565b6001600160a01b038216612b615760405162461bcd60e51b81526004016107c4906136ca565b612b6a81611a30565b15612b875760405162461bcd60e51b81526004016107c490613491565b612b93600083836126b1565b6001600160a01b0382166000908152600460205260408120805460019290612bbc9084906139f7565b909155505060008181526003602052604080822080546001600160a01b0319166001600160a01b03861690811790915590518392907fddf252ad1be2c89b69c2b068fc378daa952ba7f163c4a11628f55a4df523b3ef908290a45050565b3b151590565b828054612c2c90613a85565b90600052602060002090601f016020900481019282612c4e5760008555612c94565b82601f10612c6757805160ff1916838001178555612c94565b82800160010185558215612c94579182015b82811115612c94578251825591602001919060010190612c79565b50612ca0929150612cde565b5090565b828054828255906000526020600020908101928215612c945791602002820182811115612c94578251825591602001919060010190612c79565b5b80821115612ca05760008155600101612cdf565b600067ffffffffffffffff831115612d0d57612d0d613b1b565b612d20601f8401601f19166020016139cd565b9050828152838383011115612d3457600080fd5b828260208301376000602084830101529392505050565b80516001600160701b03811681146107fa57600080fd5b803561ffff811681146107fa57600080fd5b600060208284031215612d85578081fd5b813561184081613b31565b600060208284031215612da1578081fd5b815161184081613b31565b60008060408385031215612dbe578081fd5b8235612dc981613b31565b91506020830135612dd981613b31565b809150509250929050565b600080600060608486031215612df8578081fd5b8335612e0381613b31565b92506020840135612e1381613b31565b929592945050506040919091013590565b60008060008060808587031215612e39578081fd5b8435612e4481613b31565b93506020850135612e5481613b31565b925060408501359150606085013567ffffffffffffffff811115612e76578182fd5b8501601f81018713612e86578182fd5b612e9587823560208401612cf3565b91505092959194509250565b60008060408385031215612eb3578182fd5b8235612ebe81613b31565b91506020830135612dd981613b46565b60008060408385031215612ee0578182fd5b8235612eeb81613b31565b946020939093013593505050565b60006020808385031215612f0b578182fd5b825167ffffffffffffffff80821115612f22578384fd5b818501915085601f830112612f35578384fd5b815181811115612f4757612f47613b1b565b8381029150612f578483016139cd565b8181528481019084860184860187018a1015612f71578788fd5b8795505b83861015612f93578051835260019590950194918601918601612f75565b5098975050505050505050565b600060208284031215612fb1578081fd5b815161184081613b46565b600060208284031215612fcd578081fd5b5035919050565b60008060408385031215612fe6578182fd5b50508035926020909101359150565b600060208284031215613006578081fd5b813561184081613b54565b600060208284031215613022578081fd5b815161184081613b54565b60006020828403121561303e578081fd5b813560038110611840578182fd5b600080600060608486031215613060578081fd5b61306984612d4b565b925061307760208501612d4b565b9150604084015163ffffffff8116811461308f578182fd5b809150509250925092565b600080600080608085870312156130af578182fd5b6130b885612d62565b93506130c660208601612d62565b925060408501356130d681613b31565b9150606085013567ffffffffffffffff811115612e76578182fd5b600060208284031215613102578081fd5b5051919050565b60008060006040848603121561311d578081fd5b83359250602084013567ffffffffffffffff8082111561313b578283fd5b818601915086601f83011261314e578283fd5b81358181111561315c578384fd5b876020808302850101111561316f578384fd5b6020830194508093505050509250925092565b6000815180845261319a816020860160208601613a59565b601f01601f19169290920160200192915050565b60609190911b6bffffffffffffffffffffffff1916815260140190565b918252602082015260400190565b600083516131eb818460208801613a59565b8351908301906131ff818360208801613a59565b01949350505050565b6001600160a01b0391909116815260200190565b6001600160a01b0392831681529116602082015260400190565b6001600160a01b038581168252841660208201526040810183905260806060820181905260009061326990830184613182565b9695505050505050565b6001600160a01b03929092168252602082015260400190565b600060018060a01b0385168252836020830152606060408301526132b36060830184613182565b95945050505050565b6020808252825182820181905260009190848201906040850190845b818110156132f4578351835292840192918401916001016132d8565b50909695505050505050565b6020808252825482820181905260008481528281209092916040850190845b818110156132f45783548352600193840193928501920161331f565b901515815260200190565b90815260200190565b93845260208401929092526001600160a01b03166040830152606082015260800190565b602081016003831061339557634e487b7160e01b600052602160045260246000fd5b91905290565b6000602082526118406020830184613182565b6020808252602b908201527f455243373231456e756d657261626c653a206f776e657220696e646578206f7560408201526a74206f6620626f756e647360a81b606082015260800190565b60208082526032908201527f4552433732313a207472616e7366657220746f206e6f6e20455243373231526560408201527131b2b4bb32b91034b6b83632b6b2b73a32b960711b606082015260800190565b60208082526026908201527f4f776e61626c653a206e6577206f776e657220697320746865207a65726f206160408201526564647265737360d01b606082015260800190565b6020808252601c908201527f4552433732313a20746f6b656e20616c7265616479206d696e74656400000000604082015260600190565b60208082526024908201527f4552433732313a207472616e7366657220746f20746865207a65726f206164646040820152637265737360e01b606082015260800190565b60208082526019908201527f4552433732313a20617070726f766520746f2063616c6c657200000000000000604082015260600190565b6020808252602b908201527f4e6f7420656e6f756768204c494e4b202d2066696c6c20636f6e74726163742060408201526a1dda5d1a0819985d58d95d60aa1b606082015260800190565b6020808252602c908201527f4552433732313a206f70657261746f7220717565727920666f72206e6f6e657860408201526b34b9ba32b73a103a37b5b2b760a11b606082015260800190565b60208082526038908201527f4552433732313a20617070726f76652063616c6c6572206973206e6f74206f7760408201527f6e6572206e6f7220617070726f76656420666f7220616c6c0000000000000000606082015260800190565b6020808252602a908201527f4552433732313a2062616c616e636520717565727920666f7220746865207a65604082015269726f206164647265737360b01b606082015260800190565b60208082526029908201527f4552433732313a206f776e657220717565727920666f72206e6f6e657869737460408201526832b73a103a37b5b2b760b91b606082015260800190565b6020808252818101527f4552433732313a206d696e7420746f20746865207a65726f2061646472657373604082015260600190565b6020808252602c908201527f4552433732313a20617070726f76656420717565727920666f72206e6f6e657860408201526b34b9ba32b73a103a37b5b2b760a11b606082015260800190565b6020808252818101527f4f776e61626c653a2063616c6c6572206973206e6f7420746865206f776e6572604082015260600190565b60208082526029908201527f4552433732313a207472616e73666572206f6620746f6b656e2074686174206960408201526839903737ba1037bbb760b91b606082015260800190565b6020808252602f908201527f4552433732314d657461646174613a2055524920717565727920666f72206e6f60408201526e3732bc34b9ba32b73a103a37b5b2b760891b606082015260800190565b6020808252601f908201527f4f6e6c7920565246436f6f7264696e61746f722063616e2066756c66696c6c00604082015260600190565b60208082526021908201527f4552433732313a20617070726f76616c20746f2063757272656e74206f776e656040820152603960f91b606082015260800190565b60208082526031908201527f4552433732313a207472616e736665722063616c6c6572206973206e6f74206f6040820152701ddb995c881b9bdc88185c1c1c9bdd9959607a1b606082015260800190565b6020808252602c908201527f455243373231456e756d657261626c653a20676c6f62616c20696e646578206f60408201526b7574206f6620626f756e647360a01b606082015260800190565b6020808252601f908201527f5265656e7472616e637947756172643a207265656e7472616e742063616c6c00604082015260600190565b600060808201868352602060808185015281875180845260a0860191508289019350845b818110156139ad5784516001600160a01b031683529383019391830191600101613988565b50506001600160a01b039690961660408501525050506060015292915050565b60405181810167ffffffffffffffff811182821017156139ef576139ef613b1b565b604052919050565b60008219821115613a0a57613a0a613aef565b500190565b600082613a1e57613a1e613b05565b500490565b6000816000190483118215151615613a3d57613a3d613aef565b500290565b600082821015613a5457613a54613aef565b500390565b60005b83811015613a74578181015183820152602001613a5c565b838111156116145750506000910152565b600281046001821680613a9957607f821691505b60208210811415613aba57634e487b7160e01b600052602260045260246000fd5b50919050565b6000600019821415613ad457613ad4613aef565b5060010190565b600082613aea57613aea613b05565b500690565b634e487b7160e01b600052601160045260246000fd5b634e487b7160e01b600052601260045260246000fd5b634e487b7160e01b600052604160045260246000fd5b6001600160a01b038116811461100e57600080fd5b801515811461100e57600080fd5b6001600160e01b03198116811461100e57600080fdfea2646970667358221220a288b53092ddf721d22b437d553d82c0368e8c9441d73bae69dfb12c38f32e1764736f6c63430008000033",
  "linkReferences": {},
  "deployedLinkReferences": {}
}