{
  "_format": "hh-sol-artifact-1",
  "contractName": "BabyDogeNFT",
  "sourceName": "contracts/BabyDogeNft.sol",
  "abi": [
    {
      "inputs": [
        {
          "internalType": "string",
          "name": "name",
          "type": "string"
        },
        {
          "internalType": "string",
          "name": "symbol",
          "type": "string"
        },
        {
          "internalType": "string",
          "name": "baseTokenURI",
          "type": "string"
        },
        {
          "internalType": "uint256",
          "name": "maxNftSupply",
          "type": "uint256"
        }
      ],
      "stateMutability": "nonpayable",
      "type": "constructor"
    },
    {
      "inputs": [],
      "name": "ApprovalCallerNotOwnerNorApproved",
      "type": "error"
    },
    {
      "inputs": [],
      "name": "ApprovalQueryForNonexistentToken",
      "type": "error"
    },
    {
      "inputs": [],
      "name": "ApprovalToCurrentOwner",
      "type": "error"
    },
    {
      "inputs": [],
      "name": "ApproveToCaller",
      "type": "error"
    },
    {
      "inputs": [],
      "name": "BalanceQueryForZeroAddress",
      "type": "error"
    },
    {
      "inputs": [],
      "name": "MintToZeroAddress",
      "type": "error"
    },
    {
      "inputs": [],
      "name": "MintZeroQuantity",
      "type": "error"
    },
    {
      "inputs": [],
      "name": "OwnerIndexOutOfBounds",
      "type": "error"
    },
    {
      "inputs": [],
      "name": "OwnerQueryForNonexistentToken",
      "type": "error"
    },
    {
      "inputs": [],
      "name": "TokenIndexOutOfBounds",
      "type": "error"
    },
    {
      "inputs": [],
      "name": "TransferCallerNotOwnerNorApproved",
      "type": "error"
    },
    {
      "inputs": [],
      "name": "TransferFromIncorrectOwner",
      "type": "error"
    },
    {
      "inputs": [],
      "name": "TransferToNonERC721ReceiverImplementer",
      "type": "error"
    },
    {
      "inputs": [],
      "name": "TransferToZeroAddress",
      "type": "error"
    },
    {
      "inputs": [],
      "name": "URIQueryForNonexistentToken",
      "type": "error"
    },
    {
      "anonymous": false,
      "inputs": [
        {
          "indexed": true,
          "internalType": "address",
          "name": "owner",
          "type": "address"
        },
        {
          "indexed": true,
          "internalType": "address",
          "name": "approved",
          "type": "address"
        },
        {
          "indexed": true,
          "internalType": "uint256",
          "name": "tokenId",
          "type": "uint256"
        }
      ],
      "name": "Approval",
      "type": "event"
    },
    {
      "anonymous": false,
      "inputs": [
        {
          "indexed": true,
          "internalType": "address",
          "name": "owner",
          "type": "address"
        },
        {
          "indexed": true,
          "internalType": "address",
          "name": "operator",
          "type": "address"
        },
        {
          "indexed": false,
          "internalType": "bool",
          "name": "approved",
          "type": "bool"
        }
      ],
      "name": "ApprovalForAll",
      "type": "event"
    },
    {
      "anonymous": false,
      "inputs": [
        {
          "indexed": false,
          "internalType": "bool",
          "name": "_ethPayout",
          "type": "bool"
        }
      ],
      "name": "FlipEthPayout",
      "type": "event"
    },
    {
      "anonymous": false,
      "inputs": [
        {
          "indexed": false,
          "internalType": "uint256",
          "name": "_id",
          "type": "uint256"
        },
        {
          "indexed": false,
          "internalType": "uint256",
          "name": "_prize",
          "type": "uint256"
        }
      ],
      "name": "LottoClaimed",
      "type": "event"
    },
    {
      "anonymous": false,
      "inputs": [
        {
          "indexed": false,
          "internalType": "uint256",
          "name": "_maxMint",
          "type": "uint256"
        }
      ],
      "name": "MaxMintSet",
      "type": "event"
    },
    {
      "anonymous": false,
      "inputs": [
        {
          "indexed": false,
          "internalType": "bytes32",
          "name": "_merkleRoot",
          "type": "bytes32"
        }
      ],
      "name": "MerkleRootSet",
      "type": "event"
    },
    {
      "anonymous": false,
      "inputs": [
        {
          "indexed": true,
          "internalType": "address",
          "name": "previousOwner",
          "type": "address"
        },
        {
          "indexed": true,
          "internalType": "address",
          "name": "newOwner",
          "type": "address"
        }
      ],
      "name": "OwnershipTransferred",
      "type": "event"
    },
    {
      "anonymous": false,
      "inputs": [
        {
          "indexed": false,
          "internalType": "uint256",
          "name": "_amount",
          "type": "uint256"
        }
      ],
      "name": "ReserveDoges",
      "type": "event"
    },
    {
      "anonymous": false,
      "inputs": [
        {
          "indexed": false,
          "internalType": "uint256",
          "name": "_timestamp",
          "type": "uint256"
        }
      ],
      "name": "RevealTimeSet",
      "type": "event"
    },
    {
      "anonymous": false,
      "inputs": [
        {
          "indexed": false,
          "internalType": "uint256",
          "name": "_saleStatus",
          "type": "uint256"
        }
      ],
      "name": "SaleStatusSet",
      "type": "event"
    },
    {
      "anonymous": false,
      "inputs": [
        {
          "indexed": false,
          "internalType": "uint256",
          "name": "_devTeamPercent",
          "type": "uint256"
        },
        {
          "indexed": false,
          "internalType": "uint256",
          "name": "_lotoPercent",
          "type": "uint256"
        },
        {
          "indexed": false,
          "internalType": "address",
          "name": "_babydoge",
          "type": "address"
        },
        {
          "indexed": false,
          "internalType": "string",
          "name": "_URI",
          "type": "string"
        }
      ],
      "name": "SetSettings",
      "type": "event"
    },
    {
      "anonymous": false,
      "inputs": [
        {
          "indexed": true,
          "internalType": "address",
          "name": "from",
          "type": "address"
        },
        {
          "indexed": true,
          "internalType": "address",
          "name": "to",
          "type": "address"
        },
        {
          "indexed": true,
          "internalType": "uint256",
          "name": "tokenId",
          "type": "uint256"
        }
      ],
      "name": "Transfer",
      "type": "event"
    },
    {
      "anonymous": false,
      "inputs": [
        {
          "indexed": false,
          "internalType": "uint256[]",
          "name": "_ids",
          "type": "uint256[]"
        }
      ],
      "name": "WinnersPicked",
      "type": "event"
    },
    {
      "anonymous": false,
      "inputs": [
        {
          "indexed": false,
          "internalType": "bool",
          "name": "_withdrawAndLock",
          "type": "bool"
        }
      ],
      "name": "WithdrawAndLock",
      "type": "event"
    },
    {
      "inputs": [],
      "name": "REVEAL_TIMESTAMP",
      "outputs": [
        {
          "internalType": "uint256",
          "name": "",
          "type": "uint256"
        }
      ],
      "stateMutability": "view",
      "type": "function"
    },
    {
      "inputs": [
        {
          "internalType": "address",
          "name": "to",
          "type": "address"
        },
        {
          "internalType": "uint256",
          "name": "tokenId",
          "type": "uint256"
        }
      ],
      "name": "approve",
      "outputs": [],
      "stateMutability": "nonpayable",
      "type": "function"
    },
    {
      "inputs": [
        {
          "internalType": "address",
          "name": "owner",
          "type": "address"
        }
      ],
      "name": "balanceOf",
      "outputs": [
        {
          "internalType": "uint256",
          "name": "",
          "type": "uint256"
        }
      ],
      "stateMutability": "view",
      "type": "function"
    },
    {
      "inputs": [],
      "name": "baseURI",
      "outputs": [
        {
          "internalType": "string",
          "name": "",
          "type": "string"
        }
      ],
      "stateMutability": "view",
      "type": "function"
    },
    {
      "inputs": [
        {
          "internalType": "uint256",
          "name": "_id",
          "type": "uint256"
        }
      ],
      "name": "claimLotto",
      "outputs": [],
      "stateMutability": "nonpayable",
      "type": "function"
    },
    {
      "inputs": [],
      "name": "currentIteration",
      "outputs": [
        {
          "internalType": "uint256",
          "name": "_value",
          "type": "uint256"
        }
      ],
      "stateMutability": "view",
      "type": "function"
    },
    {
      "inputs": [],
      "name": "dogePrice",
      "outputs": [
        {
          "internalType": "uint256",
          "name": "",
          "type": "uint256"
        }
      ],
      "stateMutability": "view",
      "type": "function"
    },
    {
      "inputs": [],
      "name": "ethPayout",
      "outputs": [
        {
          "internalType": "bool",
          "name": "",
          "type": "bool"
        }
      ],
      "stateMutability": "view",
      "type": "function"
    },
    {
      "inputs": [],
      "name": "flipEthPayout",
      "outputs": [],
      "stateMutability": "nonpayable",
      "type": "function"
    },
    {
      "inputs": [
        {
          "internalType": "uint256",
          "name": "tokenId",
          "type": "uint256"
        }
      ],
      "name": "getApproved",
      "outputs": [
        {
          "internalType": "address",
          "name": "",
          "type": "address"
        }
      ],
      "stateMutability": "view",
      "type": "function"
    },
    {
      "inputs": [],
      "name": "getCurrentWinners",
      "outputs": [
        {
          "internalType": "uint256[]",
          "name": "",
          "type": "uint256[]"
        }
      ],
      "stateMutability": "view",
      "type": "function"
    },
    {
      "inputs": [],
      "name": "getSaleStatus",
      "outputs": [
        {
          "internalType": "uint256",
          "name": "",
          "type": "uint256"
        }
      ],
      "stateMutability": "view",
      "type": "function"
    },
    {
      "inputs": [
        {
          "internalType": "address",
          "name": "owner",
          "type": "address"
        },
        {
          "internalType": "address",
          "name": "operator",
          "type": "address"
        }
      ],
      "name": "isApprovedForAll",
      "outputs": [
        {
          "internalType": "bool",
          "name": "",
          "type": "bool"
        }
      ],
      "stateMutability": "view",
      "type": "function"
    },
    {
      "inputs": [],
      "name": "merkleRoot",
      "outputs": [
        {
          "internalType": "bytes32",
          "name": "",
          "type": "bytes32"
        }
      ],
      "stateMutability": "view",
      "type": "function"
    },
    {
      "inputs": [
        {
          "internalType": "uint256",
          "name": "numberOfTokens",
          "type": "uint256"
        }
      ],
      "name": "mintDoge",
      "outputs": [],
      "stateMutability": "payable",
      "type": "function"
    },
    {
      "inputs": [
        {
          "internalType": "uint256",
          "name": "numberOfTokens",
          "type": "uint256"
        },
        {
          "internalType": "bytes32[]",
          "name": "_merkleProof",
          "type": "bytes32[]"
        }
      ],
      "name": "mintWhitelistDoge",
      "outputs": [],
      "stateMutability": "payable",
      "type": "function"
    },
    {
      "inputs": [],
      "name": "name",
      "outputs": [
        {
          "internalType": "string",
          "name": "",
          "type": "string"
        }
      ],
      "stateMutability": "view",
      "type": "function"
    },
    {
      "inputs": [],
      "name": "nextRewardNonce",
      "outputs": [
        {
          "internalType": "bytes32",
          "name": "requestId",
          "type": "bytes32"
        }
      ],
      "stateMutability": "nonpayable",
      "type": "function"
    },
    {
      "inputs": [],
      "name": "owner",
      "outputs": [
        {
          "internalType": "address",
          "name": "",
          "type": "address"
        }
      ],
      "stateMutability": "view",
      "type": "function"
    },
    {
      "inputs": [
        {
          "internalType": "uint256",
          "name": "tokenId",
          "type": "uint256"
        }
      ],
      "name": "ownerOf",
      "outputs": [
        {
          "internalType": "address",
          "name": "",
          "type": "address"
        }
      ],
      "stateMutability": "view",
      "type": "function"
    },
    {
      "inputs": [],
      "name": "prizePool",
      "outputs": [
        {
          "internalType": "uint256",
          "name": "",
          "type": "uint256"
        }
      ],
      "stateMutability": "view",
      "type": "function"
    },
    {
      "inputs": [
        {
          "internalType": "bytes32",
          "name": "requestId",
          "type": "bytes32"
        },
        {
          "internalType": "uint256",
          "name": "randomness",
          "type": "uint256"
        }
      ],
      "name": "rawFulfillRandomness",
      "outputs": [],
      "stateMutability": "nonpayable",
      "type": "function"
    },
    {
      "inputs": [],
      "name": "renounceOwnership",
      "outputs": [],
      "stateMutability": "nonpayable",
      "type": "function"
    },
    {
      "inputs": [
        {
          "internalType": "uint256",
          "name": "_amount",
          "type": "uint256"
        }
      ],
      "name": "reserveDoges",
      "outputs": [],
      "stateMutability": "nonpayable",
      "type": "function"
    },
    {
      "inputs": [
        {
          "internalType": "address",
          "name": "from",
          "type": "address"
        },
        {
          "internalType": "address",
          "name": "to",
          "type": "address"
        },
        {
          "internalType": "uint256",
          "name": "tokenId",
          "type": "uint256"
        }
      ],
      "name": "safeTransferFrom",
      "outputs": [],
      "stateMutability": "nonpayable",
      "type": "function"
    },
    {
      "inputs": [
        {
          "internalType": "address",
          "name": "from",
          "type": "address"
        },
        {
          "internalType": "address",
          "name": "to",
          "type": "address"
        },
        {
          "internalType": "uint256",
          "name": "tokenId",
          "type": "uint256"
        },
        {
          "internalType": "bytes",
          "name": "_data",
          "type": "bytes"
        }
      ],
      "name": "safeTransferFrom",
      "outputs": [],
      "stateMutability": "nonpayable",
      "type": "function"
    },
    {
      "inputs": [],
      "name": "saleStatus",
      "outputs": [
        {
          "internalType": "enum BabyDogeNFT.SaleStatus",
          "name": "",
          "type": "uint8"
        }
      ],
      "stateMutability": "view",
      "type": "function"
    },
    {
      "inputs": [
        {
          "internalType": "address",
          "name": "operator",
          "type": "address"
        },
        {
          "internalType": "bool",
          "name": "approved",
          "type": "bool"
        }
      ],
      "name": "setApprovalForAll",
      "outputs": [],
      "stateMutability": "nonpayable",
      "type": "function"
    },
    {
      "inputs": [
        {
          "internalType": "uint256",
          "name": "_price",
          "type": "uint256"
        }
      ],
      "name": "setDogePrice",
      "outputs": [],
      "stateMutability": "nonpayable",
      "type": "function"
    },
    {
      "inputs": [
        {
          "internalType": "uint256",
          "name": "_maxDogePurchase",
          "type": "uint256"
        }
      ],
      "name": "setMaxMint",
      "outputs": [],
      "stateMutability": "nonpayable",
      "type": "function"
    },
    {
      "inputs": [
        {
          "internalType": "bytes32",
          "name": "_merkleRoot",
          "type": "bytes32"
        }
      ],
      "name": "setMerkleRoot",
      "outputs": [],
      "stateMutability": "nonpayable",
      "type": "function"
    },
    {
      "inputs": [
        {
          "internalType": "uint256",
          "name": "revealTimeStamp",
          "type": "uint256"
        }
      ],
      "name": "setRevealTimestamp",
      "outputs": [],
      "stateMutability": "nonpayable",
      "type": "function"
    },
    {
      "inputs": [
        {
          "internalType": "enum BabyDogeNFT.SaleStatus",
          "name": "_saleStatus",
          "type": "uint8"
        }
      ],
      "name": "setSaleStatus",
      "outputs": [],
      "stateMutability": "nonpayable",
      "type": "function"
    },
    {
      "inputs": [
        {
          "internalType": "uint16",
          "name": "_devTeamPercent",
          "type": "uint16"
        },
        {
          "internalType": "uint16",
          "name": "_lotoPercent",
          "type": "uint16"
        },
        {
          "internalType": "address",
          "name": "_babyDogeToken",
          "type": "address"
        },
        {
          "internalType": "string",
          "name": "_baseURILink",
          "type": "string"
        }
      ],
      "name": "setSettings",
      "outputs": [],
      "stateMutability": "nonpayable",
      "type": "function"
    },
    {
      "inputs": [
        {
          "internalType": "bytes4",
          "name": "interfaceId",
          "type": "bytes4"
        }
      ],
      "name": "supportsInterface",
      "outputs": [
        {
          "internalType": "bool",
          "name": "",
          "type": "bool"
        }
      ],
      "stateMutability": "view",
      "type": "function"
    },
    {
      "inputs": [],
      "name": "symbol",
      "outputs": [
        {
          "internalType": "string",
          "name": "",
          "type": "string"
        }
      ],
      "stateMutability": "view",
      "type": "function"
    },
    {
      "inputs": [
        {
          "internalType": "uint256",
          "name": "index",
          "type": "uint256"
        }
      ],
      "name": "tokenByIndex",
      "outputs": [
        {
          "internalType": "uint256",
          "name": "",
          "type": "uint256"
        }
      ],
      "stateMutability": "view",
      "type": "function"
    },
    {
      "inputs": [
        {
          "internalType": "address",
          "name": "owner",
          "type": "address"
        },
        {
          "internalType": "uint256",
          "name": "index",
          "type": "uint256"
        }
      ],
      "name": "tokenOfOwnerByIndex",
      "outputs": [
        {
          "internalType": "uint256",
          "name": "",
          "type": "uint256"
        }
      ],
      "stateMutability": "view",
      "type": "function"
    },
    {
      "inputs": [
        {
          "internalType": "uint256",
          "name": "tokenId",
          "type": "uint256"
        }
      ],
      "name": "tokenURI",
      "outputs": [
        {
          "internalType": "string",
          "name": "",
          "type": "string"
        }
      ],
      "stateMutability": "view",
      "type": "function"
    },
    {
      "inputs": [],
      "name": "totalSupply",
      "outputs": [
        {
          "internalType": "uint256",
          "name": "",
          "type": "uint256"
        }
      ],
      "stateMutability": "view",
      "type": "function"
    },
    {
      "inputs": [
        {
          "internalType": "address",
          "name": "from",
          "type": "address"
        },
        {
          "internalType": "address",
          "name": "to",
          "type": "address"
        },
        {
          "internalType": "uint256",
          "name": "tokenId",
          "type": "uint256"
        }
      ],
      "name": "transferFrom",
      "outputs": [],
      "stateMutability": "nonpayable",
      "type": "function"
    },
    {
      "inputs": [
        {
          "internalType": "address",
          "name": "newOwner",
          "type": "address"
        }
      ],
      "name": "transferOwnership",
      "outputs": [],
      "stateMutability": "nonpayable",
      "type": "function"
    },
    {
      "inputs": [
        {
          "internalType": "uint256",
          "name": "",
          "type": "uint256"
        }
      ],
      "name": "winners",
      "outputs": [
        {
          "internalType": "uint256",
          "name": "",
          "type": "uint256"
        }
      ],
      "stateMutability": "view",
      "type": "function"
    },
    {
      "inputs": [],
      "name": "withdrawAndLock",
      "outputs": [],
      "stateMutability": "nonpayable",
      "type": "function"
    },
    {
      "stateMutability": "payable",
      "type": "receive"
    }
  ],
  "bytecode": "0x61012060405267016345785d8a0000600f5560016010556011805461ff0019166101001790553480156200003257600080fd5b5060405162004212380380620042128339810160408190526200005591620002f0565b7fb3dccb4cf7a26f6cf6b120cf5a73875b7bbc655b00000000000000000000000060a0527f01be23585060835e02b77ef475b0cc51aa1e0709000000000000000000000000608052835184908490620000b690600290602085019062000197565b508051620000cc90600390602084019062000197565b505050620000e9620000e36200014160201b60201c565b62000145565b600160095581516200010390600b90602085019062000197565b5060e05250507f2ed0feb3e7fd2022120aa84fab1945545a9f2ffc9076fd6156fa96eaff4c131160c05250671bc16d674ec8000061010052620003d8565b3390565b600880546001600160a01b038381166001600160a01b0319831681179093556040519116919082907f8be0079c531659141344cd1fd0a4f28419497f9722a3daafe3b4186f6b6457e090600090a35050565b828054620001a59062000385565b90600052602060002090601f016020900481019282620001c9576000855562000214565b82601f10620001e457805160ff191683800117855562000214565b8280016001018555821562000214579182015b8281111562000214578251825591602001919060010190620001f7565b506200022292915062000226565b5090565b5b8082111562000222576000815560010162000227565b600082601f8301126200024e578081fd5b81516001600160401b03808211156200026b576200026b620003c2565b604051601f8301601f19908116603f01168101908282118183101715620002965762000296620003c2565b81604052838152602092508683858801011115620002b2578485fd5b8491505b83821015620002d55785820183015181830184015290820190620002b6565b83821115620002e657848385830101525b9695505050505050565b6000806000806080858703121562000306578384fd5b84516001600160401b03808211156200031d578586fd5b6200032b888389016200023d565b9550602087015191508082111562000341578485fd5b6200034f888389016200023d565b9450604087015191508082111562000365578384fd5b5062000374878288016200023d565b606096909601519497939650505050565b600181811c908216806200039a57607f821691505b60208210811415620003bc57634e487b7160e01b600052602260045260246000fd5b50919050565b634e487b7160e01b600052604160045260246000fd5b60805160601c60a05160601c60c05160e05161010051613dc56200044d60003960008181610b740152610e72015260008181611af701528181611ce301528181611ec30152611fbc01526000610e510152600081816117240152612349015260008181610b96015261231a0152613dc56000f3fe60806040526004361061026b5760003560e01c8063715018a611610144578063a22cb465116100b6578063c87b56dd1161007a578063c87b56dd146106df578063cac4ee05146106ff578063db57e7451461071f578063e985e9c514610732578063f2fde38b1461077b578063f9020e331461079b57600080fd5b8063a22cb4651461064a578063a2fb11751461066a578063a3bc93361461068a578063b88d4fde146106ac578063bcfa950e146106cc57600080fd5b806388c6abf81161010857806388c6abf8146105b65780638c3c4b34146105cd5780638da5cb5b146105e257806394985ddd1461060057806395d89b41146106205780639d5719b11461063557600080fd5b8063715018a61461052b578063719ce73e1461054057806379d49bb0146105565780637cb6475914610576578063851423391461059657600080fd5b80632eb4a7ab116101dd578063513d29ce116101a1578063513d29ce14610481578063547520fe146104a15780636352211e146104c15780636c0360eb146104e15780636c62ef14146104f657806370a082311461050b57600080fd5b80632eb4a7ab146103eb5780632f745c591461040157806342842e0e146104215780634891ad88146104415780634f6ccce71461046157600080fd5b8063095ea7b31161022f578063095ea7b31461034c5780630a213e041461036c578063107fb6421461038b57806318160ddd146103a057806318e20a38146103b557806323b872dd146103cb57600080fd5b8063018a2c371461027757806301ffc9a71461029957806306095f59146102ce57806306fdde03146102f2578063081812fc1461031457600080fd5b3661027257005b600080fd5b34801561028357600080fd5b50610297610292366004613719565b6107c2565b005b3480156102a557600080fd5b506102b96102b4366004613752565b610831565b60405190151581526020015b60405180910390f35b3480156102da57600080fd5b506102e4600f5481565b6040519081526020016102c5565b3480156102fe57600080fd5b5061030761089e565b6040516102c59190613a6b565b34801561032057600080fd5b5061033461032f366004613719565b610930565b6040516001600160a01b0390911681526020016102c5565b34801561035857600080fd5b5061029761036736600461362a565b610976565b34801561037857600080fd5b506011546102b990610100900460ff1681565b34801561039757600080fd5b506102e4610a04565b3480156103ac57600080fd5b506001546102e4565b3480156103c157600080fd5b506102e4600d5481565b3480156103d757600080fd5b506102976103e6366004613540565b610ea2565b3480156103f757600080fd5b506102e460195481565b34801561040d57600080fd5b506102e461041c36600461362a565b610ead565b34801561042d57600080fd5b5061029761043c366004613540565b610f92565b34801561044d57600080fd5b5061029761045c36600461378a565b610fad565b34801561046d57600080fd5b506102e461047c366004613719565b61105e565b34801561048d57600080fd5b5061029761049c3660046137f7565b61108c565b3480156104ad57600080fd5b506102976104bc366004613719565b6111cb565b3480156104cd57600080fd5b506103346104dc366004613719565b61122a565b3480156104ed57600080fd5b5061030761123c565b34801561050257600080fd5b5061029761124b565b34801561051757600080fd5b506102e46105263660046134d0565b6112dc565b34801561053757600080fd5b5061029761132a565b34801561054c57600080fd5b506102e460125481565b34801561056257600080fd5b50610297610571366004613719565b611360565b34801561058257600080fd5b50610297610591366004613719565b6113c4565b3480156105a257600080fd5b506102976105b1366004613719565b611423565b3480156105c257600080fd5b506018546102e49081565b3480156105d957600080fd5b506102e46116f1565b3480156105ee57600080fd5b506008546001600160a01b0316610334565b34801561060c57600080fd5b5061029761061b366004613731565b611719565b34801561062c57600080fd5b5061030761179f565b34801561064157600080fd5b506102976117ae565b34801561065657600080fd5b506102976106653660046135fd565b611887565b34801561067657600080fd5b506102e4610685366004613719565b61191d565b34801561069657600080fd5b5061069f61193e565b6040516102c591906139c4565b3480156106b857600080fd5b506102976106c7366004613580565b611995565b6102976106da366004613866565b6119cf565b3480156106eb57600080fd5b506103076106fa366004613719565b611d28565b34801561070b57600080fd5b5061029761071a366004613719565b611daf565b61029761072d366004613719565b611dde565b34801561073e57600080fd5b506102b961074d366004613508565b6001600160a01b03918216600090815260076020908152604080832093909416825291909152205460ff1690565b34801561078757600080fd5b506102976107963660046134d0565b611fff565b3480156107a757600080fd5b506015546107b59060ff1681565b6040516102c59190613a43565b6008546001600160a01b031633146107f55760405162461bcd60e51b81526004016107ec90613a7e565b60405180910390fd5b600d8190556040518181527fd227248b3540871674d341a3d15918c6eaed5a6704bae91d238aa95b5edaab89906020015b60405180910390a150565b60006001600160e01b031982166380ac58cd60e01b148061086257506001600160e01b03198216635b5e139f60e01b145b8061087d57506001600160e01b0319821663780e9d6360e01b145b8061089857506301ffc9a760e01b6001600160e01b03198316145b92915050565b6060600280546108ad90613caa565b80601f01602080910402602001604051908101604052809291908181526020018280546108d990613caa565b80156109265780601f106108fb57610100808354040283529160200191610926565b820191906000526020600020905b81548152906001019060200180831161090957829003601f168201915b5050505050905090565b600061093d826001541190565b61095a576040516333d1c03960e21b815260040160405180910390fd5b506000908152600660205260409020546001600160a01b031690565b60006109818261122a565b9050806001600160a01b0316836001600160a01b031614156109b65760405163250fdee360e21b815260040160405180910390fd5b336001600160a01b038216148015906109d657506109d4813361074d565b155b156109f4576040516367d9dca160e11b815260040160405180910390fd5b6109ff838383612097565b505050565b600060026009541415610a595760405162461bcd60e51b815260206004820152601f60248201527f5265656e7472616e637947756172643a207265656e7472616e742063616c6c0060448201526064016107ec565b600260095560115460ff16610ad65760405162461bcd60e51b815260206004820152603960248201527f6572726f723a2063616e27742063616c6c206e6578745265776172644e6f6e6360448201527f65206265666f7265207468652073616c65206973206f7665720000000000000060648201526084016107ec565b60006224ea0060166000610ae960185490565b815260200190815260200160002054610b029190613c1c565b4211610b5f5760405162461bcd60e51b815260206004820152602660248201527f6572726f723a20697465726174696f6e20706572696f6420686173206e6f74206044820152651c185cdcd95960d21b60648201526084016107ec565b6040516370a0823160e01b81523060048201527f0000000000000000000000000000000000000000000000000000000000000000907f00000000000000000000000000000000000000000000000000000000000000006001600160a01b0316906370a082319060240160206040518083038186803b158015610be057600080fd5b505afa158015610bf4573d6000803e3d6000fd5b505050506040513d601f19601f82011682018060405250810190610c18919061384e565b1015610c785760405162461bcd60e51b815260206004820152602960248201527f4e6f7420656e6f756768204c494e4b202d2066696c6c20636f6e74726163742060448201526877697468204c696e6b60b81b60648201526084016107ec565b610c86601880546001019055565b4260166000610c9460185490565b815260208101919091526040016000205560015460176000610cb560185490565b8152602001908152602001600020819055506000601160019054906101000a900460ff1615610d545750600a54479061271090610cf69061ffff1683613c48565b610d009190613c34565b9150610d2782610d186008546001600160a01b031690565b6001600160a01b0316906120f3565b600a5461271090610d429062010000900461ffff1683613c48565b610d4c9190613c34565b601255610e4c565b610d5c61220c565b600c546040516370a0823160e01b81523060048201526001600160a01b03909116906370a082319060240160206040518083038186803b158015610d9f57600080fd5b505afa158015610db3573d6000803e3d6000fd5b505050506040513d601f19601f82011682018060405250810190610dd7919061384e565b600a5490915061271090610def9061ffff1683613c48565b610df99190613c34565b9150610e23610e106008546001600160a01b031690565b600c546001600160a01b031690846122c4565b600a5461271090610e3e9062010000900461ffff1683613c48565b610e489190613c34565b6012555b610e967f00000000000000000000000000000000000000000000000000000000000000007f0000000000000000000000000000000000000000000000000000000000000000612316565b92505050600160095590565b6109ff8383836124a0565b6000610eb8836112dc565b8210610ed7576040516306ed618760e11b815260040160405180910390fd5b6000610ee260015490565b905060008060005b83811015610f7b576000818152600460209081526040918290208251808401909352546001600160a01b038116808452600160a01b90910467ffffffffffffffff169183019190915215610f3d57805192505b876001600160a01b0316836001600160a01b03161415610f725786841415610f6b5750935061089892505050565b6001909301925b50600101610eea565b50634e487b7160e01b600052600160045260246000fd5b6109ff83838360405180602001604052806000815250611995565b6008546001600160a01b03163314610fd75760405162461bcd60e51b81526004016107ec90613a7e565b6015805482919060ff1916600183600281111561100457634e487b7160e01b600052602160045260246000fd5b02179055506015547f5f393514fe885345bf6ba49c7009fef8081ddf42042464e8dfe04a17f001cddf9060ff16600281111561105057634e487b7160e01b600052602160045260246000fd5b604051908152602001610826565b600061106960015490565b8210611088576040516329c8c00760e21b815260040160405180910390fd5b5090565b6008546001600160a01b031633146110b65760405162461bcd60e51b81526004016107ec90613a7e565b6001600160a01b03821661111b5760405162461bcd60e51b815260206004820152602660248201527f4572726f723a20546f6b656e2063616e277420626520746865207a65726f206160448201526564647265737360d01b60648201526084016107ec565b600a805461ffff858116620100000263ffffffff1990921690871617179055600c80546001600160a01b0384166001600160a01b0319909116179055805161116a90600b90602084019061337b565b50600a54600c546040517e89f6d806b406160fe53ec387c78595e885ca4881db758f4e83ca7ddc069b88926111bd9261ffff808316936201000090930416916001600160a01b0390911690600b90613ab3565b60405180910390a150505050565b6008546001600160a01b031633146111f55760405162461bcd60e51b81526004016107ec90613a7e565b60108190556040518181527f3b64f5d0ae4de41d36db0948fc83ffbba5d86eb79841008d6047a25f46ed2b7990602001610826565b6000611235826126bf565b5192915050565b6060611246612754565b905090565b6008546001600160a01b031633146112755760405162461bcd60e51b81526004016107ec90613a7e565b6011805461ff001981166101009182900460ff1615909102179055611298610a04565b5060115460405161010090910460ff16151581527fa52383c36c234ecf24255806fe74d869b31d0a0d26073e975ddeb5f871886262906020015b60405180910390a1565b60006001600160a01b038216611305576040516323d3ad8160e21b815260040160405180910390fd5b506001600160a01b03166000908152600560205260409020546001600160801b031690565b6008546001600160a01b031633146113545760405162461bcd60e51b81526004016107ec90613a7e565b61135e6000612763565b565b6008546001600160a01b0316331461138a5760405162461bcd60e51b81526004016107ec90613a7e565b61139433826127b5565b6040518181527fffa76519d7df0608ca65c5af555ef0723f461afa7dadac8ccb5b3f7a8019e3ef90602001610826565b6008546001600160a01b031633146113ee5760405162461bcd60e51b81526004016107ec90613a7e565b60198190556040518181527f42cbc405e4dbf1b691e85b9a34b08ecfcf7a9ad9078bf4d645ccfa1fac11c10b90602001610826565b600260095414156114765760405162461bcd60e51b815260206004820152601f60248201527f5265656e7472616e637947756172643a207265656e7472616e742063616c6c0060448201526064016107ec565b6002600955336114858261122a565b6001600160a01b0316146114e65760405162461bcd60e51b815260206004820152602260248201527f6572726f723a20796f7520646f6e74206f776e20612077696e6e696e6720646f604482015261676560f01b60648201526084016107ec565b6000805b60145481101561165257826014828154811061151657634e487b7160e01b600052603260045260246000fd5b90600052602060002001541415611640576014546012546115379190613c34565b9150816012546115479190613c67565b601255805b60145461155b90600190613c67565b8110156115d757601461156f826001613c1c565b8154811061158d57634e487b7160e01b600052603260045260246000fd5b9060005260206000200154601482815481106115b957634e487b7160e01b600052603260045260246000fd5b600091825260209091200155806115cf81613ce5565b91505061154c565b5060148054806115f757634e487b7160e01b600052603160045260246000fd5b60019003818190600052602060002001600090559055601160019054906101000a900460ff16156116345761162f82610d188561122a565b611640565b611640610e108461122a565b8061164a81613ce5565b9150506114ea565b50600081116116af5760405162461bcd60e51b815260206004820152602360248201527f6572726f723a207072697a65206d75737420626520677265617465722074686560448201526206e20360ec1b60648201526084016107ec565b60408051838152602081018390527ff4338f56dc8b8e2b8c87ae4eb8008d2290a524a16c153183ef0b116ef4834d7d910160405180910390a150506001600955565b60155460009060ff16600281111561124657634e487b7160e01b600052602160045260246000fd5b336001600160a01b037f000000000000000000000000000000000000000000000000000000000000000016146117915760405162461bcd60e51b815260206004820152601f60248201527f4f6e6c7920565246436f6f7264696e61746f722063616e2066756c66696c6c0060448201526064016107ec565b61179b82826127cf565b5050565b6060600380546108ad90613caa565b6008546001600160a01b031633146117d85760405162461bcd60e51b81526004016107ec90613a7e565b60115460ff161561182b5760405162461bcd60e51b815260206004820181905260248201527f43616e206f6e6c792063616c6c20746869732066756e6374696f6e206f6e636560448201526064016107ec565b6011805460ff1916600117905561184e47610d186008546001600160a01b031690565b60115460405160ff909116151581527fd5dc719472ee802e529d4afc3a953b5d8ea1790730213eafdcfce3433d2ea225906020016112d2565b6001600160a01b0382163314156118b15760405163b06307db60e01b815260040160405180910390fd5b3360008181526007602090815260408083206001600160a01b03871680855290835292819020805460ff191686151590811790915590519081529192917f17307eab39ab6107e8899845ad3d59bd9653f200f220920489ca2b5937696c31910160405180910390a35050565b6013818154811061192d57600080fd5b600091825260209091200154905081565b6060601380548060200260200160405190810160405280929190818152602001828054801561092657602002820191906000526020600020905b815481526020019060010190808311611978575050505050905090565b6119a08484846124a0565b6119ac848484846128d4565b6119c9576040516368d2bf6b60e11b815260040160405180910390fd5b50505050565b600160155460ff1660028111156119f657634e487b7160e01b600052602160045260246000fd5b14611a435760405162461bcd60e51b815260206004820152601e60248201527f57686974656c6973742073616c6520686173206e6f742073746172746564000060448201526064016107ec565b336000908152601a602052604090205460ff1615611aa35760405162461bcd60e51b815260206004820152601760248201527f596f75206861766520616c7265616479204d696e74656400000000000000000060448201526064016107ec565b601054831115611af55760405162461bcd60e51b815260206004820152601e60248201527f596f752063616e2774206d696e742074686174206d616e7920446f676573000060448201526064016107ec565b7f000000000000000000000000000000000000000000000000000000000000000083611b2060015490565b611b2a9190613c1c565b1115611b9e5760405162461bcd60e51b815260206004820152603b60248201527f556e61626c6520746f206d696e743a20776f756c642065786365656420746f7460448201527f616c20737570706c792c20747279206d696e74696e67206c657373000000000060648201526084016107ec565b3483600f54611bad9190613c48565b1115611bec5760405162461bcd60e51b815260206004820152600e60248201526d09cdee840cadcdeeaced0408aa8960931b60448201526064016107ec565b6040516bffffffffffffffffffffffff193360601b166020820152600090603401604051602081830303815290604052805190602001209050611c668383808060200260200160405190810160405280939291908181526020018383602002808284376000920191909152505060195491508490506129e2565b611cb25760405162461bcd60e51b815260206004820152601b60248201527f596f75206172656e2774206f6e207468652077686974656c697374000000000060448201526064016107ec565b336000818152601a60205260409020805460ff19166001179055611cd690856127b5565b600e54158015611d1957507f0000000000000000000000000000000000000000000000000000000000000000611d0b60015490565b1480611d195750600d544210155b156119c95743600e5550505050565b6060611d35826001541190565b611d5257604051630a14c4b560e41b815260040160405180910390fd5b6000611d5c612754565b9050805160001415611d7d5760405180602001604052806000815250611da8565b80611d87846129f8565b604051602001611d98929190613928565b6040516020818303038152906040525b9392505050565b6008546001600160a01b03163314611dd95760405162461bcd60e51b81526004016107ec90613a7e565b600f55565b600260155460ff166002811115611e0557634e487b7160e01b600052602160045260246000fd5b14611e615760405162461bcd60e51b815260206004820152602660248201527f6572726f723a207075626c69632073616c6520686173206e6f742073746172746044820152651959081e595d60d21b60648201526084016107ec565b601054811115611ec15760405162461bcd60e51b815260206004820152602560248201527f6572726f723a20796f752063616e2774206d696e742074686174206d616e7920604482015264646f67657360d81b60648201526084016107ec565b7f000000000000000000000000000000000000000000000000000000000000000081611eec60015490565b611ef69190613c1c565b1115611f505760405162461bcd60e51b8152602060048201526024808201527f6572726f723a20746f74616c20737570706c7920686173206265656e2072656160448201526318da195960e21b60648201526084016107ec565b3481600f54611f5f9190613c48565b1115611fa55760405162461bcd60e51b81526020600482015260156024820152740cae4e4dee47440dcdee840cadcdeeaced0408ae8d605b1b60448201526064016107ec565b611faf33826127b5565b600e54158015611ff257507f0000000000000000000000000000000000000000000000000000000000000000611fe460015490565b1480611ff25750600d544210155b15611ffc5743600e555b50565b6008546001600160a01b031633146120295760405162461bcd60e51b81526004016107ec90613a7e565b6001600160a01b03811661208e5760405162461bcd60e51b815260206004820152602660248201527f4f776e61626c653a206e6577206f776e657220697320746865207a65726f206160448201526564647265737360d01b60648201526084016107ec565b611ffc81612763565b60008281526006602052604080822080546001600160a01b0319166001600160a01b0387811691821790925591518593918516917f8c5be1e5ebec7d5bd14f71427d1e84f3dd0314c0f7b2291e5b200ac8c7c3b92591a4505050565b804710156121435760405162461bcd60e51b815260206004820152601d60248201527f416464726573733a20696e73756666696369656e742062616c616e636500000060448201526064016107ec565b6000826001600160a01b03168260405160006040518083038185875af1925050503d8060008114612190576040519150601f19603f3d011682016040523d82523d6000602084013e612195565b606091505b50509050806109ff5760405162461bcd60e51b815260206004820152603a60248201527f416464726573733a20756e61626c6520746f2073656e642076616c75652c207260448201527f6563697069656e74206d6179206861766520726576657274656400000000000060648201526084016107ec565b61135e600c60009054906101000a90046001600160a01b03166122bf47737a250d5630b4cf539739df2c5dacb4c659f2488d6001600160a01b031663ad5c46486040518163ffffffff1660e01b815260040160206040518083038186803b15801561227657600080fd5b505afa15801561228a573d6000803e3d6000fd5b505050506040513d601f19601f820116820180604052508101906122ae91906134ec565b600c546001600160a01b0316612b12565b612d2b565b604080516001600160a01b038416602482015260448082018490528251808303909101815260649091019091526020810180516001600160e01b031663a9059cbb60e01b1790526109ff908490612f23565b60007f00000000000000000000000000000000000000000000000000000000000000006001600160a01b0316634000aea07f000000000000000000000000000000000000000000000000000000000000000084866000604051602001612386929190918252602082015260400190565b6040516020818303038152906040526040518463ffffffff1660e01b81526004016123b393929190613994565b602060405180830381600087803b1580156123cd57600080fd5b505af11580156123e1573d6000803e3d6000fd5b505050506040513d601f19601f8201168201806040525081019061240591906136fd565b5060008381526020818152604080832054815180840188905280830185905230606082015260808082018390528351808303909101815260a09091019092528151918301919091208684529290915261245f906001613c1c565b60008581526020818152604091829020929092558051808301879052808201849052815180820383018152606090910190915280519101205b949350505050565b60006124ab826126bf565b80519091506000906001600160a01b0316336001600160a01b031614806124e25750336124d784610930565b6001600160a01b0316145b806124f4575081516124f4903361074d565b90508061251457604051632ce44b5f60e11b815260040160405180910390fd5b846001600160a01b031682600001516001600160a01b0316146125495760405162a1148160e81b815260040160405180910390fd5b6001600160a01b03841661257057604051633a954ecd60e21b815260040160405180910390fd5b6125806000848460000151612097565b6001600160a01b03858116600090815260056020908152604080832080546001600160801b03198082166001600160801b03928316600019018316179092558986168086528386208054938416938316600190810190931693909317909255888552600490935281842080546001600160e01b031916909117600160a01b4267ffffffffffffffff160217905590860180835291205490911661267557612628816001541190565b15612675578251600082815260046020908152604090912080549186015167ffffffffffffffff16600160a01b026001600160e01b03199092166001600160a01b03909316929092171790555b5082846001600160a01b0316866001600160a01b03167fddf252ad1be2c89b69c2b068fc378daa952ba7f163c4a11628f55a4df523b3ef60405160405180910390a45b5050505050565b60408051808201909152600080825260208201526126de826001541190565b6126fb57604051636f96cda160e11b815260040160405180910390fd5b815b6000818152600460209081526040918290208251808401909352546001600160a01b038116808452600160a01b90910467ffffffffffffffff16918301919091521561274a579392505050565b50600019016126fd565b6060600b80546108ad90613caa565b600880546001600160a01b038381166001600160a01b0319831681179093556040519116919082907f8be0079c531659141344cd1fd0a4f28419497f9722a3daafe3b4186f6b6457e090600090a35050565b61179b828260405180602001604052806000815250612ff5565b60006101f46127dd60015490565b6127e79084613d00565b6127f19190613c67565b90506040518060800160405280828152602001826101f46128129190613c1c565b815260200161282383610190613c1c565b81526020016128348361012c613c1c565b90526128449060139060046133fb565b506040518060800160405280828152602001826101f46128649190613c1c565b815260200161287583610190613c1c565b81526020016128868361012c613c1c565b90526128969060149060046133fb565b507f11609bf0dfcab1cd8696cdc747ee705ba9c458e0b7e701b1ebd4e1dfb6b5fb2460136040516128c79190613a08565b60405180910390a1505050565b60006001600160a01b0384163b156129d757604051630a85bd0160e11b81526001600160a01b0385169063150b7a0290612918903390899088908890600401613957565b602060405180830381600087803b15801561293257600080fd5b505af1925050508015612962575060408051601f3d908101601f1916820190925261295f9181019061376e565b60015b6129bd573d808015612990576040519150601f19603f3d011682016040523d82523d6000602084013e612995565b606091505b5080516129b5576040516368d2bf6b60e11b815260040160405180910390fd5b805181602001fd5b6001600160e01b031916630a85bd0160e11b149050612498565b506001949350505050565b6000826129ef8584613002565b14949350505050565b606081612a1c5750506040805180820190915260018152600360fc1b602082015290565b8160005b8115612a465780612a3081613ce5565b9150612a3f9050600a83613c34565b9150612a20565b60008167ffffffffffffffff811115612a6f57634e487b7160e01b600052604160045260246000fd5b6040519080825280601f01601f191660200182016040528015612a99576020820181803683370190505b5090505b841561249857612aae600183613c67565b9150612abb600a86613d00565b612ac6906030613c1c565b60f81b818381518110612ae957634e487b7160e01b600052603260045260246000fd5b60200101906001600160f81b031916908160001a905350612b0b600a86613c34565b9450612a9d565b60405163e6a4390560e01b81526001600160a01b038084166004830152821660248201526000908190735c69bee701ef814a2b6a3edd4b1652cb9cc5aa6f9063e6a439059060440160206040518083038186803b158015612b7257600080fd5b505afa158015612b86573d6000803e3d6000fd5b505050506040513d601f19601f82011682018060405250810190612baa91906134ec565b9050600080826001600160a01b0316630902f1ac6040518163ffffffff1660e01b815260040160606040518083038186803b158015612be857600080fd5b505afa158015612bfc573d6000803e3d6000fd5b505050506040513d601f19601f82011682018060405250810190612c2091906137a9565b506001600160701b031691506001600160701b031691506000836001600160a01b0316630dfe16816040518163ffffffff1660e01b815260040160206040518083038186803b158015612c7257600080fd5b505afa158015612c86573d6000803e3d6000fd5b505050506040513d601f19601f82011682018060405250810190612caa91906134ec565b9050600080886001600160a01b0316836001600160a01b031614612ccf578385612cd2565b84845b90925090506000612ce58b6103e5613c48565b90506000612cf38383613c48565b9050600082612d04866103e8613c48565b612d0e9190613c1c565b9050612d1a8183613c34565b9d9c50505050505050505050505050565b60408051600280825260608201835247926000929190602083019080368337019050509050737a250d5630b4cf539739df2c5dacb4c659f2488d6001600160a01b031663ad5c46486040518163ffffffff1660e01b815260040160206040518083038186803b158015612d9d57600080fd5b505afa158015612db1573d6000803e3d6000fd5b505050506040513d601f19601f82011682018060405250810190612dd591906134ec565b81600081518110612df657634e487b7160e01b600052603260045260246000fd5b60200260200101906001600160a01b031690816001600160a01b0316815250508381600181518110612e3857634e487b7160e01b600052603260045260246000fd5b6001600160a01b0390921660209283029190910190910152737a250d5630b4cf539739df2c5dacb4c659f2488d637ff36ab583858430612e7a426102bc613c1c565b6040518663ffffffff1660e01b8152600401612e999493929190613b82565b6000604051808303818588803b158015612eb257600080fd5b505af1158015612ec6573d6000803e3d6000fd5b50505050506040513d6000823e601f3d908101601f19168201604052612eef9190810190613655565b60018251612efd9190613c67565b81518110612f1b57634e487b7160e01b600052603260045260246000fd5b505050505050565b6000612f78826040518060400160405280602081526020017f5361666545524332303a206c6f772d6c6576656c2063616c6c206661696c6564815250856001600160a01b03166130bc9092919063ffffffff16565b8051909150156109ff5780806020019051810190612f9691906136fd565b6109ff5760405162461bcd60e51b815260206004820152602a60248201527f5361666545524332303a204552433230206f7065726174696f6e20646964206e6044820152691bdd081cdd58d8d9595960b21b60648201526084016107ec565b6109ff83838360016130cb565b600081815b84518110156130b457600085828151811061303257634e487b7160e01b600052603260045260246000fd5b602002602001015190508083116130745760408051602081018590529081018290526060016040516020818303038152906040528051906020012092506130a1565b60408051602081018390529081018490526060016040516020818303038152906040528051906020012092505b50806130ac81613ce5565b915050613007565b509392505050565b6060612498848460008561321a565b6001546001600160a01b0385166130f457604051622e076360e81b815260040160405180910390fd5b836131125760405163b562e8dd60e01b815260040160405180910390fd5b6001600160a01b03851660008181526005602090815260408083208054600160801b6001600160801b031982166001600160801b039283168c01831690811782900483168c01909216021790558483526004909152812080546001600160e01b031916909217600160a01b4267ffffffffffffffff16021790915581905b858110156132115760405182906001600160a01b038916906000907fddf252ad1be2c89b69c2b068fc378daa952ba7f163c4a11628f55a4df523b3ef908290a48380156131e757506131e560008884886128d4565b155b15613205576040516368d2bf6b60e11b815260040160405180910390fd5b60019182019101613190565b506001556126b8565b60608247101561327b5760405162461bcd60e51b815260206004820152602660248201527f416464726573733a20696e73756666696369656e742062616c616e636520666f6044820152651c8818d85b1b60d21b60648201526084016107ec565b843b6132c95760405162461bcd60e51b815260206004820152601d60248201527f416464726573733a2063616c6c20746f206e6f6e2d636f6e747261637400000060448201526064016107ec565b600080866001600160a01b031685876040516132e5919061390c565b60006040518083038185875af1925050503d8060008114613322576040519150601f19603f3d011682016040523d82523d6000602084013e613327565b606091505b5091509150613337828286613342565b979650505050505050565b60608315613351575081611da8565b8251156133615782518084602001fd5b8160405162461bcd60e51b81526004016107ec9190613a6b565b82805461338790613caa565b90600052602060002090601f0160209004810192826133a957600085556133ef565b82601f106133c257805160ff19168380011785556133ef565b828001600101855582156133ef579182015b828111156133ef5782518255916020019190600101906133d4565b50611088929150613435565b8280548282559060005260206000209081019282156133ef57916020028201828111156133ef5782518255916020019190600101906133d4565b5b808211156110885760008155600101613436565b600067ffffffffffffffff83111561346457613464613d40565b613477601f8401601f1916602001613beb565b905082815283838301111561348b57600080fd5b828260208301376000602084830101529392505050565b80516001600160701b03811681146134b957600080fd5b919050565b803561ffff811681146134b957600080fd5b6000602082840312156134e1578081fd5b8135611da881613d56565b6000602082840312156134fd578081fd5b8151611da881613d56565b6000806040838503121561351a578081fd5b823561352581613d56565b9150602083013561353581613d56565b809150509250929050565b600080600060608486031215613554578081fd5b833561355f81613d56565b9250602084013561356f81613d56565b929592945050506040919091013590565b60008060008060808587031215613595578081fd5b84356135a081613d56565b935060208501356135b081613d56565b925060408501359150606085013567ffffffffffffffff8111156135d2578182fd5b8501601f810187136135e2578182fd5b6135f18782356020840161344a565b91505092959194509250565b6000806040838503121561360f578182fd5b823561361a81613d56565b9150602083013561353581613d6b565b6000806040838503121561363c578182fd5b823561364781613d56565b946020939093013593505050565b60006020808385031215613667578182fd5b825167ffffffffffffffff8082111561367e578384fd5b818501915085601f830112613691578384fd5b8151818111156136a3576136a3613d40565b8060051b91506136b4848301613beb565b8181528481019084860184860187018a10156136ce578788fd5b8795505b838610156136f05780518352600195909501949186019186016136d2565b5098975050505050505050565b60006020828403121561370e578081fd5b8151611da881613d6b565b60006020828403121561372a578081fd5b5035919050565b60008060408385031215613743578182fd5b50508035926020909101359150565b600060208284031215613763578081fd5b8135611da881613d79565b60006020828403121561377f578081fd5b8151611da881613d79565b60006020828403121561379b578081fd5b813560038110611da8578182fd5b6000806000606084860312156137bd578081fd5b6137c6846134a2565b92506137d4602085016134a2565b9150604084015163ffffffff811681146137ec578182fd5b809150509250925092565b6000806000806080858703121561380c578182fd5b613815856134be565b9350613823602086016134be565b9250604085013561383381613d56565b9150606085013567ffffffffffffffff8111156135d2578182fd5b60006020828403121561385f578081fd5b5051919050565b60008060006040848603121561387a578081fd5b83359250602084013567ffffffffffffffff80821115613898578283fd5b818601915086601f8301126138ab578283fd5b8135818111156138b9578384fd5b8760208260051b85010111156138cd578384fd5b6020830194508093505050509250925092565b600081518084526138f8816020860160208601613c7e565b601f01601f19169290920160200192915050565b6000825161391e818460208701613c7e565b9190910192915050565b6000835161393a818460208801613c7e565b83519083019061394e818360208801613c7e565b01949350505050565b6001600160a01b038581168252841660208201526040810183905260806060820181905260009061398a908301846138e0565b9695505050505050565b60018060a01b03841681528260208201526060604082015260006139bb60608301846138e0565b95945050505050565b6020808252825182820181905260009190848201906040850190845b818110156139fc578351835292840192918401916001016139e0565b50909695505050505050565b6020808252825482820181905260008481528281209092916040850190845b818110156139fc57835483526001938401939285019201613a27565b6020810160038310613a6557634e487b7160e01b600052602160045260246000fd5b91905290565b602081526000611da860208301846138e0565b6020808252818101527f4f776e61626c653a2063616c6c6572206973206e6f7420746865206f776e6572604082015260600190565b61ffff858116825284166020808301919091526001600160a01b03841660408301526080606083015282546000918291600181811c9082811680613af857607f831692505b848310811415613b1657634e487b7160e01b87526022600452602487fd5b6080880183905260a08801818015613b355760018114613b4657613b70565b60ff19861682528682019750613b70565b60008b815260209020895b86811015613b6a57815484820152908501908801613b51565b83019850505b50959c9b505050505050505050505050565b600060808201868352602060808185015281875180845260a0860191508289019350845b81811015613bcb5784516001600160a01b031683529383019391830191600101613ba6565b50506001600160a01b039690961660408501525050506060015292915050565b604051601f8201601f1916810167ffffffffffffffff81118282101715613c1457613c14613d40565b604052919050565b60008219821115613c2f57613c2f613d14565b500190565b600082613c4357613c43613d2a565b500490565b6000816000190483118215151615613c6257613c62613d14565b500290565b600082821015613c7957613c79613d14565b500390565b60005b83811015613c99578181015183820152602001613c81565b838111156119c95750506000910152565b600181811c90821680613cbe57607f821691505b60208210811415613cdf57634e487b7160e01b600052602260045260246000fd5b50919050565b6000600019821415613cf957613cf9613d14565b5060010190565b600082613d0f57613d0f613d2a565b500690565b634e487b7160e01b600052601160045260246000fd5b634e487b7160e01b600052601260045260246000fd5b634e487b7160e01b600052604160045260246000fd5b6001600160a01b0381168114611ffc57600080fd5b8015158114611ffc57600080fd5b6001600160e01b031981168114611ffc57600080fdfea26469706673582212200be9a7b6dcdc11650ccb1837559c7220e6cf8ee89c90a4e977af6d355dd06d1364736f6c63430008040033",
  "linkReferences": {},
  "deployedLinkReferences": {}
}