{
  "_format": "hh-sol-artifact-1",
  "contractName": "BabyDogeNFT",
  "sourceName": "contracts/BabyDogeNft.sol",
  "abi": [
    {
      "inputs": [
        {
          "internalType": "string",
          "name": "name",
          "type": "string"
        },
        {
          "internalType": "string",
          "name": "symbol",
          "type": "string"
        },
        {
          "internalType": "string",
          "name": "baseTokenURI",
          "type": "string"
        },
        {
          "internalType": "uint256",
          "name": "maxNftSupply",
          "type": "uint256"
        }
      ],
      "stateMutability": "nonpayable",
      "type": "constructor"
    },
    {
      "anonymous": false,
      "inputs": [
        {
          "indexed": true,
          "internalType": "address",
          "name": "owner",
          "type": "address"
        },
        {
          "indexed": true,
          "internalType": "address",
          "name": "approved",
          "type": "address"
        },
        {
          "indexed": true,
          "internalType": "uint256",
          "name": "tokenId",
          "type": "uint256"
        }
      ],
      "name": "Approval",
      "type": "event"
    },
    {
      "anonymous": false,
      "inputs": [
        {
          "indexed": true,
          "internalType": "address",
          "name": "owner",
          "type": "address"
        },
        {
          "indexed": true,
          "internalType": "address",
          "name": "operator",
          "type": "address"
        },
        {
          "indexed": false,
          "internalType": "bool",
          "name": "approved",
          "type": "bool"
        }
      ],
      "name": "ApprovalForAll",
      "type": "event"
    },
    {
      "anonymous": false,
      "inputs": [
        {
          "indexed": false,
          "internalType": "bool",
          "name": "_ethPayout",
          "type": "bool"
        }
      ],
      "name": "FlipEthPayout",
      "type": "event"
    },
    {
      "anonymous": false,
      "inputs": [
        {
          "indexed": false,
          "internalType": "uint256",
          "name": "_id",
          "type": "uint256"
        },
        {
          "indexed": false,
          "internalType": "uint256",
          "name": "_prize",
          "type": "uint256"
        }
      ],
      "name": "LottoClaimed",
      "type": "event"
    },
    {
      "anonymous": false,
      "inputs": [
        {
          "indexed": false,
          "internalType": "uint256",
          "name": "_maxMint",
          "type": "uint256"
        }
      ],
      "name": "MaxMintSet",
      "type": "event"
    },
    {
      "anonymous": false,
      "inputs": [
        {
          "indexed": false,
          "internalType": "bytes32",
          "name": "_merkleRoot",
          "type": "bytes32"
        }
      ],
      "name": "MerkleRootSet",
      "type": "event"
    },
    {
      "anonymous": false,
      "inputs": [
        {
          "indexed": true,
          "internalType": "address",
          "name": "previousOwner",
          "type": "address"
        },
        {
          "indexed": true,
          "internalType": "address",
          "name": "newOwner",
          "type": "address"
        }
      ],
      "name": "OwnershipTransferred",
      "type": "event"
    },
    {
      "anonymous": false,
      "inputs": [
        {
          "indexed": false,
          "internalType": "uint256",
          "name": "_amount",
          "type": "uint256"
        }
      ],
      "name": "ReserveDoges",
      "type": "event"
    },
    {
      "anonymous": false,
      "inputs": [
        {
          "indexed": false,
          "internalType": "uint256",
          "name": "_timestamp",
          "type": "uint256"
        }
      ],
      "name": "RevealTimeSet",
      "type": "event"
    },
    {
      "anonymous": false,
      "inputs": [
        {
          "indexed": false,
          "internalType": "uint256",
          "name": "_saleStatus",
          "type": "uint256"
        }
      ],
      "name": "SaleStatusSet",
      "type": "event"
    },
    {
      "anonymous": false,
      "inputs": [
        {
          "indexed": false,
          "internalType": "uint256",
          "name": "_devTeamPercent",
          "type": "uint256"
        },
        {
          "indexed": false,
          "internalType": "uint256",
          "name": "_lotoPercent",
          "type": "uint256"
        },
        {
          "indexed": false,
          "internalType": "address",
          "name": "_babydoge",
          "type": "address"
        },
        {
          "indexed": false,
          "internalType": "string",
          "name": "_URI",
          "type": "string"
        }
      ],
      "name": "SetSettings",
      "type": "event"
    },
    {
      "anonymous": false,
      "inputs": [
        {
          "indexed": true,
          "internalType": "address",
          "name": "from",
          "type": "address"
        },
        {
          "indexed": true,
          "internalType": "address",
          "name": "to",
          "type": "address"
        },
        {
          "indexed": true,
          "internalType": "uint256",
          "name": "tokenId",
          "type": "uint256"
        }
      ],
      "name": "Transfer",
      "type": "event"
    },
    {
      "anonymous": false,
      "inputs": [
        {
          "indexed": false,
          "internalType": "uint256[]",
          "name": "_ids",
          "type": "uint256[]"
        }
      ],
      "name": "WinnersPicked",
      "type": "event"
    },
    {
      "anonymous": false,
      "inputs": [
        {
          "indexed": false,
          "internalType": "bool",
          "name": "_withdrawAndLock",
          "type": "bool"
        }
      ],
      "name": "WithdrawAndLock",
      "type": "event"
    },
    {
      "inputs": [],
      "name": "REVEAL_TIMESTAMP",
      "outputs": [
        {
          "internalType": "uint256",
          "name": "",
          "type": "uint256"
        }
      ],
      "stateMutability": "view",
      "type": "function"
    },
    {
      "inputs": [
        {
          "internalType": "address",
          "name": "to",
          "type": "address"
        },
        {
          "internalType": "uint256",
          "name": "tokenId",
          "type": "uint256"
        }
      ],
      "name": "approve",
      "outputs": [],
      "stateMutability": "nonpayable",
      "type": "function"
    },
    {
      "inputs": [
        {
          "internalType": "address",
          "name": "owner",
          "type": "address"
        }
      ],
      "name": "balanceOf",
      "outputs": [
        {
          "internalType": "uint256",
          "name": "",
          "type": "uint256"
        }
      ],
      "stateMutability": "view",
      "type": "function"
    },
    {
      "inputs": [],
      "name": "baseURI",
      "outputs": [
        {
          "internalType": "string",
          "name": "",
          "type": "string"
        }
      ],
      "stateMutability": "view",
      "type": "function"
    },
    {
      "inputs": [
        {
          "internalType": "uint256",
          "name": "_id",
          "type": "uint256"
        }
      ],
      "name": "claimLotto",
      "outputs": [],
      "stateMutability": "nonpayable",
      "type": "function"
    },
    {
      "inputs": [],
      "name": "currentIteration",
      "outputs": [
        {
          "internalType": "uint256",
          "name": "_value",
          "type": "uint256"
        }
      ],
      "stateMutability": "view",
      "type": "function"
    },
    {
      "inputs": [],
      "name": "dogePrice",
      "outputs": [
        {
          "internalType": "uint256",
          "name": "",
          "type": "uint256"
        }
      ],
      "stateMutability": "view",
      "type": "function"
    },
    {
      "inputs": [],
      "name": "ethPayout",
      "outputs": [
        {
          "internalType": "bool",
          "name": "",
          "type": "bool"
        }
      ],
      "stateMutability": "view",
      "type": "function"
    },
    {
      "inputs": [],
      "name": "flipEthPayout",
      "outputs": [],
      "stateMutability": "nonpayable",
      "type": "function"
    },
    {
      "inputs": [
        {
          "internalType": "uint256",
          "name": "tokenId",
          "type": "uint256"
        }
      ],
      "name": "getApproved",
      "outputs": [
        {
          "internalType": "address",
          "name": "",
          "type": "address"
        }
      ],
      "stateMutability": "view",
      "type": "function"
    },
    {
      "inputs": [],
      "name": "getCurrentWinners",
      "outputs": [
        {
          "internalType": "uint256[]",
          "name": "",
          "type": "uint256[]"
        }
      ],
      "stateMutability": "view",
      "type": "function"
    },
    {
      "inputs": [],
      "name": "getSaleStatus",
      "outputs": [
        {
          "internalType": "uint256",
          "name": "",
          "type": "uint256"
        }
      ],
      "stateMutability": "view",
      "type": "function"
    },
    {
      "inputs": [
        {
          "internalType": "address",
          "name": "owner",
          "type": "address"
        },
        {
          "internalType": "address",
          "name": "operator",
          "type": "address"
        }
      ],
      "name": "isApprovedForAll",
      "outputs": [
        {
          "internalType": "bool",
          "name": "",
          "type": "bool"
        }
      ],
      "stateMutability": "view",
      "type": "function"
    },
    {
      "inputs": [],
      "name": "merkleRoot",
      "outputs": [
        {
          "internalType": "bytes32",
          "name": "",
          "type": "bytes32"
        }
      ],
      "stateMutability": "view",
      "type": "function"
    },
    {
      "inputs": [
        {
          "internalType": "uint256",
          "name": "numberOfTokens",
          "type": "uint256"
        }
      ],
      "name": "mintDoge",
      "outputs": [],
      "stateMutability": "payable",
      "type": "function"
    },
    {
      "inputs": [
        {
          "internalType": "uint256",
          "name": "numberOfTokens",
          "type": "uint256"
        },
        {
          "internalType": "bytes32[]",
          "name": "_merkleProof",
          "type": "bytes32[]"
        }
      ],
      "name": "mintWhitelistDoge",
      "outputs": [],
      "stateMutability": "payable",
      "type": "function"
    },
    {
      "inputs": [],
      "name": "name",
      "outputs": [
        {
          "internalType": "string",
          "name": "",
          "type": "string"
        }
      ],
      "stateMutability": "view",
      "type": "function"
    },
    {
      "inputs": [],
      "name": "nextRewardNonce",
      "outputs": [
        {
          "internalType": "bytes32",
          "name": "requestId",
          "type": "bytes32"
        }
      ],
      "stateMutability": "nonpayable",
      "type": "function"
    },
    {
      "inputs": [],
      "name": "owner",
      "outputs": [
        {
          "internalType": "address",
          "name": "",
          "type": "address"
        }
      ],
      "stateMutability": "view",
      "type": "function"
    },
    {
      "inputs": [
        {
          "internalType": "uint256",
          "name": "tokenId",
          "type": "uint256"
        }
      ],
      "name": "ownerOf",
      "outputs": [
        {
          "internalType": "address",
          "name": "",
          "type": "address"
        }
      ],
      "stateMutability": "view",
      "type": "function"
    },
    {
      "inputs": [],
      "name": "prizePool",
      "outputs": [
        {
          "internalType": "uint256",
          "name": "",
          "type": "uint256"
        }
      ],
      "stateMutability": "view",
      "type": "function"
    },
    {
      "inputs": [
        {
          "internalType": "bytes32",
          "name": "requestId",
          "type": "bytes32"
        },
        {
          "internalType": "uint256",
          "name": "randomness",
          "type": "uint256"
        }
      ],
      "name": "rawFulfillRandomness",
      "outputs": [],
      "stateMutability": "nonpayable",
      "type": "function"
    },
    {
      "inputs": [],
      "name": "renounceOwnership",
      "outputs": [],
      "stateMutability": "nonpayable",
      "type": "function"
    },
    {
      "inputs": [
        {
          "internalType": "uint256",
          "name": "_amount",
          "type": "uint256"
        }
      ],
      "name": "reserveDoges",
      "outputs": [],
      "stateMutability": "nonpayable",
      "type": "function"
    },
    {
      "inputs": [
        {
          "internalType": "address",
          "name": "from",
          "type": "address"
        },
        {
          "internalType": "address",
          "name": "to",
          "type": "address"
        },
        {
          "internalType": "uint256",
          "name": "tokenId",
          "type": "uint256"
        }
      ],
      "name": "safeTransferFrom",
      "outputs": [],
      "stateMutability": "nonpayable",
      "type": "function"
    },
    {
      "inputs": [
        {
          "internalType": "address",
          "name": "from",
          "type": "address"
        },
        {
          "internalType": "address",
          "name": "to",
          "type": "address"
        },
        {
          "internalType": "uint256",
          "name": "tokenId",
          "type": "uint256"
        },
        {
          "internalType": "bytes",
          "name": "_data",
          "type": "bytes"
        }
      ],
      "name": "safeTransferFrom",
      "outputs": [],
      "stateMutability": "nonpayable",
      "type": "function"
    },
    {
      "inputs": [],
      "name": "saleStatus",
      "outputs": [
        {
          "internalType": "enum BabyDogeNFT.SaleStatus",
          "name": "",
          "type": "uint8"
        }
      ],
      "stateMutability": "view",
      "type": "function"
    },
    {
      "inputs": [
        {
          "internalType": "address",
          "name": "operator",
          "type": "address"
        },
        {
          "internalType": "bool",
          "name": "approved",
          "type": "bool"
        }
      ],
      "name": "setApprovalForAll",
      "outputs": [],
      "stateMutability": "nonpayable",
      "type": "function"
    },
    {
      "inputs": [
        {
          "internalType": "uint256",
          "name": "_maxDogePurchase",
          "type": "uint256"
        }
      ],
      "name": "setMaxMint",
      "outputs": [],
      "stateMutability": "nonpayable",
      "type": "function"
    },
    {
      "inputs": [
        {
          "internalType": "bytes32",
          "name": "_merkleRoot",
          "type": "bytes32"
        }
      ],
      "name": "setMerkleRoot",
      "outputs": [],
      "stateMutability": "nonpayable",
      "type": "function"
    },
    {
      "inputs": [
        {
          "internalType": "uint256",
          "name": "revealTimeStamp",
          "type": "uint256"
        }
      ],
      "name": "setRevealTimestamp",
      "outputs": [],
      "stateMutability": "nonpayable",
      "type": "function"
    },
    {
      "inputs": [
        {
          "internalType": "enum BabyDogeNFT.SaleStatus",
          "name": "_saleStatus",
          "type": "uint8"
        }
      ],
      "name": "setSaleStatus",
      "outputs": [],
      "stateMutability": "nonpayable",
      "type": "function"
    },
    {
      "inputs": [
        {
          "internalType": "uint16",
          "name": "_devTeamPercent",
          "type": "uint16"
        },
        {
          "internalType": "uint16",
          "name": "_lotoPercent",
          "type": "uint16"
        },
        {
          "internalType": "address",
          "name": "_babyDogeToken",
          "type": "address"
        },
        {
          "internalType": "string",
          "name": "_baseURILink",
          "type": "string"
        }
      ],
      "name": "setSettings",
      "outputs": [],
      "stateMutability": "nonpayable",
      "type": "function"
    },
    {
      "inputs": [
        {
          "internalType": "bytes4",
          "name": "interfaceId",
          "type": "bytes4"
        }
      ],
      "name": "supportsInterface",
      "outputs": [
        {
          "internalType": "bool",
          "name": "",
          "type": "bool"
        }
      ],
      "stateMutability": "view",
      "type": "function"
    },
    {
      "inputs": [],
      "name": "symbol",
      "outputs": [
        {
          "internalType": "string",
          "name": "",
          "type": "string"
        }
      ],
      "stateMutability": "view",
      "type": "function"
    },
    {
      "inputs": [
        {
          "internalType": "uint256",
          "name": "index",
          "type": "uint256"
        }
      ],
      "name": "tokenByIndex",
      "outputs": [
        {
          "internalType": "uint256",
          "name": "",
          "type": "uint256"
        }
      ],
      "stateMutability": "view",
      "type": "function"
    },
    {
      "inputs": [
        {
          "internalType": "address",
          "name": "owner",
          "type": "address"
        },
        {
          "internalType": "uint256",
          "name": "index",
          "type": "uint256"
        }
      ],
      "name": "tokenOfOwnerByIndex",
      "outputs": [
        {
          "internalType": "uint256",
          "name": "",
          "type": "uint256"
        }
      ],
      "stateMutability": "view",
      "type": "function"
    },
    {
      "inputs": [
        {
          "internalType": "uint256",
          "name": "tokenId",
          "type": "uint256"
        }
      ],
      "name": "tokenURI",
      "outputs": [
        {
          "internalType": "string",
          "name": "",
          "type": "string"
        }
      ],
      "stateMutability": "view",
      "type": "function"
    },
    {
      "inputs": [],
      "name": "totalSupply",
      "outputs": [
        {
          "internalType": "uint256",
          "name": "",
          "type": "uint256"
        }
      ],
      "stateMutability": "view",
      "type": "function"
    },
    {
      "inputs": [
        {
          "internalType": "address",
          "name": "from",
          "type": "address"
        },
        {
          "internalType": "address",
          "name": "to",
          "type": "address"
        },
        {
          "internalType": "uint256",
          "name": "tokenId",
          "type": "uint256"
        }
      ],
      "name": "transferFrom",
      "outputs": [],
      "stateMutability": "nonpayable",
      "type": "function"
    },
    {
      "inputs": [
        {
          "internalType": "address",
          "name": "newOwner",
          "type": "address"
        }
      ],
      "name": "transferOwnership",
      "outputs": [],
      "stateMutability": "nonpayable",
      "type": "function"
    },
    {
      "inputs": [
        {
          "internalType": "uint256",
          "name": "",
          "type": "uint256"
        }
      ],
      "name": "winners",
      "outputs": [
        {
          "internalType": "uint256",
          "name": "",
          "type": "uint256"
        }
      ],
      "stateMutability": "view",
      "type": "function"
    },
    {
      "inputs": [],
      "name": "withdrawAndLock",
      "outputs": [],
      "stateMutability": "nonpayable",
      "type": "function"
    },
    {
      "stateMutability": "payable",
      "type": "receive"
    }
  ],
  "bytecode": "0x61012060405260016012556013805461ff0019166101001790553480156200002657600080fd5b5060405162004b1738038062004b178339810160408190526200004991620002dc565b7fb3dccb4cf7a26f6cf6b120cf5a73875b7bbc655b00000000000000000000000060a0527f01be23585060835e02b77ef475b0cc51aa1e0709000000000000000000000000608052835184908490620000aa9060019060208501906200018b565b508051620000c09060029060208401906200018b565b505050620000dd620000d76200013560201b60201c565b62000139565b6001600c558151620000f790600e9060208501906200018b565b5060e05250507f2ed0feb3e7fd2022120aa84fab1945545a9f2ffc9076fd6156fa96eaff4c131160c05250671bc16d674ec8000061010052620003c4565b3390565b600b80546001600160a01b038381166001600160a01b0319831681179093556040519116919082907f8be0079c531659141344cd1fd0a4f28419497f9722a3daafe3b4186f6b6457e090600090a35050565b828054620001999062000371565b90600052602060002090601f016020900481019282620001bd576000855562000208565b82601f10620001d857805160ff191683800117855562000208565b8280016001018555821562000208579182015b8281111562000208578251825591602001919060010190620001eb565b50620002169291506200021a565b5090565b5b808211156200021657600081556001016200021b565b600082601f83011262000242578081fd5b81516001600160401b03808211156200025f576200025f620003ae565b6040516020601f8401601f1916820181018381118382101715620002875762000287620003ae565b60405283825285840181018710156200029e578485fd5b8492505b83831015620002c15785830181015182840182015291820191620002a2565b83831115620002d257848185840101525b5095945050505050565b60008060008060808587031215620002f2578384fd5b84516001600160401b038082111562000309578586fd5b620003178883890162000231565b955060208701519150808211156200032d578485fd5b6200033b8883890162000231565b9450604087015191508082111562000351578384fd5b50620003608782880162000231565b606096909601519497939650505050565b6002810460018216806200038657607f821691505b60208210811415620003a857634e487b7160e01b600052602260045260246000fd5b50919050565b634e487b7160e01b600052604160045260246000fd5b60805160601c60a05160601c60c05160e051610100516146d06200044760003960008181610a270152610ce20152600081816117fc015281816119410152818161199901528181611ac801528181611b6d0152611bc501526000610cc10152600081816115a20152611f65015260008181610a510152611f3601526146d06000f3fe6080604052600436106102605760003560e01c806370a08231116101445780639d5719b1116100b6578063bcfa950e1161007a578063bcfa950e1461069d578063c87b56dd146106b0578063db57e745146106d0578063e985e9c5146106e3578063f2fde38b14610703578063f9020e331461072357610267565b80639d5719b114610606578063a22cb4651461061b578063a2fb11751461063b578063a3bc93361461065b578063b88d4fde1461067d57610267565b80638514233911610108578063851423391461057257806388c6abf8146105925780638c3c4b34146105a75780638da5cb5b146105bc57806394985ddd146105d157806395d89b41146105f157610267565b806370a08231146104e8578063715018a614610508578063719ce73e1461051d57806379d49bb0146105325780637cb647591461055257610267565b806323b872dd116101dd5780634f6ccce7116101a15780634f6ccce71461043e578063513d29ce1461045e578063547520fe1461047e5780636352211e1461049e5780636c0360eb146104be5780636c62ef14146104d357610267565b806323b872dd146103a95780632eb4a7ab146103c95780632f745c59146103de57806342842e0e146103fe5780634891ad881461041e57610267565b8063095ea7b311610224578063095ea7b3146103355780630a213e0414610355578063107fb6421461036a57806318160ddd1461037f57806318e20a381461039457610267565b8063018a2c371461026c57806301ffc9a71461028e57806306095f59146102c457806306fdde03146102e6578063081812fc1461030857610267565b3661026757005b600080fd5b34801561027857600080fd5b5061028c6102873660046134ca565b610745565b005b34801561029a57600080fd5b506102ae6102a9366004613503565b6107cd565b6040516102bb9190613868565b60405180910390f35b3480156102d057600080fd5b506102d96107fa565b6040516102bb9190613873565b3480156102f257600080fd5b506102fb610806565b6040516102bb91906138c8565b34801561031457600080fd5b506103286103233660046134ca565b610898565b6040516102bb9190613735565b34801561034157600080fd5b5061028c6103503660046133dc565b6108db565b34801561036157600080fd5b506102ae610973565b34801561037657600080fd5b506102d9610981565b34801561038b57600080fd5b506102d9610d12565b3480156103a057600080fd5b506102d9610d18565b3480156103b557600080fd5b5061028c6103c43660046132f2565b610d1e565b3480156103d557600080fd5b506102d9610d56565b3480156103ea57600080fd5b506102d96103f93660046133dc565b610d5c565b34801561040a57600080fd5b5061028c6104193660046132f2565b610dae565b34801561042a57600080fd5b5061028c61043936600461353b565b610dc9565b34801561044a57600080fd5b506102d96104593660046134ca565b610e8e565b34801561046a57600080fd5b5061028c6104793660046135a8565b610ee9565b34801561048a57600080fd5b5061028c6104993660046134ca565b611005565b3480156104aa57600080fd5b506103286104b93660046134ca565b611079565b3480156104ca57600080fd5b506102fb6110ae565b3480156104df57600080fd5b5061028c6110bd565b3480156104f457600080fd5b506102d9610503366004613282565b611168565b34801561051457600080fd5b5061028c6111ac565b34801561052957600080fd5b506102d96111f7565b34801561053e57600080fd5b5061028c61054d3660046134ca565b6111fd565b34801561055e57600080fd5b5061028c61056d3660046134ca565b6112bf565b34801561057e57600080fd5b5061028c61058d3660046134ca565b611333565b34801561059e57600080fd5b506102d961155a565b3480156105b357600080fd5b506102d9611560565b3480156105c857600080fd5b50610328611588565b3480156105dd57600080fd5b5061028c6105ec3660046134e2565b611597565b3480156105fd57600080fd5b506102fb6115ed565b34801561061257600080fd5b5061028c6115fc565b34801561062757600080fd5b5061028c6106363660046133af565b61169b565b34801561064757600080fd5b506102d96106563660046134ca565b6116ad565b34801561066757600080fd5b506106706116ce565b6040516102bb91906137e9565b34801561068957600080fd5b5061028c610698366004613332565b611725565b61028c6106ab366004613617565b611764565b3480156106bc57600080fd5b506102fb6106cb3660046134ca565b6119dd565b61028c6106de3660046134ca565b611a60565b3480156106ef57600080fd5b506102ae6106fe3660046132ba565b611c07565b34801561070f57600080fd5b5061028c61071e366004613282565b611c35565b34801561072f57600080fd5b50610738611ca3565b6040516102bb91906138a0565b61074d611cac565b6001600160a01b031661075e611588565b6001600160a01b03161461078d5760405162461bcd60e51b815260040161078490613f3a565b60405180910390fd5b60108190556040517fd227248b3540871674d341a3d15918c6eaed5a6704bae91d238aa95b5edaab89906107c2908390613873565b60405180910390a150565b60006001600160e01b0319821663780e9d6360e01b14806107f257506107f282611cb0565b90505b919050565b67016345785d8a000081565b606060018054610815906145b5565b80601f0160208091040260200160405190810160405280929190818152602001828054610841906145b5565b801561088e5780601f106108635761010080835404028352916020019161088e565b820191906000526020600020905b81548152906001019060200180831161087157829003601f168201915b5050505050905090565b60006108a382611cf0565b6108bf5760405162461bcd60e51b815260040161078490613eee565b506000908152600560205260409020546001600160a01b031690565b60006108e682611079565b9050806001600160a01b0316836001600160a01b0316141561091a5760405162461bcd60e51b8152600401610784906140ac565b806001600160a01b031661092c611cac565b6001600160a01b031614806109485750610948816106fe611cac565b6109645760405162461bcd60e51b815260040161078490613c96565b61096e8383611d0d565b505050565b601354610100900460ff1681565b60006002600c5414156109a65760405162461bcd60e51b815260040161078490614268565b6002600c5560135460ff166109cd5760405162461bcd60e51b8152600401610784906142e5565b60006224ea00601860006109e1601a611d7b565b8152602001908152602001600020546109fa9190614527565b4211610a185760405162461bcd60e51b815260040161078490613dcb565b6040516370a0823160e01b81527f0000000000000000000000000000000000000000000000000000000000000000906001600160a01b037f000000000000000000000000000000000000000000000000000000000000000016906370a0823190610a86903090600401613735565b60206040518083038186803b158015610a9e57600080fd5b505afa158015610ab2573d6000803e3d6000fd5b505050506040513d601f19601f82011682018060405250810190610ad691906135ff565b1015610af45760405162461bcd60e51b815260040161078490613e11565b610afe601a611d7f565b4260186000610b0d601a611d7b565b8152602081019190915260400160002055610b26610d12565b60196000610b34601a611d7b565b8152602001908152602001600020819055506000601360019054906101000a900460ff1615610bc95750600d54479061271090610b759061ffff1683614553565b610b7f919061453f565b9150610b9c82610b8d611588565b6001600160a01b031690611d88565b600d5461271090610bb79062010000900461ffff1683614553565b610bc1919061453f565b601455610cbc565b610bd1611e24565b600f546040516370a0823160e01b81526001600160a01b03909116906370a0823190610c01903090600401613735565b60206040518083038186803b158015610c1957600080fd5b505afa158015610c2d573d6000803e3d6000fd5b505050506040513d601f19601f82011682018060405250810190610c5191906135ff565b600d5490915061271090610c699061ffff1683614553565b610c73919061453f565b9150610c93610c80611588565b600f546001600160a01b03169084611edc565b600d5461271090610cae9062010000900461ffff1683614553565b610cb8919061453f565b6014555b610d067f00000000000000000000000000000000000000000000000000000000000000007f0000000000000000000000000000000000000000000000000000000000000000611f32565b925050506001600c5590565b60095490565b60105481565b610d2f610d29611cac565b82612078565b610d4b5760405162461bcd60e51b8152600401610784906140ed565b61096e8383836120f5565b601b5481565b6000610d6783611168565b8210610d855760405162461bcd60e51b8152600401610784906138db565b506001600160a01b03919091166000908152600760209081526040808320938352929052205490565b61096e83838360405180602001604052806000815250611725565b610dd1611cac565b6001600160a01b0316610de2611588565b6001600160a01b031614610e085760405162461bcd60e51b815260040161078490613f3a565b6017805482919060ff19166001836002811115610e3557634e487b7160e01b600052602160045260246000fd5b02179055506017547f5f393514fe885345bf6ba49c7009fef8081ddf42042464e8dfe04a17f001cddf9060ff166002811115610e8157634e487b7160e01b600052602160045260246000fd5b6040516107c29190613873565b6000610e98610d12565b8210610eb65760405162461bcd60e51b8152600401610784906141d2565b60098281548110610ed757634e487b7160e01b600052603260045260246000fd5b90600052602060002001549050919050565b610ef1611cac565b6001600160a01b0316610f02611588565b6001600160a01b031614610f285760405162461bcd60e51b815260040161078490613f3a565b6001600160a01b038216610f4e5760405162461bcd60e51b815260040161078490614342565b600d805461ffff191661ffff8681169190911763ffff000019166201000091861691909102179055600f80546001600160a01b0319166001600160a01b0384161790558051610fa490600e90602084019061312e565b50600d54600f546040517e89f6d806b406160fe53ec387c78595e885ca4881db758f4e83ca7ddc069b8892610ff79261ffff808316936201000090930416916001600160a01b0390911690600e906143b7565b60405180910390a150505050565b61100d611cac565b6001600160a01b031661101e611588565b6001600160a01b0316146110445760405162461bcd60e51b815260040161078490613f3a565b60128190556040517f3b64f5d0ae4de41d36db0948fc83ffbba5d86eb79841008d6047a25f46ed2b79906107c2908390613873565b6000818152600360205260408120546001600160a01b0316806107f25760405162461bcd60e51b815260040161078490613d82565b60606110b8612222565b905090565b6110c5611cac565b6001600160a01b03166110d6611588565b6001600160a01b0316146110fc5760405162461bcd60e51b815260040161078490613f3a565b6013805461ff001981166101009182900460ff161590910217905561111f610981565b507fa52383c36c234ecf24255806fe74d869b31d0a0d26073e975ddeb5f871886262601360019054906101000a900460ff1660405161115e9190613868565b60405180910390a1565b60006001600160a01b0382166111905760405162461bcd60e51b815260040161078490613d38565b506001600160a01b031660009081526004602052604090205490565b6111b4611cac565b6001600160a01b03166111c5611588565b6001600160a01b0316146111eb5760405162461bcd60e51b815260040161078490613f3a565b6111f56000612231565b565b60145481565b611205611cac565b6001600160a01b0316611216611588565b6001600160a01b03161461123c5760405162461bcd60e51b815260040161078490613f3a565b6000611246610d12565b905060005b8281101561128357611271336112618385614527565b61126c906001614527565b612283565b8061127b816145f0565b91505061124b565b7fffa76519d7df0608ca65c5af555ef0723f461afa7dadac8ccb5b3f7a8019e3ef836040516112b29190613873565b60405180910390a1505050565b6112c7611cac565b6001600160a01b03166112d8611588565b6001600160a01b0316146112fe5760405162461bcd60e51b815260040161078490613f3a565b601b8190556040517f42cbc405e4dbf1b691e85b9a34b08ecfcf7a9ad9078bf4d645ccfa1fac11c10b906107c2908390613873565b6002600c5414156113565760405162461bcd60e51b815260040161078490614268565b6002600c553361136582611079565b6001600160a01b03161461138b5760405162461bcd60e51b815260040161078490613978565b6000805b6016548110156114f75782601682815481106113bb57634e487b7160e01b600052603260045260246000fd5b906000526020600020015414156114e5576016546014546113dc919061453f565b9150816014546113ec9190614572565b601455805b60165461140090600190614572565b81101561147c576016611414826001614527565b8154811061143257634e487b7160e01b600052603260045260246000fd5b90600052602060002001546016828154811061145e57634e487b7160e01b600052603260045260246000fd5b60009182526020909120015580611474816145f0565b9150506113f1565b50601680548061149c57634e487b7160e01b600052603160045260246000fd5b60019003818190600052602060002001600090559055601360019054906101000a900460ff16156114d9576114d482610b8d85611079565b6114e5565b6114e5610c8084611079565b806114ef816145f0565b91505061138f565b50600081116115185760405162461bcd60e51b815260040161078490613c53565b7ff4338f56dc8b8e2b8c87ae4eb8008d2290a524a16c153183ef0b116ef4834d7d82826040516115499291906136d9565b60405180910390a150506001600c55565b601a5481565b60175460009060ff1660028111156110b857634e487b7160e01b600052602160045260246000fd5b600b546001600160a01b031690565b336001600160a01b037f000000000000000000000000000000000000000000000000000000000000000016146115df5760405162461bcd60e51b81526004016107849061403e565b6115e9828261229d565b5050565b606060028054610815906145b5565b611604611cac565b6001600160a01b0316611615611588565b6001600160a01b03161461163b5760405162461bcd60e51b815260040161078490613f3a565b60135460ff161561164b57600080fd5b6013805460ff1916600117905561166447610b8d611588565b6013546040517fd5dc719472ee802e529d4afc3a953b5d8ea1790730213eafdcfce3433d2ea2259161115e9160ff90911690613868565b6115e96116a6611cac565b8383612394565b601581815481106116bd57600080fd5b600091825260209091200154905081565b6060601580548060200260200160405190810160405280929190818152602001828054801561088e57602002820191906000526020600020905b815481526020019060010190808311611708575050505050905090565b611736611730611cac565b83612078565b6117525760405162461bcd60e51b8152600401610784906140ed565b61175e84848484612437565b50505050565b600160175460ff16600281111561178b57634e487b7160e01b600052602160045260246000fd5b146117a85760405162461bcd60e51b815260040161078490613e8f565b336000908152601c602052604090205460ff16156117d85760405162461bcd60e51b815260040161078490613f6f565b6012548311156117fa5760405162461bcd60e51b815260040161078490613c1c565b7f000000000000000000000000000000000000000000000000000000000000000083611824610d12565b61182e9190614527565b111561184c5760405162461bcd60e51b81526004016107849061413e565b3461185f8467016345785d8a0000614553565b111561187d5760405162461bcd60e51b815260040161078490613ec6565b60003360405160200161189091906136bc565b6040516020818303038152906040528051906020012090506118e983838080602002602001604051908101604052809392919081815260200183836020028082843760009201919091525050601b54915084905061246a565b6119055760405162461bcd60e51b815260040161078490614075565b336000908152601c60205260408120805460ff191660011790555b8481101561198b576000611932610d12565b61193d906001614527565b90507f0000000000000000000000000000000000000000000000000000000000000000611968610d12565b1015611978576119783382612283565b5080611983816145f0565b915050611920565b506011541580156119ce57507f00000000000000000000000000000000000000000000000000000000000000006119c0610d12565b14806119ce57506010544210155b1561175e574360115550505050565b60606119e882611cf0565b611a045760405162461bcd60e51b815260040161078490613fef565b6000611a0e612222565b90506000815111611a2e5760405180602001604052806000815250611a59565b80611a3884612480565b604051602001611a49929190613703565b6040516020818303038152906040525b9392505050565b600260175460ff166002811115611a8757634e487b7160e01b600052602160045260246000fd5b14611aa45760405162461bcd60e51b81526004016107849061429f565b601254811115611ac65760405162461bcd60e51b815260040161078490613cf3565b7f000000000000000000000000000000000000000000000000000000000000000081611af0610d12565b611afa9190614527565b1115611b185760405162461bcd60e51b815260040161078490613a37565b34611b2b8267016345785d8a0000614553565b1115611b495760405162461bcd60e51b815260040161078490614388565b60005b81811015611bb7576000611b5e610d12565b611b69906001614527565b90507f0000000000000000000000000000000000000000000000000000000000000000611b94610d12565b1015611ba457611ba43382612283565b5080611baf816145f0565b915050611b4c565b50601154158015611bfa57507f0000000000000000000000000000000000000000000000000000000000000000611bec610d12565b1480611bfa57506010544210155b15611c0457436011555b50565b6001600160a01b03918216600090815260066020908152604080832093909416825291909152205460ff1690565b611c3d611cac565b6001600160a01b0316611c4e611588565b6001600160a01b031614611c745760405162461bcd60e51b815260040161078490613f3a565b6001600160a01b038116611c9a5760405162461bcd60e51b8152600401610784906139ba565b611c0481612231565b60175460ff1681565b3390565b60006001600160e01b031982166380ac58cd60e01b1480611ce157506001600160e01b03198216635b5e139f60e01b145b806107f257506107f28261259b565b6000908152600360205260409020546001600160a01b0316151590565b600081815260056020526040902080546001600160a01b0319166001600160a01b0384169081179091558190611d4282611079565b6001600160a01b03167f8c5be1e5ebec7d5bd14f71427d1e84f3dd0314c0f7b2291e5b200ac8c7c3b92560405160405180910390a45050565b5490565b80546001019055565b80471015611da85760405162461bcd60e51b815260040161078490613b53565b6000826001600160a01b031682604051611dc190613732565b60006040518083038185875af1925050503d8060008114611dfe576040519150601f19603f3d011682016040523d82523d6000602084013e611e03565b606091505b505090508061096e5760405162461bcd60e51b815260040161078490613af6565b6111f5600f60009054906101000a90046001600160a01b0316611ed747737a250d5630b4cf539739df2c5dacb4c659f2488d6001600160a01b031663ad5c46486040518163ffffffff1660e01b815260040160206040518083038186803b158015611e8e57600080fd5b505afa158015611ea2573d6000803e3d6000fd5b505050506040513d601f19601f82011682018060405250810190611ec6919061329e565b600f546001600160a01b03166125b4565b6127c3565b61096e8363a9059cbb60e01b8484604051602401611efb9291906137a0565b60408051601f198184030181529190526020810180516001600160e01b03166001600160e01b0319909316929092179091526129bb565b60007f00000000000000000000000000000000000000000000000000000000000000006001600160a01b0316634000aea07f000000000000000000000000000000000000000000000000000000000000000084866000604051602001611f999291906136d9565b6040516020818303038152906040526040518463ffffffff1660e01b8152600401611fc6939291906137b9565b602060405180830381600087803b158015611fe057600080fd5b505af1158015611ff4573d6000803e3d6000fd5b505050506040513d601f19601f8201168201806040525081019061201891906134ae565b50600061203a8460003060008089815260200190815260200160002054612a4a565b600085815260208190526040902054909150612057906001614527565b6000858152602081905260409020556120708482612a84565b949350505050565b600061208382611cf0565b61209f5760405162461bcd60e51b815260040161078490613bd0565b60006120aa83611079565b9050806001600160a01b0316846001600160a01b031614806120e55750836001600160a01b03166120da84610898565b6001600160a01b0316145b8061207057506120708185611c07565b826001600160a01b031661210882611079565b6001600160a01b03161461212e5760405162461bcd60e51b815260040161078490613fa6565b6001600160a01b0382166121545760405162461bcd60e51b815260040161078490613a7b565b61215f838383612ab7565b61216a600082611d0d565b6001600160a01b0383166000908152600460205260408120805460019290612193908490614572565b90915550506001600160a01b03821660009081526004602052604081208054600192906121c1908490614527565b909155505060008181526003602052604080822080546001600160a01b0319166001600160a01b0386811691821790925591518493918716917fddf252ad1be2c89b69c2b068fc378daa952ba7f163c4a11628f55a4df523b3ef91a4505050565b6060600e8054610815906145b5565b600b80546001600160a01b038381166001600160a01b0319831681179093556040519116919082907f8be0079c531659141344cd1fd0a4f28419497f9722a3daafe3b4186f6b6457e090600090a35050565b6115e9828260405180602001604052806000815250612b40565b60006101f46122aa610d12565b6122b4908461460b565b6122be9190614572565b90506040518060800160405280828152602001826101f46122df9190614527565b81526020016122f083610190614527565b81526020016123018361012c614527565b90526123119060159060046131b2565b506040518060800160405280828152602001826101f46123319190614527565b815260200161234283610190614527565b81526020016123538361012c614527565b90526123639060169060046131b2565b507f11609bf0dfcab1cd8696cdc747ee705ba9c458e0b7e701b1ebd4e1dfb6b5fb2460156040516112b2919061382d565b816001600160a01b0316836001600160a01b031614156123c65760405162461bcd60e51b815260040161078490613abf565b6001600160a01b0383811660008181526006602090815260408083209487168084529490915290819020805460ff1916851515179055517f17307eab39ab6107e8899845ad3d59bd9653f200f220920489ca2b5937696c319061242a908590613868565b60405180910390a3505050565b6124428484846120f5565b61244e84848484612b73565b61175e5760405162461bcd60e51b815260040161078490613926565b6000826124778584612c8b565b14949350505050565b6060816124a557506040805180820190915260018152600360fc1b60208201526107f5565b8160005b81156124cf57806124b9816145f0565b91506124c89050600a8361453f565b91506124a9565b60008167ffffffffffffffff8111156124f857634e487b7160e01b600052604160045260246000fd5b6040519080825280601f01601f191660200182016040528015612522576020820181803683370190505b5090505b841561207057612537600183614572565b9150612544600a8661460b565b61254f906030614527565b60f81b81838151811061257257634e487b7160e01b600052603260045260246000fd5b60200101906001600160f81b031916908160001a905350612594600a8661453f565b9450612526565b6001600160e01b031981166301ffc9a760e01b14919050565b60405163e6a4390560e01b81526000908190735c69bee701ef814a2b6a3edd4b1652cb9cc5aa6f9063e6a43905906125f29087908790600401613749565b60206040518083038186803b15801561260a57600080fd5b505afa15801561261e573d6000803e3d6000fd5b505050506040513d601f19601f82011682018060405250810190612642919061329e565b9050600080826001600160a01b0316630902f1ac6040518163ffffffff1660e01b815260040160606040518083038186803b15801561268057600080fd5b505afa158015612694573d6000803e3d6000fd5b505050506040513d601f19601f820116820180604052508101906126b8919061355a565b506001600160701b031691506001600160701b031691506000836001600160a01b0316630dfe16816040518163ffffffff1660e01b815260040160206040518083038186803b15801561270a57600080fd5b505afa15801561271e573d6000803e3d6000fd5b505050506040513d601f19601f82011682018060405250810190612742919061329e565b9050600080886001600160a01b0316836001600160a01b03161461276757838561276a565b84845b9092509050600061277d8b6103e5614553565b9050600061278b8383614553565b905060008261279c866103e8614553565b6127a69190614527565b90506127b2818361453f565b9d9c50505050505050505050505050565b60408051600280825260608201835247926000929190602083019080368337019050509050737a250d5630b4cf539739df2c5dacb4c659f2488d6001600160a01b031663ad5c46486040518163ffffffff1660e01b815260040160206040518083038186803b15801561283557600080fd5b505afa158015612849573d6000803e3d6000fd5b505050506040513d601f19601f8201168201806040525081019061286d919061329e565b8160008151811061288e57634e487b7160e01b600052603260045260246000fd5b60200260200101906001600160a01b031690816001600160a01b03168152505083816001815181106128d057634e487b7160e01b600052603260045260246000fd5b6001600160a01b0390921660209283029190910190910152737a250d5630b4cf539739df2c5dacb4c659f2488d637ff36ab583858430612912426102bc614527565b6040518663ffffffff1660e01b81526004016129319493929190614488565b6000604051808303818588803b15801561294a57600080fd5b505af115801561295e573d6000803e3d6000fd5b50505050506040513d6000823e601f3d908101601f191682016040526129879190810190613407565b600182516129959190614572565b815181106129b357634e487b7160e01b600052603260045260246000fd5b505050505050565b6000612a10826040518060400160405280602081526020017f5361666545524332303a206c6f772d6c6576656c2063616c6c206661696c6564815250856001600160a01b0316612d439092919063ffffffff16565b80519091501561096e5780806020019051810190612a2e91906134ae565b61096e5760405162461bcd60e51b81526004016107849061421e565b600084848484604051602001612a63949392919061387c565b60408051601f19818403018152919052805160209091012095945050505050565b60008282604051602001612a999291906136d9565b60405160208183030381529060405280519060200120905092915050565b612ac283838361096e565b6001600160a01b038316612ade57612ad981612d52565b612b01565b816001600160a01b0316836001600160a01b031614612b0157612b018382612d96565b6001600160a01b038216612b1d57612b1881612e33565b61096e565b826001600160a01b0316826001600160a01b03161461096e5761096e8282612f0c565b612b4a8383612f50565b612b576000848484612b73565b61096e5760405162461bcd60e51b815260040161078490613926565b6000612b87846001600160a01b031661302f565b15612c8357836001600160a01b031663150b7a02612ba3611cac565b8786866040518563ffffffff1660e01b8152600401612bc59493929190613763565b602060405180830381600087803b158015612bdf57600080fd5b505af1925050508015612c0f575060408051601f3d908101601f19168201909252612c0c9181019061351f565b60015b612c69573d808015612c3d576040519150601f19603f3d011682016040523d82523d6000602084013e612c42565b606091505b508051612c615760405162461bcd60e51b815260040161078490613926565b805181602001fd5b6001600160e01b031916630a85bd0160e11b149050612070565b506001612070565b600081815b8451811015612d3b576000858281518110612cbb57634e487b7160e01b600052603260045260246000fd5b60200260200101519050808311612cfc578281604051602001612cdf9291906136d9565b604051602081830303815290604052805190602001209250612d28565b8083604051602001612d0f9291906136d9565b6040516020818303038152906040528051906020012092505b5080612d33816145f0565b915050612c90565b509392505050565b60606120708484600085613035565b600980546000838152600a60205260408120829055600182018355919091527f6e1540171b6c0c960b71a7020d9f60077f6af931a8bbf590da0223dacf75c7af0155565b60006001612da384611168565b612dad9190614572565b600083815260086020526040902054909150808214612e00576001600160a01b03841660009081526007602090815260408083208584528252808320548484528184208190558352600890915290208190555b5060009182526008602090815260408084208490556001600160a01b039094168352600781528383209183525290812055565b600954600090612e4590600190614572565b6000838152600a602052604081205460098054939450909284908110612e7b57634e487b7160e01b600052603260045260246000fd5b906000526020600020015490508060098381548110612eaa57634e487b7160e01b600052603260045260246000fd5b6000918252602080832090910192909255828152600a90915260408082208490558582528120556009805480612ef057634e487b7160e01b600052603160045260246000fd5b6001900381819060005260206000200160009055905550505050565b6000612f1783611168565b6001600160a01b039093166000908152600760209081526040808320868452825280832085905593825260089052919091209190915550565b6001600160a01b038216612f765760405162461bcd60e51b815260040161078490613e5a565b612f7f81611cf0565b15612f9c5760405162461bcd60e51b815260040161078490613a00565b612fa860008383612ab7565b6001600160a01b0382166000908152600460205260408120805460019290612fd1908490614527565b909155505060008181526003602052604080822080546001600160a01b0319166001600160a01b03861690811790915590518392907fddf252ad1be2c89b69c2b068fc378daa952ba7f163c4a11628f55a4df523b3ef908290a45050565b3b151590565b6060824710156130575760405162461bcd60e51b815260040161078490613b8a565b6130608561302f565b61307c5760405162461bcd60e51b81526004016107849061419b565b600080866001600160a01b0316858760405161309891906136e7565b60006040518083038185875af1925050503d80600081146130d5576040519150601f19603f3d011682016040523d82523d6000602084013e6130da565b606091505b50915091506130ea8282866130f5565b979650505050505050565b60608315613104575081611a59565b8251156131145782518084602001fd5b8160405162461bcd60e51b815260040161078491906138c8565b82805461313a906145b5565b90600052602060002090601f01602090048101928261315c57600085556131a2565b82601f1061317557805160ff19168380011785556131a2565b828001600101855582156131a2579182015b828111156131a2578251825591602001919060010190613187565b506131ae9291506131ec565b5090565b8280548282559060005260206000209081019282156131a257916020028201828111156131a2578251825591602001919060010190613187565b5b808211156131ae57600081556001016131ed565b600067ffffffffffffffff83111561321b5761321b61464b565b61322e601f8401601f19166020016144f1565b905082815283838301111561324257600080fd5b828260208301376000602084830101529392505050565b80516001600160701b03811681146107f557600080fd5b803561ffff811681146107f557600080fd5b600060208284031215613293578081fd5b8135611a5981614661565b6000602082840312156132af578081fd5b8151611a5981614661565b600080604083850312156132cc578081fd5b82356132d781614661565b915060208301356132e781614661565b809150509250929050565b600080600060608486031215613306578081fd5b833561331181614661565b9250602084013561332181614661565b929592945050506040919091013590565b60008060008060808587031215613347578081fd5b843561335281614661565b9350602085013561336281614661565b925060408501359150606085013567ffffffffffffffff811115613384578182fd5b8501601f81018713613394578182fd5b6133a387823560208401613201565b91505092959194509250565b600080604083850312156133c1578182fd5b82356133cc81614661565b915060208301356132e781614676565b600080604083850312156133ee578182fd5b82356133f981614661565b946020939093013593505050565b60006020808385031215613419578182fd5b825167ffffffffffffffff80821115613430578384fd5b818501915085601f830112613443578384fd5b8151818111156134555761345561464b565b83810291506134658483016144f1565b8181528481019084860184860187018a101561347f578788fd5b8795505b838610156134a1578051835260019590950194918601918601613483565b5098975050505050505050565b6000602082840312156134bf578081fd5b8151611a5981614676565b6000602082840312156134db578081fd5b5035919050565b600080604083850312156134f4578182fd5b50508035926020909101359150565b600060208284031215613514578081fd5b8135611a5981614684565b600060208284031215613530578081fd5b8151611a5981614684565b60006020828403121561354c578081fd5b813560038110611a59578182fd5b60008060006060848603121561356e578081fd5b61357784613259565b925061358560208501613259565b9150604084015163ffffffff8116811461359d578182fd5b809150509250925092565b600080600080608085870312156135bd578182fd5b6135c685613270565b93506135d460208601613270565b925060408501356135e481614661565b9150606085013567ffffffffffffffff811115613384578182fd5b600060208284031215613610578081fd5b5051919050565b60008060006040848603121561362b578081fd5b83359250602084013567ffffffffffffffff80821115613649578283fd5b818601915086601f83011261365c578283fd5b81358181111561366a578384fd5b876020808302850101111561367d578384fd5b6020830194508093505050509250925092565b600081518084526136a8816020860160208601614589565b601f01601f19169290920160200192915050565b60609190911b6bffffffffffffffffffffffff1916815260140190565b918252602082015260400190565b600082516136f9818460208701614589565b9190910192915050565b60008351613715818460208801614589565b835190830190613729818360208801614589565b01949350505050565b90565b6001600160a01b0391909116815260200190565b6001600160a01b0392831681529116602082015260400190565b6001600160a01b038581168252841660208201526040810183905260806060820181905260009061379690830184613690565b9695505050505050565b6001600160a01b03929092168252602082015260400190565b600060018060a01b0385168252836020830152606060408301526137e06060830184613690565b95945050505050565b6020808252825182820181905260009190848201906040850190845b8181101561382157835183529284019291840191600101613805565b50909695505050505050565b6020808252825482820181905260008481528281209092916040850190845b818110156138215783548352600193840193928501920161384c565b901515815260200190565b90815260200190565b93845260208401929092526001600160a01b03166040830152606082015260800190565b60208101600383106138c257634e487b7160e01b600052602160045260246000fd5b91905290565b600060208252611a596020830184613690565b6020808252602b908201527f455243373231456e756d657261626c653a206f776e657220696e646578206f7560408201526a74206f6620626f756e647360a81b606082015260800190565b60208082526032908201527f4552433732313a207472616e7366657220746f206e6f6e20455243373231526560408201527131b2b4bb32b91034b6b83632b6b2b73a32b960711b606082015260800190565b60208082526022908201527f6572726f723a20796f7520646f6e74206f776e20612077696e6e696e6720646f604082015261676560f01b606082015260800190565b60208082526026908201527f4f776e61626c653a206e6577206f776e657220697320746865207a65726f206160408201526564647265737360d01b606082015260800190565b6020808252601c908201527f4552433732313a20746f6b656e20616c7265616479206d696e74656400000000604082015260600190565b60208082526024908201527f6572726f723a20746f74616c20737570706c7920686173206265656e2072656160408201526318da195960e21b606082015260800190565b60208082526024908201527f4552433732313a207472616e7366657220746f20746865207a65726f206164646040820152637265737360e01b606082015260800190565b60208082526019908201527f4552433732313a20617070726f766520746f2063616c6c657200000000000000604082015260600190565b6020808252603a908201527f416464726573733a20756e61626c6520746f2073656e642076616c75652c207260408201527f6563697069656e74206d61792068617665207265766572746564000000000000606082015260800190565b6020808252601d908201527f416464726573733a20696e73756666696369656e742062616c616e6365000000604082015260600190565b60208082526026908201527f416464726573733a20696e73756666696369656e742062616c616e636520666f6040820152651c8818d85b1b60d21b606082015260800190565b6020808252602c908201527f4552433732313a206f70657261746f7220717565727920666f72206e6f6e657860408201526b34b9ba32b73a103a37b5b2b760a11b606082015260800190565b6020808252601e908201527f596f752063616e2774206d696e742074686174206d616e7920446f6765730000604082015260600190565b60208082526023908201527f6572726f723a207072697a65206d75737420626520677265617465722074686560408201526206e20360ec1b606082015260800190565b60208082526038908201527f4552433732313a20617070726f76652063616c6c6572206973206e6f74206f7760408201527f6e6572206e6f7220617070726f76656420666f7220616c6c0000000000000000606082015260800190565b60208082526025908201527f6572726f723a20796f752063616e2774206d696e742074686174206d616e7920604082015264646f67657360d81b606082015260800190565b6020808252602a908201527f4552433732313a2062616c616e636520717565727920666f7220746865207a65604082015269726f206164647265737360b01b606082015260800190565b60208082526029908201527f4552433732313a206f776e657220717565727920666f72206e6f6e657869737460408201526832b73a103a37b5b2b760b91b606082015260800190565b60208082526026908201527f6572726f723a20697465726174696f6e20706572696f6420686173206e6f74206040820152651c185cdcd95960d21b606082015260800190565b60208082526029908201527f4e6f7420656e6f756768204c494e4b202d2066696c6c20636f6e74726163742060408201526877697468204c696e6b60b81b606082015260800190565b6020808252818101527f4552433732313a206d696e7420746f20746865207a65726f2061646472657373604082015260600190565b6020808252601e908201527f57686974656c6973742073616c6520686173206e6f7420737461727465640000604082015260600190565b6020808252600e908201526d09cdee840cadcdeeaced0408aa8960931b604082015260600190565b6020808252602c908201527f4552433732313a20617070726f76656420717565727920666f72206e6f6e657860408201526b34b9ba32b73a103a37b5b2b760a11b606082015260800190565b6020808252818101527f4f776e61626c653a2063616c6c6572206973206e6f7420746865206f776e6572604082015260600190565b60208082526017908201527f596f75206861766520616c7265616479204d696e746564000000000000000000604082015260600190565b60208082526029908201527f4552433732313a207472616e73666572206f6620746f6b656e2074686174206960408201526839903737ba1037bbb760b91b606082015260800190565b6020808252602f908201527f4552433732314d657461646174613a2055524920717565727920666f72206e6f60408201526e3732bc34b9ba32b73a103a37b5b2b760891b606082015260800190565b6020808252601f908201527f4f6e6c7920565246436f6f7264696e61746f722063616e2066756c66696c6c00604082015260600190565b6020808252601b908201527f596f75206172656e2774206f6e207468652077686974656c6973740000000000604082015260600190565b60208082526021908201527f4552433732313a20617070726f76616c20746f2063757272656e74206f776e656040820152603960f91b606082015260800190565b60208082526031908201527f4552433732313a207472616e736665722063616c6c6572206973206e6f74206f6040820152701ddb995c881b9bdc88185c1c1c9bdd9959607a1b606082015260800190565b6020808252603b908201527f556e61626c6520746f206d696e743a20776f756c642065786365656420746f7460408201527f616c20737570706c792c20747279206d696e74696e67206c6573730000000000606082015260800190565b6020808252601d908201527f416464726573733a2063616c6c20746f206e6f6e2d636f6e7472616374000000604082015260600190565b6020808252602c908201527f455243373231456e756d657261626c653a20676c6f62616c20696e646578206f60408201526b7574206f6620626f756e647360a01b606082015260800190565b6020808252602a908201527f5361666545524332303a204552433230206f7065726174696f6e20646964206e6040820152691bdd081cdd58d8d9595960b21b606082015260800190565b6020808252601f908201527f5265656e7472616e637947756172643a207265656e7472616e742063616c6c00604082015260600190565b60208082526026908201527f6572726f723a207075626c69632073616c6520686173206e6f742073746172746040820152651959081e595d60d21b606082015260800190565b60208082526039908201527f6572726f723a2063616e27742063616c6c206e6578745265776172644e6f6e6360408201527f65206265666f7265207468652073616c65206973206f76657200000000000000606082015260800190565b60208082526026908201527f4572726f723a20546f6b656e2063616e277420626520746865207a65726f206160408201526564647265737360d01b606082015260800190565b6020808252601590820152740cae4e4dee47440dcdee840cadcdeeaced0408ae8d605b1b604082015260600190565b61ffff858116825284166020808301919091526001600160a01b03841660408301526080606083015282546000918291600281046001828116806143fc57607f831692505b84831081141561441a57634e487b7160e01b87526022600452602487fd5b6144278360808a01613873565b81801561443b576001811461444c57614476565b60ff19861682528682019750614476565b6144558b61451b565b895b8681101561447057815484820152908501908801614457565b83019850505b50959c9b505050505050505050505050565b600060808201868352602060808185015281875180845260a0860191508289019350845b818110156144d15784516001600160a01b0316835293830193918301916001016144ac565b50506001600160a01b039690961660408501525050506060015292915050565b60405181810167ffffffffffffffff811182821017156145135761451361464b565b604052919050565b60009081526020902090565b6000821982111561453a5761453a61461f565b500190565b60008261454e5761454e614635565b500490565b600081600019048311821515161561456d5761456d61461f565b500290565b6000828210156145845761458461461f565b500390565b60005b838110156145a457818101518382015260200161458c565b8381111561175e5750506000910152565b6002810460018216806145c957607f821691505b602082108114156145ea57634e487b7160e01b600052602260045260246000fd5b50919050565b60006000198214156146045761460461461f565b5060010190565b60008261461a5761461a614635565b500690565b634e487b7160e01b600052601160045260246000fd5b634e487b7160e01b600052601260045260246000fd5b634e487b7160e01b600052604160045260246000fd5b6001600160a01b0381168114611c0457600080fd5b8015158114611c0457600080fd5b6001600160e01b031981168114611c0457600080fdfea26469706673582212203e6c36d7f6b122e3d312a5f5700e153e3e281e1ce1825ef175fa6afbc857ba0d64736f6c63430008000033",
  "linkReferences": {},
  "deployedLinkReferences": {}
}