{
  "_format": "hh-sol-artifact-1",
  "contractName": "BabyDogeNFT",
  "sourceName": "contracts/BabyDogeNft.sol",
  "abi": [
    {
      "inputs": [
        {
          "internalType": "string",
          "name": "name",
          "type": "string"
        },
        {
          "internalType": "string",
          "name": "symbol",
          "type": "string"
        },
        {
          "internalType": "string",
          "name": "baseTokenURI",
          "type": "string"
        },
        {
          "internalType": "uint256",
          "name": "maxNftSupply",
          "type": "uint256"
        }
      ],
      "stateMutability": "nonpayable",
      "type": "constructor"
    },
    {
      "anonymous": false,
      "inputs": [
        {
          "indexed": true,
          "internalType": "address",
          "name": "owner",
          "type": "address"
        },
        {
          "indexed": true,
          "internalType": "address",
          "name": "approved",
          "type": "address"
        },
        {
          "indexed": true,
          "internalType": "uint256",
          "name": "tokenId",
          "type": "uint256"
        }
      ],
      "name": "Approval",
      "type": "event"
    },
    {
      "anonymous": false,
      "inputs": [
        {
          "indexed": true,
          "internalType": "address",
          "name": "owner",
          "type": "address"
        },
        {
          "indexed": true,
          "internalType": "address",
          "name": "operator",
          "type": "address"
        },
        {
          "indexed": false,
          "internalType": "bool",
          "name": "approved",
          "type": "bool"
        }
      ],
      "name": "ApprovalForAll",
      "type": "event"
    },
    {
      "anonymous": false,
      "inputs": [
        {
          "indexed": false,
          "internalType": "uint256",
          "name": "_id",
          "type": "uint256"
        },
        {
          "indexed": false,
          "internalType": "uint256",
          "name": "_prize",
          "type": "uint256"
        }
      ],
      "name": "LottoClaimed",
      "type": "event"
    },
    {
      "anonymous": false,
      "inputs": [
        {
          "indexed": true,
          "internalType": "address",
          "name": "previousOwner",
          "type": "address"
        },
        {
          "indexed": true,
          "internalType": "address",
          "name": "newOwner",
          "type": "address"
        }
      ],
      "name": "OwnershipTransferred",
      "type": "event"
    },
    {
      "anonymous": false,
      "inputs": [
        {
          "indexed": true,
          "internalType": "address",
          "name": "from",
          "type": "address"
        },
        {
          "indexed": true,
          "internalType": "address",
          "name": "to",
          "type": "address"
        },
        {
          "indexed": true,
          "internalType": "uint256",
          "name": "tokenId",
          "type": "uint256"
        }
      ],
      "name": "Transfer",
      "type": "event"
    },
    {
      "anonymous": false,
      "inputs": [
        {
          "indexed": false,
          "internalType": "uint256[]",
          "name": "_ids",
          "type": "uint256[]"
        }
      ],
      "name": "WinnersPicked",
      "type": "event"
    },
    {
      "inputs": [],
      "name": "REVEAL_TIMESTAMP",
      "outputs": [
        {
          "internalType": "uint256",
          "name": "",
          "type": "uint256"
        }
      ],
      "stateMutability": "view",
      "type": "function"
    },
    {
      "inputs": [
        {
          "internalType": "address",
          "name": "to",
          "type": "address"
        },
        {
          "internalType": "uint256",
          "name": "tokenId",
          "type": "uint256"
        }
      ],
      "name": "approve",
      "outputs": [],
      "stateMutability": "nonpayable",
      "type": "function"
    },
    {
      "inputs": [
        {
          "internalType": "address",
          "name": "owner",
          "type": "address"
        }
      ],
      "name": "balanceOf",
      "outputs": [
        {
          "internalType": "uint256",
          "name": "",
          "type": "uint256"
        }
      ],
      "stateMutability": "view",
      "type": "function"
    },
    {
      "inputs": [],
      "name": "baseURI",
      "outputs": [
        {
          "internalType": "string",
          "name": "",
          "type": "string"
        }
      ],
      "stateMutability": "view",
      "type": "function"
    },
    {
      "inputs": [
        {
          "internalType": "uint256",
          "name": "_id",
          "type": "uint256"
        }
      ],
      "name": "claimLotto",
      "outputs": [],
      "stateMutability": "nonpayable",
      "type": "function"
    },
    {
      "inputs": [],
      "name": "currentIteration",
      "outputs": [
        {
          "internalType": "uint256",
          "name": "_value",
          "type": "uint256"
        }
      ],
      "stateMutability": "view",
      "type": "function"
    },
    {
      "inputs": [],
      "name": "dogePrice",
      "outputs": [
        {
          "internalType": "uint256",
          "name": "",
          "type": "uint256"
        }
      ],
      "stateMutability": "view",
      "type": "function"
    },
    {
      "inputs": [],
      "name": "ethPayout",
      "outputs": [
        {
          "internalType": "bool",
          "name": "",
          "type": "bool"
        }
      ],
      "stateMutability": "view",
      "type": "function"
    },
    {
      "inputs": [],
      "name": "flipEthPayout",
      "outputs": [],
      "stateMutability": "nonpayable",
      "type": "function"
    },
    {
      "inputs": [
        {
          "internalType": "uint256",
          "name": "tokenId",
          "type": "uint256"
        }
      ],
      "name": "getApproved",
      "outputs": [
        {
          "internalType": "address",
          "name": "",
          "type": "address"
        }
      ],
      "stateMutability": "view",
      "type": "function"
    },
    {
      "inputs": [],
      "name": "getCurrentWinners",
      "outputs": [
        {
          "internalType": "uint256[]",
          "name": "",
          "type": "uint256[]"
        }
      ],
      "stateMutability": "view",
      "type": "function"
    },
    {
      "inputs": [],
      "name": "getMaxDogesPurchaseable",
      "outputs": [
        {
          "internalType": "uint256",
          "name": "",
          "type": "uint256"
        }
      ],
      "stateMutability": "view",
      "type": "function"
    },
    {
      "inputs": [],
      "name": "getSaleStatus",
      "outputs": [
        {
          "internalType": "uint256",
          "name": "",
          "type": "uint256"
        }
      ],
      "stateMutability": "view",
      "type": "function"
    },
    {
      "inputs": [
        {
          "internalType": "address",
          "name": "owner",
          "type": "address"
        },
        {
          "internalType": "address",
          "name": "operator",
          "type": "address"
        }
      ],
      "name": "isApprovedForAll",
      "outputs": [
        {
          "internalType": "bool",
          "name": "",
          "type": "bool"
        }
      ],
      "stateMutability": "view",
      "type": "function"
    },
    {
      "inputs": [],
      "name": "merkleRoot",
      "outputs": [
        {
          "internalType": "bytes32",
          "name": "",
          "type": "bytes32"
        }
      ],
      "stateMutability": "view",
      "type": "function"
    },
    {
      "inputs": [
        {
          "internalType": "uint256",
          "name": "numberOfTokens",
          "type": "uint256"
        }
      ],
      "name": "mintDoge",
      "outputs": [],
      "stateMutability": "payable",
      "type": "function"
    },
    {
      "inputs": [
        {
          "internalType": "uint256",
          "name": "numberOfTokens",
          "type": "uint256"
        },
        {
          "internalType": "bytes32[]",
          "name": "_merkleProof",
          "type": "bytes32[]"
        }
      ],
      "name": "mintWhitelistDoge",
      "outputs": [],
      "stateMutability": "payable",
      "type": "function"
    },
    {
      "inputs": [],
      "name": "name",
      "outputs": [
        {
          "internalType": "string",
          "name": "",
          "type": "string"
        }
      ],
      "stateMutability": "view",
      "type": "function"
    },
    {
      "inputs": [],
      "name": "nextRewardNonce",
      "outputs": [
        {
          "internalType": "bytes32",
          "name": "requestId",
          "type": "bytes32"
        }
      ],
      "stateMutability": "nonpayable",
      "type": "function"
    },
    {
      "inputs": [],
      "name": "owner",
      "outputs": [
        {
          "internalType": "address",
          "name": "",
          "type": "address"
        }
      ],
      "stateMutability": "view",
      "type": "function"
    },
    {
      "inputs": [
        {
          "internalType": "uint256",
          "name": "tokenId",
          "type": "uint256"
        }
      ],
      "name": "ownerOf",
      "outputs": [
        {
          "internalType": "address",
          "name": "",
          "type": "address"
        }
      ],
      "stateMutability": "view",
      "type": "function"
    },
    {
      "inputs": [],
      "name": "prizePool",
      "outputs": [
        {
          "internalType": "uint256",
          "name": "",
          "type": "uint256"
        }
      ],
      "stateMutability": "view",
      "type": "function"
    },
    {
      "inputs": [
        {
          "internalType": "bytes32",
          "name": "requestId",
          "type": "bytes32"
        },
        {
          "internalType": "uint256",
          "name": "randomness",
          "type": "uint256"
        }
      ],
      "name": "rawFulfillRandomness",
      "outputs": [],
      "stateMutability": "nonpayable",
      "type": "function"
    },
    {
      "inputs": [],
      "name": "renounceOwnership",
      "outputs": [],
      "stateMutability": "nonpayable",
      "type": "function"
    },
    {
      "inputs": [
        {
          "internalType": "uint256",
          "name": "_ammount",
          "type": "uint256"
        }
      ],
      "name": "reserveDoges",
      "outputs": [],
      "stateMutability": "nonpayable",
      "type": "function"
    },
    {
      "inputs": [
        {
          "internalType": "address",
          "name": "from",
          "type": "address"
        },
        {
          "internalType": "address",
          "name": "to",
          "type": "address"
        },
        {
          "internalType": "uint256",
          "name": "tokenId",
          "type": "uint256"
        }
      ],
      "name": "safeTransferFrom",
      "outputs": [],
      "stateMutability": "nonpayable",
      "type": "function"
    },
    {
      "inputs": [
        {
          "internalType": "address",
          "name": "from",
          "type": "address"
        },
        {
          "internalType": "address",
          "name": "to",
          "type": "address"
        },
        {
          "internalType": "uint256",
          "name": "tokenId",
          "type": "uint256"
        },
        {
          "internalType": "bytes",
          "name": "_data",
          "type": "bytes"
        }
      ],
      "name": "safeTransferFrom",
      "outputs": [],
      "stateMutability": "nonpayable",
      "type": "function"
    },
    {
      "inputs": [],
      "name": "saleStatus",
      "outputs": [
        {
          "internalType": "enum BabyDogeNFT.SaleStatus",
          "name": "",
          "type": "uint8"
        }
      ],
      "stateMutability": "view",
      "type": "function"
    },
    {
      "inputs": [
        {
          "internalType": "address",
          "name": "operator",
          "type": "address"
        },
        {
          "internalType": "bool",
          "name": "approved",
          "type": "bool"
        }
      ],
      "name": "setApprovalForAll",
      "outputs": [],
      "stateMutability": "nonpayable",
      "type": "function"
    },
    {
      "inputs": [
        {
          "internalType": "uint256",
          "name": "_maxDogePurchase",
          "type": "uint256"
        }
      ],
      "name": "setMaxMint",
      "outputs": [],
      "stateMutability": "nonpayable",
      "type": "function"
    },
    {
      "inputs": [
        {
          "internalType": "bytes32",
          "name": "_merkleRoot",
          "type": "bytes32"
        }
      ],
      "name": "setMerkleRoot",
      "outputs": [],
      "stateMutability": "nonpayable",
      "type": "function"
    },
    {
      "inputs": [
        {
          "internalType": "uint256",
          "name": "revealTimeStamp",
          "type": "uint256"
        }
      ],
      "name": "setRevealTimestamp",
      "outputs": [],
      "stateMutability": "nonpayable",
      "type": "function"
    },
    {
      "inputs": [
        {
          "internalType": "enum BabyDogeNFT.SaleStatus",
          "name": "_saleStatus",
          "type": "uint8"
        }
      ],
      "name": "setSaleStatus",
      "outputs": [],
      "stateMutability": "nonpayable",
      "type": "function"
    },
    {
      "inputs": [
        {
          "internalType": "uint16",
          "name": "_devTeamPercent",
          "type": "uint16"
        },
        {
          "internalType": "uint16",
          "name": "_lotoPercent",
          "type": "uint16"
        },
        {
          "internalType": "address",
          "name": "_babyDogeToken",
          "type": "address"
        },
        {
          "internalType": "string",
          "name": "_baseURILink",
          "type": "string"
        }
      ],
      "name": "setSettings",
      "outputs": [],
      "stateMutability": "nonpayable",
      "type": "function"
    },
    {
      "inputs": [
        {
          "internalType": "bytes4",
          "name": "interfaceId",
          "type": "bytes4"
        }
      ],
      "name": "supportsInterface",
      "outputs": [
        {
          "internalType": "bool",
          "name": "",
          "type": "bool"
        }
      ],
      "stateMutability": "view",
      "type": "function"
    },
    {
      "inputs": [],
      "name": "symbol",
      "outputs": [
        {
          "internalType": "string",
          "name": "",
          "type": "string"
        }
      ],
      "stateMutability": "view",
      "type": "function"
    },
    {
      "inputs": [
        {
          "internalType": "uint256",
          "name": "index",
          "type": "uint256"
        }
      ],
      "name": "tokenByIndex",
      "outputs": [
        {
          "internalType": "uint256",
          "name": "",
          "type": "uint256"
        }
      ],
      "stateMutability": "view",
      "type": "function"
    },
    {
      "inputs": [
        {
          "internalType": "address",
          "name": "owner",
          "type": "address"
        },
        {
          "internalType": "uint256",
          "name": "index",
          "type": "uint256"
        }
      ],
      "name": "tokenOfOwnerByIndex",
      "outputs": [
        {
          "internalType": "uint256",
          "name": "",
          "type": "uint256"
        }
      ],
      "stateMutability": "view",
      "type": "function"
    },
    {
      "inputs": [
        {
          "internalType": "uint256",
          "name": "tokenId",
          "type": "uint256"
        }
      ],
      "name": "tokenURI",
      "outputs": [
        {
          "internalType": "string",
          "name": "",
          "type": "string"
        }
      ],
      "stateMutability": "view",
      "type": "function"
    },
    {
      "inputs": [],
      "name": "totalSupply",
      "outputs": [
        {
          "internalType": "uint256",
          "name": "",
          "type": "uint256"
        }
      ],
      "stateMutability": "view",
      "type": "function"
    },
    {
      "inputs": [
        {
          "internalType": "address",
          "name": "from",
          "type": "address"
        },
        {
          "internalType": "address",
          "name": "to",
          "type": "address"
        },
        {
          "internalType": "uint256",
          "name": "tokenId",
          "type": "uint256"
        }
      ],
      "name": "transferFrom",
      "outputs": [],
      "stateMutability": "nonpayable",
      "type": "function"
    },
    {
      "inputs": [
        {
          "internalType": "address",
          "name": "newOwner",
          "type": "address"
        }
      ],
      "name": "transferOwnership",
      "outputs": [],
      "stateMutability": "nonpayable",
      "type": "function"
    },
    {
      "inputs": [
        {
          "internalType": "uint256",
          "name": "",
          "type": "uint256"
        }
      ],
      "name": "winners",
      "outputs": [
        {
          "internalType": "uint256",
          "name": "",
          "type": "uint256"
        }
      ],
      "stateMutability": "view",
      "type": "function"
    },
    {
      "inputs": [],
      "name": "withdrawAndLock",
      "outputs": [],
      "stateMutability": "nonpayable",
      "type": "function"
    },
    {
      "stateMutability": "payable",
      "type": "receive"
    }
  ],
  "bytecode": "0x60c060405260016015556017805461ffff19166101001790553480156200002557600080fd5b5060405162004016380380620040168339810160408190526200004891620002da565b7fb3dccb4cf7a26f6cf6b120cf5a73875b7bbc655b00000000000000000000000060a0527f01be23585060835e02b77ef475b0cc51aa1e0709000000000000000000000000608052835184908490620000a990600190602085019062000189565b508051620000bf90600290602084019062000189565b505050620000dc620000d66200013360201b60201c565b62000137565b6001600c558151620000f690601090602085019062000189565b5060165550507f2ed0feb3e7fd2022120aa84fab1945545a9f2ffc9076fd6156fa96eaff4c1311600f5550671bc16d674ec80000601855620003c2565b3390565b600b80546001600160a01b038381166001600160a01b0319831681179093556040519116919082907f8be0079c531659141344cd1fd0a4f28419497f9722a3daafe3b4186f6b6457e090600090a35050565b82805462000197906200036f565b90600052602060002090601f016020900481019282620001bb576000855562000206565b82601f10620001d657805160ff191683800117855562000206565b8280016001018555821562000206579182015b8281111562000206578251825591602001919060010190620001e9565b506200021492915062000218565b5090565b5b8082111562000214576000815560010162000219565b600082601f83011262000240578081fd5b81516001600160401b03808211156200025d576200025d620003ac565b6040516020601f8401601f1916820181018381118382101715620002855762000285620003ac565b60405283825285840181018710156200029c578485fd5b8492505b83831015620002bf5785830181015182840182015291820191620002a0565b83831115620002d057848185840101525b5095945050505050565b60008060008060808587031215620002f0578384fd5b84516001600160401b038082111562000307578586fd5b62000315888389016200022f565b955060208701519150808211156200032b578485fd5b62000339888389016200022f565b945060408701519150808211156200034f578384fd5b506200035e878288016200022f565b606096909601519497939650505050565b6002810460018216806200038457607f821691505b60208210811415620003a657634e487b7160e01b600052602260045260246000fd5b50919050565b634e487b7160e01b600052604160045260246000fd5b60805160601c60a05160601c613c1a620003fc6000396000818161144a0152611be30152600081816109d40152611bb40152613c1a6000f3fe60806040526004361061026b5760003560e01c8063715018a6116101445780639d5719b1116100b6578063bcfa950e1161007a578063bcfa950e146106bd578063c87b56dd146106d0578063db57e745146106f0578063e985e9c514610703578063f2fde38b14610723578063f9020e331461074357610272565b80639d5719b114610626578063a22cb4651461063b578063a2fb11751461065b578063a3bc93361461067b578063b88d4fde1461069d57610272565b806388c6abf81161010857806388c6abf81461059d5780638ba884aa146105b25780638c3c4b34146105c75780638da5cb5b146105dc57806394985ddd146105f157806395d89b411461061157610272565b8063715018a614610513578063719ce73e1461052857806379d49bb01461053d5780637cb647591461055d578063851423391461057d57610272565b80632eb4a7ab116101dd578063513d29ce116101a1578063513d29ce14610469578063547520fe146104895780636352211e146104a95780636c0360eb146104c95780636c62ef14146104de57806370a08231146104f357610272565b80632eb4a7ab146103d45780632f745c59146103e957806342842e0e146104095780634891ad88146104295780634f6ccce71461044957610272565b8063095ea7b31161022f578063095ea7b3146103405780630a213e0414610360578063107fb6421461037557806318160ddd1461038a57806318e20a381461039f57806323b872dd146103b457610272565b8063018a2c371461027757806301ffc9a71461029957806306095f59146102cf57806306fdde03146102f1578063081812fc1461031357610272565b3661027257005b600080fd5b34801561028357600080fd5b50610297610292366004612fc8565b610765565b005b3480156102a557600080fd5b506102b96102b4366004613001565b6107b2565b6040516102c69190613347565b60405180910390f35b3480156102db57600080fd5b506102e46107df565b6040516102c69190613352565b3480156102fd57600080fd5b506103066107e9565b6040516102c691906133a7565b34801561031f57600080fd5b5061033361032e366004612fc8565b61087b565b6040516102c69190613214565b34801561034c57600080fd5b5061029761035b366004612eda565b6108be565b34801561036c57600080fd5b506102b9610956565b34801561038157600080fd5b506102e4610964565b34801561039657600080fd5b506102e4610cd9565b3480156103ab57600080fd5b506102e4610cdf565b3480156103c057600080fd5b506102976103cf366004612df0565b610ce5565b3480156103e057600080fd5b506102e4610d1d565b3480156103f557600080fd5b506102e4610404366004612eda565b610d23565b34801561041557600080fd5b50610297610424366004612df0565b610d75565b34801561043557600080fd5b50610297610444366004613039565b610d90565b34801561045557600080fd5b506102e4610464366004612fc8565b610e04565b34801561047557600080fd5b506102976104843660046130a6565b610e5f565b34801561049557600080fd5b506102976104a4366004612fc8565b610efb565b3480156104b557600080fd5b506103336104c4366004612fc8565b610f3f565b3480156104d557600080fd5b50610306610f74565b3480156104ea57600080fd5b50610297610f83565b3480156104ff57600080fd5b506102e461050e366004612d80565b610fe8565b34801561051f57600080fd5b5061029761102c565b34801561053457600080fd5b506102e4611077565b34801561054957600080fd5b50610297610558366004612fc8565b61107d565b34801561056957600080fd5b50610297610578366004612fc8565b611103565b34801561058957600080fd5b50610297610598366004612fc8565b611147565b3480156105a957600080fd5b506102e46113fc565b3480156105be57600080fd5b506102e4611402565b3480156105d357600080fd5b506102e4611408565b3480156105e857600080fd5b50610333611430565b3480156105fd57600080fd5b5061029761060c366004612fe0565b61143f565b34801561061d57600080fd5b50610306611495565b34801561063257600080fd5b506102976114a4565b34801561064757600080fd5b50610297610656366004612ead565b611540565b34801561066757600080fd5b506102e4610676366004612fc8565b611552565b34801561068757600080fd5b50610690611573565b6040516102c691906132c8565b3480156106a957600080fd5b506102976106b8366004612e30565b6115ca565b6102976106cb366004613115565b611609565b3480156106dc57600080fd5b506103066106eb366004612fc8565b6117d9565b6102976106fe366004612fc8565b61185c565b34801561070f57600080fd5b506102b961071e366004612db8565b611953565b34801561072f57600080fd5b5061029761073e366004612d80565b611981565b34801561074f57600080fd5b506107586119ef565b6040516102c6919061337f565b61076d6119f8565b6001600160a01b031661077e611430565b6001600160a01b0316146107ad5760405162461bcd60e51b81526004016107a49061378e565b60405180910390fd5b601255565b60006001600160e01b0319821663780e9d6360e01b14806107d757506107d7826119fc565b90505b919050565b655af3107a400081565b6060600180546107f890613aff565b80601f016020809104026020016040519081016040528092919081815260200182805461082490613aff565b80156108715780601f1061084657610100808354040283529160200191610871565b820191906000526020600020905b81548152906001019060200180831161085457829003601f168201915b5050505050905090565b600061088682611a3c565b6108a25760405162461bcd60e51b81526004016107a490613742565b506000908152600560205260409020546001600160a01b031690565b60006108c982610f3f565b9050806001600160a01b0316836001600160a01b031614156108fd5760405162461bcd60e51b81526004016107a4906138c9565b806001600160a01b031661090f6119f8565b6001600160a01b0316148061092b575061092b8161071e6119f8565b6109475760405162461bcd60e51b81526004016107a49061361d565b6109518383611a59565b505050565b601754610100900460ff1681565b60175460009060ff16151560011461097b57600080fd5b60006109af6224ea00601e60006109926020611ac7565b815260200190815260200160002054611acb90919063ffffffff16565b42116109ba57600080fd5b6018546040516370a0823160e01b81526001600160a01b037f000000000000000000000000000000000000000000000000000000000000000016906370a0823190610a09903090600401613214565b60206040518083038186803b158015610a2157600080fd5b505afa158015610a35573d6000803e3d6000fd5b505050506040513d601f19601f82011682018060405250810190610a5991906130fd565b1015610a775760405162461bcd60e51b81526004016107a490613586565b610a816020611ad7565b42601e6000610a906020611ac7565b8152602081019190915260400160002055610aa9610cd9565b601f6000610ab76020611ac7565b8152602001908152602001600020819055506000601760019054906101000a900460ff1615610b6e5750600e544790610b039061271090610afd90849061ffff16611ae0565b90611aec565b9150610b0d611430565b6001600160a01b03166108fc839081150290604051600060405180830381858888f19350505050158015610b45573d6000803e3d6000fd5b50600e54610b669061271090610afd90849062010000900461ffff16611ae0565b601955610cc4565b610b76611af8565b6011546040516370a0823160e01b81526001600160a01b03909116906370a0823190610ba6903090600401613214565b60206040518083038186803b158015610bbe57600080fd5b505afa158015610bd2573d6000803e3d6000fd5b505050506040513d601f19601f82011682018060405250810190610bf691906130fd565b600e54909150610c139061271090610afd90849061ffff16611ae0565b6011549092506001600160a01b031663a9059cbb610c2f611430565b846040518363ffffffff1660e01b8152600401610c4d92919061327f565b602060405180830381600087803b158015610c6757600080fd5b505af1158015610c7b573d6000803e3d6000fd5b505050506040513d601f19601f82011682018060405250810190610c9f9190612fac565b50600e54610cc09061271090610afd90849062010000900461ffff16611ae0565b6019555b610cd2600f54601854611bb0565b9250505090565b60095490565b60125481565b610cf6610cf06119f8565b82611cf6565b610d125760405162461bcd60e51b81526004016107a49061390a565b610951838383611d73565b60215481565b6000610d2e83610fe8565b8210610d4c5760405162461bcd60e51b81526004016107a4906133ba565b506001600160a01b03919091166000908152600760209081526040808320938352929052205490565b610951838383604051806020016040528060008152506115ca565b610d986119f8565b6001600160a01b0316610da9611430565b6001600160a01b031614610dcf5760405162461bcd60e51b81526004016107a49061378e565b601c805482919060ff19166001836002811115610dfc57634e487b7160e01b600052602160045260246000fd5b021790555050565b6000610e0e610cd9565b8210610e2c5760405162461bcd60e51b81526004016107a49061395b565b60098281548110610e4d57634e487b7160e01b600052603260045260246000fd5b90600052602060002001549050919050565b610e676119f8565b6001600160a01b0316610e78611430565b6001600160a01b031614610e9e5760405162461bcd60e51b81526004016107a49061378e565b600e805461ffff191661ffff8681169190911763ffff000019166201000091861691909102179055601180546001600160a01b0319166001600160a01b0384161790558051610ef4906010906020840190612c2c565b5050505050565b610f036119f8565b6001600160a01b0316610f14611430565b6001600160a01b031614610f3a5760405162461bcd60e51b81526004016107a49061378e565b601555565b6000818152600360205260408120546001600160a01b0316806107d75760405162461bcd60e51b81526004016107a4906136c4565b6060610f7e611ea0565b905090565b610f8b6119f8565b6001600160a01b0316610f9c611430565b6001600160a01b031614610fc25760405162461bcd60e51b81526004016107a49061378e565b6017805461ff001981166101009182900460ff1615909102179055610fe5610964565b50565b60006001600160a01b0382166110105760405162461bcd60e51b81526004016107a49061367a565b506001600160a01b031660009081526004602052604090205490565b6110346119f8565b6001600160a01b0316611045611430565b6001600160a01b03161461106b5760405162461bcd60e51b81526004016107a49061378e565b6110756000611eaf565b565b60195481565b6110856119f8565b6001600160a01b0316611096611430565b6001600160a01b0316146110bc5760405162461bcd60e51b81526004016107a49061378e565b60006110c6610cd9565b905060005b82811015610951576110f1336110e18385613a71565b6110ec906001613a71565b611f01565b806110fb81613b3a565b9150506110cb565b61110b6119f8565b6001600160a01b031661111c611430565b6001600160a01b0316146111425760405162461bcd60e51b81526004016107a49061378e565b602155565b6002600c54141561116a5760405162461bcd60e51b81526004016107a4906139a7565b6002600c553361117982610f3f565b6001600160a01b03161461118c57600080fd5b6000805b601b548110156113ac5782601b82815481106111bc57634e487b7160e01b600052603260045260246000fd5b9060005260206000200154141561139a57601b546019546111dc91611aec565b6019549092506111ec9083611f1b565b601955805b601b5461120090600190613abc565b81101561127c57601b611214826001613a71565b8154811061123257634e487b7160e01b600052603260045260246000fd5b9060005260206000200154601b828154811061125e57634e487b7160e01b600052603260045260246000fd5b6000918252602090912001558061127481613b3a565b9150506111f1565b50601b80548061129c57634e487b7160e01b600052603160045260246000fd5b60019003818190600052602060002001600090559055601760019054906101000a900460ff161561130e576112d083610f3f565b6001600160a01b03166108fc839081150290604051600060405180830381858888f19350505050158015611308573d6000803e3d6000fd5b5061139a565b6011546001600160a01b031663a9059cbb61132885610f3f565b846040518363ffffffff1660e01b815260040161134692919061327f565b602060405180830381600087803b15801561136057600080fd5b505af1158015611374573d6000803e3d6000fd5b505050506040513d601f19601f820116820180604052508101906113989190612fac565b505b806113a481613b3a565b915050611190565b50600081116113ba57600080fd5b7ff4338f56dc8b8e2b8c87ae4eb8008d2290a524a16c153183ef0b116ef4834d7d82826040516113eb9291906131d7565b60405180910390a150506001600c55565b60205481565b60155490565b601c5460009060ff166002811115610f7e57634e487b7160e01b600052602160045260246000fd5b600b546001600160a01b031690565b336001600160a01b037f000000000000000000000000000000000000000000000000000000000000000016146114875760405162461bcd60e51b81526004016107a49061385b565b6114918282611f27565b5050565b6060600280546107f890613aff565b6114ac6119f8565b6001600160a01b03166114bd611430565b6001600160a01b0316146114e35760405162461bcd60e51b81526004016107a49061378e565b60175460ff16156114f357600080fd5b6017805460ff19166001179055611508611430565b6001600160a01b03166108fc479081150290604051600060405180830381858888f19350505050158015610fe5573d6000803e3d6000fd5b61149161154b6119f8565b8383612030565b601a818154811061156257600080fd5b600091825260209091200154905081565b6060601a80548060200260200160405190810160405280929190818152602001828054801561087157602002820191906000526020600020905b8154815260200190600101908083116115ad575050505050905090565b6115db6115d56119f8565b83611cf6565b6115f75760405162461bcd60e51b81526004016107a49061390a565b611603848484846120d3565b50505050565b6001601c5460ff16600281111561163057634e487b7160e01b600052602160045260246000fd5b1461163a57600080fd5b3360009081526022602052604090205460ff161561166a5760405162461bcd60e51b81526004016107a4906134d4565b60155483111561167957600080fd5b60165461168e84611688610cd9565b90611acb565b111561169957600080fd5b346116aa655af3107a400085611ae0565b11156116b557600080fd5b6000336040516020016116c891906131ba565b604051602081830303815290604052805190602001209050611721838380806020026020016040519081016040528093929190818152602001838360200280828437600092019190915250506021549150849050612106565b61173d5760405162461bcd60e51b81526004016107a490613892565b336000908152602260205260408120805460ff191660011790555b848110156117a557600061176a610cd9565b611775906001613a71565b9050601654611782610cd9565b1015611792576117923382611f01565b508061179d81613b3a565b915050611758565b506013541580156117ca57506016546117bc610cd9565b14806117ca57506012544210155b15611603574360135550505050565b60606117e482611a3c565b6118005760405162461bcd60e51b81526004016107a49061380c565b600061180a611ea0565b9050600081511161182a5760405180602001604052806000815250611855565b806118348461211c565b6040516020016118459291906131e5565b6040516020818303038152906040525b9392505050565b6002601c5460ff16600281111561188357634e487b7160e01b600052602160045260246000fd5b1461188d57600080fd5b60155481111561189c57600080fd5b6016546118ab82611688610cd9565b11156118b657600080fd5b346118c7655af3107a400083611ae0565b11156118d257600080fd5b60005b818110156119225760006118e7610cd9565b6118f2906001613a71565b90506016546118ff610cd9565b101561190f5761190f3382611f01565b508061191a81613b3a565b9150506118d5565b506013541580156119475750601654611939610cd9565b148061194757506012544210155b15610fe5574360135550565b6001600160a01b03918216600090815260066020908152604080832093909416825291909152205460ff1690565b6119896119f8565b6001600160a01b031661199a611430565b6001600160a01b0316146119c05760405162461bcd60e51b81526004016107a49061378e565b6001600160a01b0381166119e65760405162461bcd60e51b81526004016107a490613457565b610fe581611eaf565b601c5460ff1681565b3390565b60006001600160e01b031982166380ac58cd60e01b1480611a2d57506001600160e01b03198216635b5e139f60e01b145b806107d757506107d782612237565b6000908152600360205260409020546001600160a01b0316151590565b600081815260056020526040902080546001600160a01b0319166001600160a01b0384169081179091558190611a8e82610f3f565b6001600160a01b03167f8c5be1e5ebec7d5bd14f71427d1e84f3dd0314c0f7b2291e5b200ac8c7c3b92560405160405180910390a45050565b5490565b60006118558284613a71565b80546001019055565b60006118558284613a9d565b60006118558284613a89565b611075601160009054906101000a90046001600160a01b0316611bab47737a250d5630b4cf539739df2c5dacb4c659f2488d6001600160a01b031663ad5c46486040518163ffffffff1660e01b815260040160206040518083038186803b158015611b6257600080fd5b505afa158015611b76573d6000803e3d6000fd5b505050506040513d601f19601f82011682018060405250810190611b9a9190612d9c565b6011546001600160a01b0316612250565b612458565b60007f00000000000000000000000000000000000000000000000000000000000000006001600160a01b0316634000aea07f000000000000000000000000000000000000000000000000000000000000000084866000604051602001611c179291906131d7565b6040516020818303038152906040526040518463ffffffff1660e01b8152600401611c4493929190613298565b602060405180830381600087803b158015611c5e57600080fd5b505af1158015611c72573d6000803e3d6000fd5b505050506040513d601f19601f82011682018060405250810190611c969190612fac565b506000611cb88460003060008089815260200190815260200160002054612650565b600085815260208190526040902054909150611cd5906001613a71565b600085815260208190526040902055611cee848261268a565b949350505050565b6000611d0182611a3c565b611d1d5760405162461bcd60e51b81526004016107a4906135d1565b6000611d2883610f3f565b9050806001600160a01b0316846001600160a01b03161480611d635750836001600160a01b0316611d588461087b565b6001600160a01b0316145b80611cee5750611cee8185611953565b826001600160a01b0316611d8682610f3f565b6001600160a01b031614611dac5760405162461bcd60e51b81526004016107a4906137c3565b6001600160a01b038216611dd25760405162461bcd60e51b81526004016107a49061350b565b611ddd8383836126bd565b611de8600082611a59565b6001600160a01b0383166000908152600460205260408120805460019290611e11908490613abc565b90915550506001600160a01b0382166000908152600460205260408120805460019290611e3f908490613a71565b909155505060008181526003602052604080822080546001600160a01b0319166001600160a01b0386811691821790925591518493918716917fddf252ad1be2c89b69c2b068fc378daa952ba7f163c4a11628f55a4df523b3ef91a4505050565b6060601080546107f890613aff565b600b80546001600160a01b038381166001600160a01b0319831681179093556040519116919082907f8be0079c531659141344cd1fd0a4f28419497f9722a3daafe3b4186f6b6457e090600090a35050565b611491828260405180602001604052806000815250612746565b60006118558284613abc565b6000611f3d6101f4611f37610cd9565b90611f1b565b611f479083613b55565b90506040518060800160405280828152602001611f6f6101f484611acb90919063ffffffff16565b8152602001611f8083610190611acb565b8152602001611f918361012c611acb565b9052611fa190601a906004612cb0565b50604080516080810190915281815260208101611fc0836101f4611acb565b8152602001611fd183610190611acb565b8152602001611fe28361012c611acb565b9052611ff290601b906004612cb0565b507f11609bf0dfcab1cd8696cdc747ee705ba9c458e0b7e701b1ebd4e1dfb6b5fb24601a604051612023919061330c565b60405180910390a1505050565b816001600160a01b0316836001600160a01b031614156120625760405162461bcd60e51b81526004016107a49061354f565b6001600160a01b0383811660008181526006602090815260408083209487168084529490915290819020805460ff1916851515179055517f17307eab39ab6107e8899845ad3d59bd9653f200f220920489ca2b5937696c31906120c6908590613347565b60405180910390a3505050565b6120de848484611d73565b6120ea84848484612779565b6116035760405162461bcd60e51b81526004016107a490613405565b6000826121138584612891565b14949350505050565b60608161214157506040805180820190915260018152600360fc1b60208201526107da565b8160005b811561216b578061215581613b3a565b91506121649050600a83613a89565b9150612145565b60008167ffffffffffffffff81111561219457634e487b7160e01b600052604160045260246000fd5b6040519080825280601f01601f1916602001820160405280156121be576020820181803683370190505b5090505b8415611cee576121d3600183613abc565b91506121e0600a86613b55565b6121eb906030613a71565b60f81b81838151811061220e57634e487b7160e01b600052603260045260246000fd5b60200101906001600160f81b031916908160001a905350612230600a86613a89565b94506121c2565b6001600160e01b031981166301ffc9a760e01b14919050565b60405163e6a4390560e01b81526000908190735c69bee701ef814a2b6a3edd4b1652cb9cc5aa6f9063e6a439059061228e9087908790600401613228565b60206040518083038186803b1580156122a657600080fd5b505afa1580156122ba573d6000803e3d6000fd5b505050506040513d601f19601f820116820180604052508101906122de9190612d9c565b9050600080826001600160a01b0316630902f1ac6040518163ffffffff1660e01b815260040160606040518083038186803b15801561231c57600080fd5b505afa158015612330573d6000803e3d6000fd5b505050506040513d601f19601f820116820180604052508101906123549190613058565b506001600160701b031691506001600160701b031691506000836001600160a01b0316630dfe16816040518163ffffffff1660e01b815260040160206040518083038186803b1580156123a657600080fd5b505afa1580156123ba573d6000803e3d6000fd5b505050506040513d601f19601f820116820180604052508101906123de9190612d9c565b9050600080886001600160a01b0316836001600160a01b031614612403578385612406565b84845b909250905060006124198b6103e5611ae0565b905060006124278284611ae0565b9050600061243b83611688876103e8611ae0565b90506124478282611aec565b9d9c50505050505050505050505050565b60408051600280825260608201835247926000929190602083019080368337019050509050737a250d5630b4cf539739df2c5dacb4c659f2488d6001600160a01b031663ad5c46486040518163ffffffff1660e01b815260040160206040518083038186803b1580156124ca57600080fd5b505afa1580156124de573d6000803e3d6000fd5b505050506040513d601f19601f820116820180604052508101906125029190612d9c565b8160008151811061252357634e487b7160e01b600052603260045260246000fd5b60200260200101906001600160a01b031690816001600160a01b031681525050838160018151811061256557634e487b7160e01b600052603260045260246000fd5b6001600160a01b0390921660209283029190910190910152737a250d5630b4cf539739df2c5dacb4c659f2488d637ff36ab5838584306125a7426102bc613a71565b6040518663ffffffff1660e01b81526004016125c694939291906139de565b6000604051808303818588803b1580156125df57600080fd5b505af11580156125f3573d6000803e3d6000fd5b50505050506040513d6000823e601f3d908101601f1916820160405261261c9190810190612f05565b6001825161262a9190613abc565b8151811061264857634e487b7160e01b600052603260045260246000fd5b505050505050565b600084848484604051602001612669949392919061335b565b60408051601f19818403018152919052805160209091012095945050505050565b6000828260405160200161269f9291906131d7565b60405160208183030381529060405280519060200120905092915050565b6126c8838383610951565b6001600160a01b0383166126e4576126df81612949565b612707565b816001600160a01b0316836001600160a01b03161461270757612707838261298d565b6001600160a01b0382166127235761271e81612a2a565b610951565b826001600160a01b0316826001600160a01b031614610951576109518282612b03565b6127508383612b47565b61275d6000848484612779565b6109515760405162461bcd60e51b81526004016107a490613405565b600061278d846001600160a01b0316612c26565b1561288957836001600160a01b031663150b7a026127a96119f8565b8786866040518563ffffffff1660e01b81526004016127cb9493929190613242565b602060405180830381600087803b1580156127e557600080fd5b505af1925050508015612815575060408051601f3d908101601f191682019092526128129181019061301d565b60015b61286f573d808015612843576040519150601f19603f3d011682016040523d82523d6000602084013e612848565b606091505b5080516128675760405162461bcd60e51b81526004016107a490613405565b805181602001fd5b6001600160e01b031916630a85bd0160e11b149050611cee565b506001611cee565b600081815b84518110156129415760008582815181106128c157634e487b7160e01b600052603260045260246000fd5b602002602001015190508083116129025782816040516020016128e59291906131d7565b60405160208183030381529060405280519060200120925061292e565b80836040516020016129159291906131d7565b6040516020818303038152906040528051906020012092505b508061293981613b3a565b915050612896565b509392505050565b600980546000838152600a60205260408120829055600182018355919091527f6e1540171b6c0c960b71a7020d9f60077f6af931a8bbf590da0223dacf75c7af0155565b6000600161299a84610fe8565b6129a49190613abc565b6000838152600860205260409020549091508082146129f7576001600160a01b03841660009081526007602090815260408083208584528252808320548484528184208190558352600890915290208190555b5060009182526008602090815260408084208490556001600160a01b039094168352600781528383209183525290812055565b600954600090612a3c90600190613abc565b6000838152600a602052604081205460098054939450909284908110612a7257634e487b7160e01b600052603260045260246000fd5b906000526020600020015490508060098381548110612aa157634e487b7160e01b600052603260045260246000fd5b6000918252602080832090910192909255828152600a90915260408082208490558582528120556009805480612ae757634e487b7160e01b600052603160045260246000fd5b6001900381819060005260206000200160009055905550505050565b6000612b0e83610fe8565b6001600160a01b039093166000908152600760209081526040808320868452825280832085905593825260089052919091209190915550565b6001600160a01b038216612b6d5760405162461bcd60e51b81526004016107a49061370d565b612b7681611a3c565b15612b935760405162461bcd60e51b81526004016107a49061349d565b612b9f600083836126bd565b6001600160a01b0382166000908152600460205260408120805460019290612bc8908490613a71565b909155505060008181526003602052604080822080546001600160a01b0319166001600160a01b03861690811790915590518392907fddf252ad1be2c89b69c2b068fc378daa952ba7f163c4a11628f55a4df523b3ef908290a45050565b3b151590565b828054612c3890613aff565b90600052602060002090601f016020900481019282612c5a5760008555612ca0565b82601f10612c7357805160ff1916838001178555612ca0565b82800160010185558215612ca0579182015b82811115612ca0578251825591602001919060010190612c85565b50612cac929150612cea565b5090565b828054828255906000526020600020908101928215612ca05791602002820182811115612ca0578251825591602001919060010190612c85565b5b80821115612cac5760008155600101612ceb565b600067ffffffffffffffff831115612d1957612d19613b95565b612d2c601f8401601f1916602001613a47565b9050828152838383011115612d4057600080fd5b828260208301376000602084830101529392505050565b80516001600160701b03811681146107da57600080fd5b803561ffff811681146107da57600080fd5b600060208284031215612d91578081fd5b813561185581613bab565b600060208284031215612dad578081fd5b815161185581613bab565b60008060408385031215612dca578081fd5b8235612dd581613bab565b91506020830135612de581613bab565b809150509250929050565b600080600060608486031215612e04578081fd5b8335612e0f81613bab565b92506020840135612e1f81613bab565b929592945050506040919091013590565b60008060008060808587031215612e45578081fd5b8435612e5081613bab565b93506020850135612e6081613bab565b925060408501359150606085013567ffffffffffffffff811115612e82578182fd5b8501601f81018713612e92578182fd5b612ea187823560208401612cff565b91505092959194509250565b60008060408385031215612ebf578182fd5b8235612eca81613bab565b91506020830135612de581613bc0565b60008060408385031215612eec578182fd5b8235612ef781613bab565b946020939093013593505050565b60006020808385031215612f17578182fd5b825167ffffffffffffffff80821115612f2e578384fd5b818501915085601f830112612f41578384fd5b815181811115612f5357612f53613b95565b8381029150612f63848301613a47565b8181528481019084860184860187018a1015612f7d578788fd5b8795505b83861015612f9f578051835260019590950194918601918601612f81565b5098975050505050505050565b600060208284031215612fbd578081fd5b815161185581613bc0565b600060208284031215612fd9578081fd5b5035919050565b60008060408385031215612ff2578182fd5b50508035926020909101359150565b600060208284031215613012578081fd5b813561185581613bce565b60006020828403121561302e578081fd5b815161185581613bce565b60006020828403121561304a578081fd5b813560038110611855578182fd5b60008060006060848603121561306c578081fd5b61307584612d57565b925061308360208501612d57565b9150604084015163ffffffff8116811461309b578182fd5b809150509250925092565b600080600080608085870312156130bb578182fd5b6130c485612d6e565b93506130d260208601612d6e565b925060408501356130e281613bab565b9150606085013567ffffffffffffffff811115612e82578182fd5b60006020828403121561310e578081fd5b5051919050565b600080600060408486031215613129578081fd5b83359250602084013567ffffffffffffffff80821115613147578283fd5b818601915086601f83011261315a578283fd5b813581811115613168578384fd5b876020808302850101111561317b578384fd5b6020830194508093505050509250925092565b600081518084526131a6816020860160208601613ad3565b601f01601f19169290920160200192915050565b60609190911b6bffffffffffffffffffffffff1916815260140190565b918252602082015260400190565b600083516131f7818460208801613ad3565b83519083019061320b818360208801613ad3565b01949350505050565b6001600160a01b0391909116815260200190565b6001600160a01b0392831681529116602082015260400190565b6001600160a01b03858116825284166020820152604081018390526080606082018190526000906132759083018461318e565b9695505050505050565b6001600160a01b03929092168252602082015260400190565b600060018060a01b0385168252836020830152606060408301526132bf606083018461318e565b95945050505050565b6020808252825182820181905260009190848201906040850190845b81811015613300578351835292840192918401916001016132e4565b50909695505050505050565b6020808252825482820181905260008481528281209092916040850190845b818110156133005783548352600193840193928501920161332b565b901515815260200190565b90815260200190565b93845260208401929092526001600160a01b03166040830152606082015260800190565b60208101600383106133a157634e487b7160e01b600052602160045260246000fd5b91905290565b600060208252611855602083018461318e565b6020808252602b908201527f455243373231456e756d657261626c653a206f776e657220696e646578206f7560408201526a74206f6620626f756e647360a81b606082015260800190565b60208082526032908201527f4552433732313a207472616e7366657220746f206e6f6e20455243373231526560408201527131b2b4bb32b91034b6b83632b6b2b73a32b960711b606082015260800190565b60208082526026908201527f4f776e61626c653a206e6577206f776e657220697320746865207a65726f206160408201526564647265737360d01b606082015260800190565b6020808252601c908201527f4552433732313a20746f6b656e20616c7265616479206d696e74656400000000604082015260600190565b60208082526017908201527f596f75206861766520616c7265616479206d696e746564000000000000000000604082015260600190565b60208082526024908201527f4552433732313a207472616e7366657220746f20746865207a65726f206164646040820152637265737360e01b606082015260800190565b60208082526019908201527f4552433732313a20617070726f766520746f2063616c6c657200000000000000604082015260600190565b6020808252602b908201527f4e6f7420656e6f756768204c494e4b202d2066696c6c20636f6e74726163742060408201526a1dda5d1a0819985d58d95d60aa1b606082015260800190565b6020808252602c908201527f4552433732313a206f70657261746f7220717565727920666f72206e6f6e657860408201526b34b9ba32b73a103a37b5b2b760a11b606082015260800190565b60208082526038908201527f4552433732313a20617070726f76652063616c6c6572206973206e6f74206f7760408201527f6e6572206e6f7220617070726f76656420666f7220616c6c0000000000000000606082015260800190565b6020808252602a908201527f4552433732313a2062616c616e636520717565727920666f7220746865207a65604082015269726f206164647265737360b01b606082015260800190565b60208082526029908201527f4552433732313a206f776e657220717565727920666f72206e6f6e657869737460408201526832b73a103a37b5b2b760b91b606082015260800190565b6020808252818101527f4552433732313a206d696e7420746f20746865207a65726f2061646472657373604082015260600190565b6020808252602c908201527f4552433732313a20617070726f76656420717565727920666f72206e6f6e657860408201526b34b9ba32b73a103a37b5b2b760a11b606082015260800190565b6020808252818101527f4f776e61626c653a2063616c6c6572206973206e6f7420746865206f776e6572604082015260600190565b60208082526029908201527f4552433732313a207472616e73666572206f6620746f6b656e2074686174206960408201526839903737ba1037bbb760b91b606082015260800190565b6020808252602f908201527f4552433732314d657461646174613a2055524920717565727920666f72206e6f60408201526e3732bc34b9ba32b73a103a37b5b2b760891b606082015260800190565b6020808252601f908201527f4f6e6c7920565246436f6f7264696e61746f722063616e2066756c66696c6c00604082015260600190565b6020808252601b908201527f596f75206172656e2774206f6e207468652077686974656c6973740000000000604082015260600190565b60208082526021908201527f4552433732313a20617070726f76616c20746f2063757272656e74206f776e656040820152603960f91b606082015260800190565b60208082526031908201527f4552433732313a207472616e736665722063616c6c6572206973206e6f74206f6040820152701ddb995c881b9bdc88185c1c1c9bdd9959607a1b606082015260800190565b6020808252602c908201527f455243373231456e756d657261626c653a20676c6f62616c20696e646578206f60408201526b7574206f6620626f756e647360a01b606082015260800190565b6020808252601f908201527f5265656e7472616e637947756172643a207265656e7472616e742063616c6c00604082015260600190565b600060808201868352602060808185015281875180845260a0860191508289019350845b81811015613a275784516001600160a01b031683529383019391830191600101613a02565b50506001600160a01b039690961660408501525050506060015292915050565b60405181810167ffffffffffffffff81118282101715613a6957613a69613b95565b604052919050565b60008219821115613a8457613a84613b69565b500190565b600082613a9857613a98613b7f565b500490565b6000816000190483118215151615613ab757613ab7613b69565b500290565b600082821015613ace57613ace613b69565b500390565b60005b83811015613aee578181015183820152602001613ad6565b838111156116035750506000910152565b600281046001821680613b1357607f821691505b60208210811415613b3457634e487b7160e01b600052602260045260246000fd5b50919050565b6000600019821415613b4e57613b4e613b69565b5060010190565b600082613b6457613b64613b7f565b500690565b634e487b7160e01b600052601160045260246000fd5b634e487b7160e01b600052601260045260246000fd5b634e487b7160e01b600052604160045260246000fd5b6001600160a01b0381168114610fe557600080fd5b8015158114610fe557600080fd5b6001600160e01b031981168114610fe557600080fdfea2646970667358221220ae6107f8c98745258f7a9733038f125b9619bbe8d83b31ef9dc4d4356037489164736f6c63430008000033",
  "linkReferences": {},
  "deployedLinkReferences": {}
}