{
  "_format": "hh-sol-artifact-1",
  "contractName": "BabyDogeNFT",
  "sourceName": "contracts/BabyDogeNft.sol",
  "abi": [
    {
      "inputs": [
        {
          "internalType": "string",
          "name": "name",
          "type": "string"
        },
        {
          "internalType": "string",
          "name": "symbol",
          "type": "string"
        },
        {
          "internalType": "string",
          "name": "baseTokenURI",
          "type": "string"
        },
        {
          "internalType": "uint256",
          "name": "maxNftSupply",
          "type": "uint256"
        }
      ],
      "stateMutability": "nonpayable",
      "type": "constructor"
    },
    {
      "anonymous": false,
      "inputs": [
        {
          "indexed": true,
          "internalType": "address",
          "name": "owner",
          "type": "address"
        },
        {
          "indexed": true,
          "internalType": "address",
          "name": "approved",
          "type": "address"
        },
        {
          "indexed": true,
          "internalType": "uint256",
          "name": "tokenId",
          "type": "uint256"
        }
      ],
      "name": "Approval",
      "type": "event"
    },
    {
      "anonymous": false,
      "inputs": [
        {
          "indexed": true,
          "internalType": "address",
          "name": "owner",
          "type": "address"
        },
        {
          "indexed": true,
          "internalType": "address",
          "name": "operator",
          "type": "address"
        },
        {
          "indexed": false,
          "internalType": "bool",
          "name": "approved",
          "type": "bool"
        }
      ],
      "name": "ApprovalForAll",
      "type": "event"
    },
    {
      "anonymous": false,
      "inputs": [
        {
          "indexed": false,
          "internalType": "uint256",
          "name": "_id",
          "type": "uint256"
        },
        {
          "indexed": false,
          "internalType": "uint256",
          "name": "_prize",
          "type": "uint256"
        }
      ],
      "name": "LottoClaimed",
      "type": "event"
    },
    {
      "anonymous": false,
      "inputs": [
        {
          "indexed": true,
          "internalType": "address",
          "name": "previousOwner",
          "type": "address"
        },
        {
          "indexed": true,
          "internalType": "address",
          "name": "newOwner",
          "type": "address"
        }
      ],
      "name": "OwnershipTransferred",
      "type": "event"
    },
    {
      "anonymous": false,
      "inputs": [
        {
          "indexed": true,
          "internalType": "address",
          "name": "from",
          "type": "address"
        },
        {
          "indexed": true,
          "internalType": "address",
          "name": "to",
          "type": "address"
        },
        {
          "indexed": true,
          "internalType": "uint256",
          "name": "tokenId",
          "type": "uint256"
        }
      ],
      "name": "Transfer",
      "type": "event"
    },
    {
      "anonymous": false,
      "inputs": [
        {
          "indexed": false,
          "internalType": "uint256[]",
          "name": "_ids",
          "type": "uint256[]"
        }
      ],
      "name": "WinnersPicked",
      "type": "event"
    },
    {
      "inputs": [],
      "name": "REVEAL_TIMESTAMP",
      "outputs": [
        {
          "internalType": "uint256",
          "name": "",
          "type": "uint256"
        }
      ],
      "stateMutability": "view",
      "type": "function"
    },
    {
      "inputs": [
        {
          "internalType": "address",
          "name": "to",
          "type": "address"
        },
        {
          "internalType": "uint256",
          "name": "tokenId",
          "type": "uint256"
        }
      ],
      "name": "approve",
      "outputs": [],
      "stateMutability": "nonpayable",
      "type": "function"
    },
    {
      "inputs": [
        {
          "internalType": "address",
          "name": "owner",
          "type": "address"
        }
      ],
      "name": "balanceOf",
      "outputs": [
        {
          "internalType": "uint256",
          "name": "",
          "type": "uint256"
        }
      ],
      "stateMutability": "view",
      "type": "function"
    },
    {
      "inputs": [],
      "name": "baseURI",
      "outputs": [
        {
          "internalType": "string",
          "name": "",
          "type": "string"
        }
      ],
      "stateMutability": "view",
      "type": "function"
    },
    {
      "inputs": [
        {
          "internalType": "uint256",
          "name": "_id",
          "type": "uint256"
        }
      ],
      "name": "claimLotto",
      "outputs": [],
      "stateMutability": "nonpayable",
      "type": "function"
    },
    {
      "inputs": [],
      "name": "currentIteration",
      "outputs": [
        {
          "internalType": "uint256",
          "name": "_value",
          "type": "uint256"
        }
      ],
      "stateMutability": "view",
      "type": "function"
    },
    {
      "inputs": [],
      "name": "dogePrice",
      "outputs": [
        {
          "internalType": "uint256",
          "name": "",
          "type": "uint256"
        }
      ],
      "stateMutability": "view",
      "type": "function"
    },
    {
      "inputs": [],
      "name": "ethPayout",
      "outputs": [
        {
          "internalType": "bool",
          "name": "",
          "type": "bool"
        }
      ],
      "stateMutability": "view",
      "type": "function"
    },
    {
      "inputs": [],
      "name": "flipEthPayout",
      "outputs": [],
      "stateMutability": "nonpayable",
      "type": "function"
    },
    {
      "inputs": [
        {
          "internalType": "uint256",
          "name": "tokenId",
          "type": "uint256"
        }
      ],
      "name": "getApproved",
      "outputs": [
        {
          "internalType": "address",
          "name": "",
          "type": "address"
        }
      ],
      "stateMutability": "view",
      "type": "function"
    },
    {
      "inputs": [],
      "name": "getCurrentWinners",
      "outputs": [
        {
          "internalType": "uint256[]",
          "name": "",
          "type": "uint256[]"
        }
      ],
      "stateMutability": "view",
      "type": "function"
    },
    {
      "inputs": [],
      "name": "getSaleStatus",
      "outputs": [
        {
          "internalType": "enum BabyDogeNFT.SaleStatus",
          "name": "",
          "type": "uint8"
        }
      ],
      "stateMutability": "view",
      "type": "function"
    },
    {
      "inputs": [
        {
          "internalType": "address",
          "name": "owner",
          "type": "address"
        },
        {
          "internalType": "address",
          "name": "operator",
          "type": "address"
        }
      ],
      "name": "isApprovedForAll",
      "outputs": [
        {
          "internalType": "bool",
          "name": "",
          "type": "bool"
        }
      ],
      "stateMutability": "view",
      "type": "function"
    },
    {
      "inputs": [],
      "name": "merkleRoot",
      "outputs": [
        {
          "internalType": "bytes32",
          "name": "",
          "type": "bytes32"
        }
      ],
      "stateMutability": "view",
      "type": "function"
    },
    {
      "inputs": [
        {
          "internalType": "uint256",
          "name": "numberOfTokens",
          "type": "uint256"
        }
      ],
      "name": "mintDoge",
      "outputs": [],
      "stateMutability": "payable",
      "type": "function"
    },
    {
      "inputs": [
        {
          "internalType": "uint256",
          "name": "numberOfTokens",
          "type": "uint256"
        },
        {
          "internalType": "bytes32[]",
          "name": "_merkleProof",
          "type": "bytes32[]"
        }
      ],
      "name": "mintWhitelistDoge",
      "outputs": [],
      "stateMutability": "payable",
      "type": "function"
    },
    {
      "inputs": [],
      "name": "name",
      "outputs": [
        {
          "internalType": "string",
          "name": "",
          "type": "string"
        }
      ],
      "stateMutability": "view",
      "type": "function"
    },
    {
      "inputs": [],
      "name": "nextRewardNonce",
      "outputs": [
        {
          "internalType": "bytes32",
          "name": "requestId",
          "type": "bytes32"
        }
      ],
      "stateMutability": "nonpayable",
      "type": "function"
    },
    {
      "inputs": [],
      "name": "owner",
      "outputs": [
        {
          "internalType": "address",
          "name": "",
          "type": "address"
        }
      ],
      "stateMutability": "view",
      "type": "function"
    },
    {
      "inputs": [
        {
          "internalType": "uint256",
          "name": "tokenId",
          "type": "uint256"
        }
      ],
      "name": "ownerOf",
      "outputs": [
        {
          "internalType": "address",
          "name": "",
          "type": "address"
        }
      ],
      "stateMutability": "view",
      "type": "function"
    },
    {
      "inputs": [],
      "name": "prizePool",
      "outputs": [
        {
          "internalType": "uint256",
          "name": "",
          "type": "uint256"
        }
      ],
      "stateMutability": "view",
      "type": "function"
    },
    {
      "inputs": [
        {
          "internalType": "bytes32",
          "name": "requestId",
          "type": "bytes32"
        },
        {
          "internalType": "uint256",
          "name": "randomness",
          "type": "uint256"
        }
      ],
      "name": "rawFulfillRandomness",
      "outputs": [],
      "stateMutability": "nonpayable",
      "type": "function"
    },
    {
      "inputs": [],
      "name": "renounceOwnership",
      "outputs": [],
      "stateMutability": "nonpayable",
      "type": "function"
    },
    {
      "inputs": [
        {
          "internalType": "uint256",
          "name": "_ammount",
          "type": "uint256"
        }
      ],
      "name": "reserveDoges",
      "outputs": [],
      "stateMutability": "nonpayable",
      "type": "function"
    },
    {
      "inputs": [
        {
          "internalType": "address",
          "name": "from",
          "type": "address"
        },
        {
          "internalType": "address",
          "name": "to",
          "type": "address"
        },
        {
          "internalType": "uint256",
          "name": "tokenId",
          "type": "uint256"
        }
      ],
      "name": "safeTransferFrom",
      "outputs": [],
      "stateMutability": "nonpayable",
      "type": "function"
    },
    {
      "inputs": [
        {
          "internalType": "address",
          "name": "from",
          "type": "address"
        },
        {
          "internalType": "address",
          "name": "to",
          "type": "address"
        },
        {
          "internalType": "uint256",
          "name": "tokenId",
          "type": "uint256"
        },
        {
          "internalType": "bytes",
          "name": "_data",
          "type": "bytes"
        }
      ],
      "name": "safeTransferFrom",
      "outputs": [],
      "stateMutability": "nonpayable",
      "type": "function"
    },
    {
      "inputs": [],
      "name": "saleIsActive",
      "outputs": [
        {
          "internalType": "bool",
          "name": "",
          "type": "bool"
        }
      ],
      "stateMutability": "view",
      "type": "function"
    },
    {
      "inputs": [],
      "name": "saleStatus",
      "outputs": [
        {
          "internalType": "enum BabyDogeNFT.SaleStatus",
          "name": "",
          "type": "uint8"
        }
      ],
      "stateMutability": "view",
      "type": "function"
    },
    {
      "inputs": [
        {
          "internalType": "address",
          "name": "operator",
          "type": "address"
        },
        {
          "internalType": "bool",
          "name": "approved",
          "type": "bool"
        }
      ],
      "name": "setApprovalForAll",
      "outputs": [],
      "stateMutability": "nonpayable",
      "type": "function"
    },
    {
      "inputs": [
        {
          "internalType": "uint256",
          "name": "_maxDogePurchase",
          "type": "uint256"
        }
      ],
      "name": "setMaxMint",
      "outputs": [],
      "stateMutability": "nonpayable",
      "type": "function"
    },
    {
      "inputs": [
        {
          "internalType": "bytes32",
          "name": "_merkleRoot",
          "type": "bytes32"
        }
      ],
      "name": "setMerkleRoot",
      "outputs": [],
      "stateMutability": "nonpayable",
      "type": "function"
    },
    {
      "inputs": [
        {
          "internalType": "uint256",
          "name": "revealTimeStamp",
          "type": "uint256"
        }
      ],
      "name": "setRevealTimestamp",
      "outputs": [],
      "stateMutability": "nonpayable",
      "type": "function"
    },
    {
      "inputs": [
        {
          "internalType": "enum BabyDogeNFT.SaleStatus",
          "name": "_saleStatus",
          "type": "uint8"
        }
      ],
      "name": "setSaleStatus",
      "outputs": [],
      "stateMutability": "nonpayable",
      "type": "function"
    },
    {
      "inputs": [
        {
          "internalType": "uint16",
          "name": "_devTeamPercent",
          "type": "uint16"
        },
        {
          "internalType": "uint16",
          "name": "_lotoPercent",
          "type": "uint16"
        },
        {
          "internalType": "address",
          "name": "_babyDogeToken",
          "type": "address"
        },
        {
          "internalType": "string",
          "name": "_baseURILink",
          "type": "string"
        }
      ],
      "name": "setSettings",
      "outputs": [],
      "stateMutability": "nonpayable",
      "type": "function"
    },
    {
      "inputs": [
        {
          "internalType": "bytes4",
          "name": "interfaceId",
          "type": "bytes4"
        }
      ],
      "name": "supportsInterface",
      "outputs": [
        {
          "internalType": "bool",
          "name": "",
          "type": "bool"
        }
      ],
      "stateMutability": "view",
      "type": "function"
    },
    {
      "inputs": [],
      "name": "symbol",
      "outputs": [
        {
          "internalType": "string",
          "name": "",
          "type": "string"
        }
      ],
      "stateMutability": "view",
      "type": "function"
    },
    {
      "inputs": [
        {
          "internalType": "uint256",
          "name": "index",
          "type": "uint256"
        }
      ],
      "name": "tokenByIndex",
      "outputs": [
        {
          "internalType": "uint256",
          "name": "",
          "type": "uint256"
        }
      ],
      "stateMutability": "view",
      "type": "function"
    },
    {
      "inputs": [
        {
          "internalType": "address",
          "name": "owner",
          "type": "address"
        },
        {
          "internalType": "uint256",
          "name": "index",
          "type": "uint256"
        }
      ],
      "name": "tokenOfOwnerByIndex",
      "outputs": [
        {
          "internalType": "uint256",
          "name": "",
          "type": "uint256"
        }
      ],
      "stateMutability": "view",
      "type": "function"
    },
    {
      "inputs": [
        {
          "internalType": "uint256",
          "name": "tokenId",
          "type": "uint256"
        }
      ],
      "name": "tokenURI",
      "outputs": [
        {
          "internalType": "string",
          "name": "",
          "type": "string"
        }
      ],
      "stateMutability": "view",
      "type": "function"
    },
    {
      "inputs": [],
      "name": "totalSupply",
      "outputs": [
        {
          "internalType": "uint256",
          "name": "",
          "type": "uint256"
        }
      ],
      "stateMutability": "view",
      "type": "function"
    },
    {
      "inputs": [
        {
          "internalType": "address",
          "name": "from",
          "type": "address"
        },
        {
          "internalType": "address",
          "name": "to",
          "type": "address"
        },
        {
          "internalType": "uint256",
          "name": "tokenId",
          "type": "uint256"
        }
      ],
      "name": "transferFrom",
      "outputs": [],
      "stateMutability": "nonpayable",
      "type": "function"
    },
    {
      "inputs": [
        {
          "internalType": "address",
          "name": "newOwner",
          "type": "address"
        }
      ],
      "name": "transferOwnership",
      "outputs": [],
      "stateMutability": "nonpayable",
      "type": "function"
    },
    {
      "inputs": [
        {
          "internalType": "uint256",
          "name": "",
          "type": "uint256"
        }
      ],
      "name": "winners",
      "outputs": [
        {
          "internalType": "uint256",
          "name": "",
          "type": "uint256"
        }
      ],
      "stateMutability": "view",
      "type": "function"
    },
    {
      "inputs": [],
      "name": "withdrawAndLock",
      "outputs": [],
      "stateMutability": "nonpayable",
      "type": "function"
    },
    {
      "stateMutability": "payable",
      "type": "receive"
    }
  ],
  "bytecode": "0x60c060405260146015556017805462ffffff1916620100001790553480156200002757600080fd5b50604051620041a5380380620041a58339810160408190526200004a91620002dc565b7fb3dccb4cf7a26f6cf6b120cf5a73875b7bbc655b00000000000000000000000060a0527f01be23585060835e02b77ef475b0cc51aa1e0709000000000000000000000000608052835184908490620000ab9060019060208501906200018b565b508051620000c19060029060208401906200018b565b505050620000de620000d86200013560201b60201c565b62000139565b6001600c558151620000f89060109060208501906200018b565b5060165550507f2ed0feb3e7fd2022120aa84fab1945545a9f2ffc9076fd6156fa96eaff4c1311600f5550671bc16d674ec80000601855620003c4565b3390565b600b80546001600160a01b038381166001600160a01b0319831681179093556040519116919082907f8be0079c531659141344cd1fd0a4f28419497f9722a3daafe3b4186f6b6457e090600090a35050565b828054620001999062000371565b90600052602060002090601f016020900481019282620001bd576000855562000208565b82601f10620001d857805160ff191683800117855562000208565b8280016001018555821562000208579182015b8281111562000208578251825591602001919060010190620001eb565b50620002169291506200021a565b5090565b5b808211156200021657600081556001016200021b565b600082601f83011262000242578081fd5b81516001600160401b03808211156200025f576200025f620003ae565b6040516020601f8401601f1916820181018381118382101715620002875762000287620003ae565b60405283825285840181018710156200029e578485fd5b8492505b83831015620002c15785830181015182840182015291820191620002a2565b83831115620002d257848185840101525b5095945050505050565b60008060008060808587031215620002f2578384fd5b84516001600160401b038082111562000309578586fd5b620003178883890162000231565b955060208701519150808211156200032d578485fd5b6200033b8883890162000231565b9450604087015191508082111562000351578384fd5b50620003608782880162000231565b606096909601519497939650505050565b6002810460018216806200038657607f821691505b60208210811415620003a857634e487b7160e01b600052602260045260246000fd5b50919050565b634e487b7160e01b600052604160045260246000fd5b60805160601c60a05160601c613da7620003fe6000396000818161142e0152611c6f0152600081816109db0152611c400152613da76000f3fe60806040526004361061026b5760003560e01c8063715018a611610144578063a22cb465116100b6578063c87b56dd1161007a578063c87b56dd146106c8578063db57e745146106e8578063e985e9c5146106fb578063eb8d24441461071b578063f2fde38b14610730578063f9020e331461075057610272565b8063a22cb46514610633578063a2fb117514610653578063a3bc933614610673578063b88d4fde14610695578063bcfa950e146106b557610272565b806388c6abf81161010857806388c6abf81461059d5780638c3c4b34146105b25780638da5cb5b146105d457806394985ddd146105e957806395d89b41146106095780639d5719b11461061e57610272565b8063715018a614610513578063719ce73e1461052857806379d49bb01461053d5780637cb647591461055d578063851423391461057d57610272565b80632eb4a7ab116101dd578063513d29ce116101a1578063513d29ce14610469578063547520fe146104895780636352211e146104a95780636c0360eb146104c95780636c62ef14146104de57806370a08231146104f357610272565b80632eb4a7ab146103d45780632f745c59146103e957806342842e0e146104095780634891ad88146104295780634f6ccce71461044957610272565b8063095ea7b31161022f578063095ea7b3146103405780630a213e0414610360578063107fb6421461037557806318160ddd1461038a57806318e20a381461039f57806323b872dd146103b457610272565b8063018a2c371461027757806301ffc9a71461029957806306095f59146102cf57806306fdde03146102f1578063081812fc1461031357610272565b3661027257005b600080fd5b34801561028357600080fd5b50610297610292366004613054565b610765565b005b3480156102a557600080fd5b506102b96102b436600461308d565b6107b2565b6040516102c691906133d3565b60405180910390f35b3480156102db57600080fd5b506102e46107df565b6040516102c691906133de565b3480156102fd57600080fd5b506103066107e9565b6040516102c69190613433565b34801561031f57600080fd5b5061033361032e366004613054565b61087b565b6040516102c691906132a0565b34801561034c57600080fd5b5061029761035b366004612f66565b6108be565b34801561036c57600080fd5b506102b9610956565b34801561038157600080fd5b506102e4610965565b34801561039657600080fd5b506102e4610ce0565b3480156103ab57600080fd5b506102e4610ce6565b3480156103c057600080fd5b506102976103cf366004612e7c565b610cec565b3480156103e057600080fd5b506102e4610d24565b3480156103f557600080fd5b506102e4610404366004612f66565b610d2a565b34801561041557600080fd5b50610297610424366004612e7c565b610d7c565b34801561043557600080fd5b506102976104443660046130c5565b610d97565b34801561045557600080fd5b506102e4610464366004613054565b610e0b565b34801561047557600080fd5b50610297610484366004613132565b610e66565b34801561049557600080fd5b506102976104a4366004613054565b610f02565b3480156104b557600080fd5b506103336104c4366004613054565b610f46565b3480156104d557600080fd5b50610306610f7b565b3480156104ea57600080fd5b50610297610f8a565b3480156104ff57600080fd5b506102e461050e366004612e0c565b610ff1565b34801561051f57600080fd5b50610297611035565b34801561053457600080fd5b506102e4611080565b34801561054957600080fd5b50610297610558366004613054565b611086565b34801561056957600080fd5b50610297610578366004613054565b61110c565b34801561058957600080fd5b50610297610598366004613054565b611150565b3480156105a957600080fd5b506102e4611405565b3480156105be57600080fd5b506105c761140b565b6040516102c6919061340b565b3480156105e057600080fd5b50610333611414565b3480156105f557600080fd5b5061029761060436600461306c565b611423565b34801561061557600080fd5b50610306611479565b34801561062a57600080fd5b50610297611488565b34801561063f57600080fd5b5061029761064e366004612f39565b61152b565b34801561065f57600080fd5b506102e461066e366004613054565b61153d565b34801561067f57600080fd5b5061068861155e565b6040516102c69190613354565b3480156106a157600080fd5b506102976106b0366004612ebc565b6115b5565b6102976106c33660046131a1565b6115f4565b3480156106d457600080fd5b506103066106e3366004613054565b611810565b6102976106f6366004613054565b611893565b34801561070757600080fd5b506102b9610716366004612e44565b6119d6565b34801561072757600080fd5b506102b9611a04565b34801561073c57600080fd5b5061029761074b366004612e0c565b611a0d565b34801561075c57600080fd5b506105c7611a7b565b61076d611a84565b6001600160a01b031661077e611414565b6001600160a01b0316146107ad5760405162461bcd60e51b81526004016107a490613925565b60405180910390fd5b601255565b60006001600160e01b0319821663780e9d6360e01b14806107d757506107d782611a88565b90505b919050565b655af3107a400081565b6060600180546107f890613c8c565b80601f016020809104026020016040519081016040528092919081815260200182805461082490613c8c565b80156108715780601f1061084657610100808354040283529160200191610871565b820191906000526020600020905b81548152906001019060200180831161085457829003601f168201915b5050505050905090565b600061088682611ac8565b6108a25760405162461bcd60e51b81526004016107a4906138d9565b506000908152600560205260409020546001600160a01b031690565b60006108c982610f46565b9050806001600160a01b0316836001600160a01b031614156108fd5760405162461bcd60e51b81526004016107a490613a29565b806001600160a01b031661090f611a84565b6001600160a01b0316148061092b575061092b81610716611a84565b6109475760405162461bcd60e51b81526004016107a490613746565b6109518383611ae5565b505050565b60175462010000900460ff1681565b60175460009060ff61010090910416151560011461098257600080fd5b60006109b66224ea00601e60006109996020611b53565b815260200190815260200160002054611b5790919063ffffffff16565b42116109c157600080fd5b6018546040516370a0823160e01b81526001600160a01b037f000000000000000000000000000000000000000000000000000000000000000016906370a0823190610a109030906004016132a0565b60206040518083038186803b158015610a2857600080fd5b505afa158015610a3c573d6000803e3d6000fd5b505050506040513d601f19601f82011682018060405250810190610a609190613189565b1015610a7e5760405162461bcd60e51b81526004016107a490613622565b610a886020611b63565b42601e6000610a976020611b53565b8152602081019190915260400160002055610ab0610ce0565b601f6000610abe6020611b53565b8152602001908152602001600020819055506000601760029054906101000a900460ff1615610b755750600e544790610b0a9061271090610b0490849061ffff16611b6c565b90611b78565b9150610b14611414565b6001600160a01b03166108fc839081150290604051600060405180830381858888f19350505050158015610b4c573d6000803e3d6000fd5b50600e54610b6d9061271090610b0490849062010000900461ffff16611b6c565b601955610ccb565b610b7d611b84565b6011546040516370a0823160e01b81526001600160a01b03909116906370a0823190610bad9030906004016132a0565b60206040518083038186803b158015610bc557600080fd5b505afa158015610bd9573d6000803e3d6000fd5b505050506040513d601f19601f82011682018060405250810190610bfd9190613189565b600e54909150610c1a9061271090610b0490849061ffff16611b6c565b6011549092506001600160a01b031663a9059cbb610c36611414565b846040518363ffffffff1660e01b8152600401610c5492919061330b565b602060405180830381600087803b158015610c6e57600080fd5b505af1158015610c82573d6000803e3d6000fd5b505050506040513d601f19601f82011682018060405250810190610ca69190613038565b50600e54610cc79061271090610b0490849062010000900461ffff16611b6c565b6019555b610cd9600f54601854611c3c565b9250505090565b60095490565b60125481565b610cfd610cf7611a84565b82611d82565b610d195760405162461bcd60e51b81526004016107a490613a97565b610951838383611dff565b60215481565b6000610d3583610ff1565b8210610d535760405162461bcd60e51b81526004016107a49061348d565b506001600160a01b03919091166000908152600760209081526040808320938352929052205490565b610951838383604051806020016040528060008152506115b5565b610d9f611a84565b6001600160a01b0316610db0611414565b6001600160a01b031614610dd65760405162461bcd60e51b81526004016107a490613925565b601c805482919060ff19166001836002811115610e0357634e487b7160e01b600052602160045260246000fd5b021790555050565b6000610e15610ce0565b8210610e335760405162461bcd60e51b81526004016107a490613ae8565b60098281548110610e5457634e487b7160e01b600052603260045260246000fd5b90600052602060002001549050919050565b610e6e611a84565b6001600160a01b0316610e7f611414565b6001600160a01b031614610ea55760405162461bcd60e51b81526004016107a490613925565b600e805461ffff191661ffff8681169190911763ffff000019166201000091861691909102179055601180546001600160a01b0319166001600160a01b0384161790558051610efb906010906020840190612cb8565b5050505050565b610f0a611a84565b6001600160a01b0316610f1b611414565b6001600160a01b031614610f415760405162461bcd60e51b81526004016107a490613925565b601555565b6000818152600360205260408120546001600160a01b0316806107d75760405162461bcd60e51b81526004016107a4906137ed565b6060610f85611f2c565b905090565b610f92611a84565b6001600160a01b0316610fa3611414565b6001600160a01b031614610fc95760405162461bcd60e51b81526004016107a490613925565b6017805462ff0000198116620100009182900460ff1615909102179055610fee610965565b50565b60006001600160a01b0382166110195760405162461bcd60e51b81526004016107a4906137a3565b506001600160a01b031660009081526004602052604090205490565b61103d611a84565b6001600160a01b031661104e611414565b6001600160a01b0316146110745760405162461bcd60e51b81526004016107a490613925565b61107e6000611f3b565b565b60195481565b61108e611a84565b6001600160a01b031661109f611414565b6001600160a01b0316146110c55760405162461bcd60e51b81526004016107a490613925565b60006110cf610ce0565b905060005b82811015610951576110fa336110ea8385613bfe565b6110f5906001613bfe565b611f8d565b8061110481613cc7565b9150506110d4565b611114611a84565b6001600160a01b0316611125611414565b6001600160a01b03161461114b5760405162461bcd60e51b81526004016107a490613925565b602155565b6002600c5414156111735760405162461bcd60e51b81526004016107a490613b34565b6002600c553361118282610f46565b6001600160a01b03161461119557600080fd5b6000805b601b548110156113b55782601b82815481106111c557634e487b7160e01b600052603260045260246000fd5b906000526020600020015414156113a357601b546019546111e591611b78565b6019549092506111f59083611fa7565b601955805b601b5461120990600190613c49565b81101561128557601b61121d826001613bfe565b8154811061123b57634e487b7160e01b600052603260045260246000fd5b9060005260206000200154601b828154811061126757634e487b7160e01b600052603260045260246000fd5b6000918252602090912001558061127d81613cc7565b9150506111fa565b50601b8054806112a557634e487b7160e01b600052603160045260246000fd5b60019003818190600052602060002001600090559055601760029054906101000a900460ff1615611317576112d983610f46565b6001600160a01b03166108fc839081150290604051600060405180830381858888f19350505050158015611311573d6000803e3d6000fd5b506113a3565b6011546001600160a01b031663a9059cbb61133185610f46565b846040518363ffffffff1660e01b815260040161134f92919061330b565b602060405180830381600087803b15801561136957600080fd5b505af115801561137d573d6000803e3d6000fd5b505050506040513d601f19601f820116820180604052508101906113a19190613038565b505b806113ad81613cc7565b915050611199565b50600081116113c357600080fd5b7ff4338f56dc8b8e2b8c87ae4eb8008d2290a524a16c153183ef0b116ef4834d7d82826040516113f4929190613263565b60405180910390a150506001600c55565b60205481565b601c5460ff1690565b600b546001600160a01b031690565b336001600160a01b037f0000000000000000000000000000000000000000000000000000000000000000161461146b5760405162461bcd60e51b81526004016107a4906139f2565b6114758282611fb3565b5050565b6060600280546107f890613c8c565b611490611a84565b6001600160a01b03166114a1611414565b6001600160a01b0316146114c75760405162461bcd60e51b81526004016107a490613925565b601754610100900460ff16156114dc57600080fd5b6017805461ff0019166101001790556114f3611414565b6001600160a01b03166108fc479081150290604051600060405180830381858888f19350505050158015610fee573d6000803e3d6000fd5b611475611536611a84565b83836120bc565b601a818154811061154d57600080fd5b600091825260209091200154905081565b6060601a80548060200260200160405190810160405280929190818152602001828054801561087157602002820191906000526020600020905b815481526020019060010190808311611598575050505050905090565b6115c66115c0611a84565b83611d82565b6115e25760405162461bcd60e51b81526004016107a490613a97565b6115ee8484848461215f565b50505050565b6001601c5460ff16600281111561161b57634e487b7160e01b600052602160045260246000fd5b146116385760405162461bcd60e51b81526004016107a490613a6a565b3360009081526022602052604090205460ff16156116685760405162461bcd60e51b81526004016107a490613446565b60155483111561168a5760405162461bcd60e51b81526004016107a4906136f0565b60165461169f84611699610ce0565b90611b57565b11156116bd5760405162461bcd60e51b81526004016107a4906136b9565b346116ce655af3107a400085611b6c565b11156116ec5760405162461bcd60e51b81526004016107a49061371e565b6000336040516020016116ff9190613246565b604051602081830303815290604052805190602001209050611758838380806020026020016040519081016040528093929190818152602001838360200280828437600092019190915250506021549150849050612192565b6117745760405162461bcd60e51b81526004016107a4906138a2565b336000908152602260205260408120805460ff191660011790555b848110156117dc5760006117a1610ce0565b6117ac906001613bfe565b90506016546117b9610ce0565b10156117c9576117c93382611f8d565b50806117d481613cc7565b91505061178f565b5060135415801561180157506016546117f3610ce0565b148061180157506012544210155b156115ee574360135550505050565b606061181b82611ac8565b6118375760405162461bcd60e51b81526004016107a4906139a3565b6000611841611f2c565b90506000815111611861576040518060200160405280600081525061188c565b8061186b846121a8565b60405160200161187c929190613271565b6040516020818303038152906040525b9392505050565b6002601c5460ff1660028111156118ba57634e487b7160e01b600052602160045260246000fd5b146118d75760405162461bcd60e51b81526004016107a490613836565b6015548111156118f95760405162461bcd60e51b81526004016107a4906136f0565b60165461190882611699610ce0565b11156119265760405162461bcd60e51b81526004016107a4906136b9565b34611937655af3107a400083611b6c565b11156119555760405162461bcd60e51b81526004016107a49061371e565b60005b818110156119a557600061196a610ce0565b611975906001613bfe565b9050601654611982610ce0565b1015611992576119923382611f8d565b508061199d81613cc7565b915050611958565b506013541580156119ca57506016546119bc610ce0565b14806119ca57506012544210155b15610fee574360135550565b6001600160a01b03918216600090815260066020908152604080832093909416825291909152205460ff1690565b60175460ff1681565b611a15611a84565b6001600160a01b0316611a26611414565b6001600160a01b031614611a4c5760405162461bcd60e51b81526004016107a490613925565b6001600160a01b038116611a725760405162461bcd60e51b81526004016107a49061352a565b610fee81611f3b565b601c5460ff1681565b3390565b60006001600160e01b031982166380ac58cd60e01b1480611ab957506001600160e01b03198216635b5e139f60e01b145b806107d757506107d7826122c3565b6000908152600360205260409020546001600160a01b0316151590565b600081815260056020526040902080546001600160a01b0319166001600160a01b0384169081179091558190611b1a82610f46565b6001600160a01b03167f8c5be1e5ebec7d5bd14f71427d1e84f3dd0314c0f7b2291e5b200ac8c7c3b92560405160405180910390a45050565b5490565b600061188c8284613bfe565b80546001019055565b600061188c8284613c2a565b600061188c8284613c16565b61107e601160009054906101000a90046001600160a01b0316611c3747737a250d5630b4cf539739df2c5dacb4c659f2488d6001600160a01b031663ad5c46486040518163ffffffff1660e01b815260040160206040518083038186803b158015611bee57600080fd5b505afa158015611c02573d6000803e3d6000fd5b505050506040513d601f19601f82011682018060405250810190611c269190612e28565b6011546001600160a01b03166122dc565b6124e4565b60007f00000000000000000000000000000000000000000000000000000000000000006001600160a01b0316634000aea07f000000000000000000000000000000000000000000000000000000000000000084866000604051602001611ca3929190613263565b6040516020818303038152906040526040518463ffffffff1660e01b8152600401611cd093929190613324565b602060405180830381600087803b158015611cea57600080fd5b505af1158015611cfe573d6000803e3d6000fd5b505050506040513d601f19601f82011682018060405250810190611d229190613038565b506000611d4484600030600080898152602001908152602001600020546126dc565b600085815260208190526040902054909150611d61906001613bfe565b600085815260208190526040902055611d7a8482612716565b949350505050565b6000611d8d82611ac8565b611da95760405162461bcd60e51b81526004016107a49061366d565b6000611db483610f46565b9050806001600160a01b0316846001600160a01b03161480611def5750836001600160a01b0316611de48461087b565b6001600160a01b0316145b80611d7a5750611d7a81856119d6565b826001600160a01b0316611e1282610f46565b6001600160a01b031614611e385760405162461bcd60e51b81526004016107a49061395a565b6001600160a01b038216611e5e5760405162461bcd60e51b81526004016107a4906135a7565b611e69838383612749565b611e74600082611ae5565b6001600160a01b0383166000908152600460205260408120805460019290611e9d908490613c49565b90915550506001600160a01b0382166000908152600460205260408120805460019290611ecb908490613bfe565b909155505060008181526003602052604080822080546001600160a01b0319166001600160a01b0386811691821790925591518493918716917fddf252ad1be2c89b69c2b068fc378daa952ba7f163c4a11628f55a4df523b3ef91a4505050565b6060601080546107f890613c8c565b600b80546001600160a01b038381166001600160a01b0319831681179093556040519116919082907f8be0079c531659141344cd1fd0a4f28419497f9722a3daafe3b4186f6b6457e090600090a35050565b6114758282604051806020016040528060008152506127d2565b600061188c8284613c49565b6000611fc96101f4611fc3610ce0565b90611fa7565b611fd39083613ce2565b90506040518060800160405280828152602001611ffb6101f484611b5790919063ffffffff16565b815260200161200c83610190611b57565b815260200161201d8361012c611b57565b905261202d90601a906004612d3c565b5060408051608081019091528181526020810161204c836101f4611b57565b815260200161205d83610190611b57565b815260200161206e8361012c611b57565b905261207e90601b906004612d3c565b507f11609bf0dfcab1cd8696cdc747ee705ba9c458e0b7e701b1ebd4e1dfb6b5fb24601a6040516120af9190613398565b60405180910390a1505050565b816001600160a01b0316836001600160a01b031614156120ee5760405162461bcd60e51b81526004016107a4906135eb565b6001600160a01b0383811660008181526006602090815260408083209487168084529490915290819020805460ff1916851515179055517f17307eab39ab6107e8899845ad3d59bd9653f200f220920489ca2b5937696c31906121529085906133d3565b60405180910390a3505050565b61216a848484611dff565b61217684848484612805565b6115ee5760405162461bcd60e51b81526004016107a4906134d8565b60008261219f858461291d565b14949350505050565b6060816121cd57506040805180820190915260018152600360fc1b60208201526107da565b8160005b81156121f757806121e181613cc7565b91506121f09050600a83613c16565b91506121d1565b60008167ffffffffffffffff81111561222057634e487b7160e01b600052604160045260246000fd5b6040519080825280601f01601f19166020018201604052801561224a576020820181803683370190505b5090505b8415611d7a5761225f600183613c49565b915061226c600a86613ce2565b612277906030613bfe565b60f81b81838151811061229a57634e487b7160e01b600052603260045260246000fd5b60200101906001600160f81b031916908160001a9053506122bc600a86613c16565b945061224e565b6001600160e01b031981166301ffc9a760e01b14919050565b60405163e6a4390560e01b81526000908190735c69bee701ef814a2b6a3edd4b1652cb9cc5aa6f9063e6a439059061231a90879087906004016132b4565b60206040518083038186803b15801561233257600080fd5b505afa158015612346573d6000803e3d6000fd5b505050506040513d601f19601f8201168201806040525081019061236a9190612e28565b9050600080826001600160a01b0316630902f1ac6040518163ffffffff1660e01b815260040160606040518083038186803b1580156123a857600080fd5b505afa1580156123bc573d6000803e3d6000fd5b505050506040513d601f19601f820116820180604052508101906123e091906130e4565b506001600160701b031691506001600160701b031691506000836001600160a01b0316630dfe16816040518163ffffffff1660e01b815260040160206040518083038186803b15801561243257600080fd5b505afa158015612446573d6000803e3d6000fd5b505050506040513d601f19601f8201168201806040525081019061246a9190612e28565b9050600080886001600160a01b0316836001600160a01b03161461248f578385612492565b84845b909250905060006124a58b6103e5611b6c565b905060006124b38284611b6c565b905060006124c783611699876103e8611b6c565b90506124d38282611b78565b9d9c50505050505050505050505050565b60408051600280825260608201835247926000929190602083019080368337019050509050737a250d5630b4cf539739df2c5dacb4c659f2488d6001600160a01b031663ad5c46486040518163ffffffff1660e01b815260040160206040518083038186803b15801561255657600080fd5b505afa15801561256a573d6000803e3d6000fd5b505050506040513d601f19601f8201168201806040525081019061258e9190612e28565b816000815181106125af57634e487b7160e01b600052603260045260246000fd5b60200260200101906001600160a01b031690816001600160a01b03168152505083816001815181106125f157634e487b7160e01b600052603260045260246000fd5b6001600160a01b0390921660209283029190910190910152737a250d5630b4cf539739df2c5dacb4c659f2488d637ff36ab583858430612633426102bc613bfe565b6040518663ffffffff1660e01b81526004016126529493929190613b6b565b6000604051808303818588803b15801561266b57600080fd5b505af115801561267f573d6000803e3d6000fd5b50505050506040513d6000823e601f3d908101601f191682016040526126a89190810190612f91565b600182516126b69190613c49565b815181106126d457634e487b7160e01b600052603260045260246000fd5b505050505050565b6000848484846040516020016126f594939291906133e7565b60408051601f19818403018152919052805160209091012095945050505050565b6000828260405160200161272b929190613263565b60405160208183030381529060405280519060200120905092915050565b612754838383610951565b6001600160a01b0383166127705761276b816129d5565b612793565b816001600160a01b0316836001600160a01b031614612793576127938382612a19565b6001600160a01b0382166127af576127aa81612ab6565b610951565b826001600160a01b0316826001600160a01b031614610951576109518282612b8f565b6127dc8383612bd3565b6127e96000848484612805565b6109515760405162461bcd60e51b81526004016107a4906134d8565b6000612819846001600160a01b0316612cb2565b1561291557836001600160a01b031663150b7a02612835611a84565b8786866040518563ffffffff1660e01b815260040161285794939291906132ce565b602060405180830381600087803b15801561287157600080fd5b505af19250505080156128a1575060408051601f3d908101601f1916820190925261289e918101906130a9565b60015b6128fb573d8080156128cf576040519150601f19603f3d011682016040523d82523d6000602084013e6128d4565b606091505b5080516128f35760405162461bcd60e51b81526004016107a4906134d8565b805181602001fd5b6001600160e01b031916630a85bd0160e11b149050611d7a565b506001611d7a565b600081815b84518110156129cd57600085828151811061294d57634e487b7160e01b600052603260045260246000fd5b6020026020010151905080831161298e578281604051602001612971929190613263565b6040516020818303038152906040528051906020012092506129ba565b80836040516020016129a1929190613263565b6040516020818303038152906040528051906020012092505b50806129c581613cc7565b915050612922565b509392505050565b600980546000838152600a60205260408120829055600182018355919091527f6e1540171b6c0c960b71a7020d9f60077f6af931a8bbf590da0223dacf75c7af0155565b60006001612a2684610ff1565b612a309190613c49565b600083815260086020526040902054909150808214612a83576001600160a01b03841660009081526007602090815260408083208584528252808320548484528184208190558352600890915290208190555b5060009182526008602090815260408084208490556001600160a01b039094168352600781528383209183525290812055565b600954600090612ac890600190613c49565b6000838152600a602052604081205460098054939450909284908110612afe57634e487b7160e01b600052603260045260246000fd5b906000526020600020015490508060098381548110612b2d57634e487b7160e01b600052603260045260246000fd5b6000918252602080832090910192909255828152600a90915260408082208490558582528120556009805480612b7357634e487b7160e01b600052603160045260246000fd5b6001900381819060005260206000200160009055905550505050565b6000612b9a83610ff1565b6001600160a01b039093166000908152600760209081526040808320868452825280832085905593825260089052919091209190915550565b6001600160a01b038216612bf95760405162461bcd60e51b81526004016107a49061386d565b612c0281611ac8565b15612c1f5760405162461bcd60e51b81526004016107a490613570565b612c2b60008383612749565b6001600160a01b0382166000908152600460205260408120805460019290612c54908490613bfe565b909155505060008181526003602052604080822080546001600160a01b0319166001600160a01b03861690811790915590518392907fddf252ad1be2c89b69c2b068fc378daa952ba7f163c4a11628f55a4df523b3ef908290a45050565b3b151590565b828054612cc490613c8c565b90600052602060002090601f016020900481019282612ce65760008555612d2c565b82601f10612cff57805160ff1916838001178555612d2c565b82800160010185558215612d2c579182015b82811115612d2c578251825591602001919060010190612d11565b50612d38929150612d76565b5090565b828054828255906000526020600020908101928215612d2c5791602002820182811115612d2c578251825591602001919060010190612d11565b5b80821115612d385760008155600101612d77565b600067ffffffffffffffff831115612da557612da5613d22565b612db8601f8401601f1916602001613bd4565b9050828152838383011115612dcc57600080fd5b828260208301376000602084830101529392505050565b80516001600160701b03811681146107da57600080fd5b803561ffff811681146107da57600080fd5b600060208284031215612e1d578081fd5b813561188c81613d38565b600060208284031215612e39578081fd5b815161188c81613d38565b60008060408385031215612e56578081fd5b8235612e6181613d38565b91506020830135612e7181613d38565b809150509250929050565b600080600060608486031215612e90578081fd5b8335612e9b81613d38565b92506020840135612eab81613d38565b929592945050506040919091013590565b60008060008060808587031215612ed1578081fd5b8435612edc81613d38565b93506020850135612eec81613d38565b925060408501359150606085013567ffffffffffffffff811115612f0e578182fd5b8501601f81018713612f1e578182fd5b612f2d87823560208401612d8b565b91505092959194509250565b60008060408385031215612f4b578182fd5b8235612f5681613d38565b91506020830135612e7181613d4d565b60008060408385031215612f78578182fd5b8235612f8381613d38565b946020939093013593505050565b60006020808385031215612fa3578182fd5b825167ffffffffffffffff80821115612fba578384fd5b818501915085601f830112612fcd578384fd5b815181811115612fdf57612fdf613d22565b8381029150612fef848301613bd4565b8181528481019084860184860187018a1015613009578788fd5b8795505b8386101561302b57805183526001959095019491860191860161300d565b5098975050505050505050565b600060208284031215613049578081fd5b815161188c81613d4d565b600060208284031215613065578081fd5b5035919050565b6000806040838503121561307e578182fd5b50508035926020909101359150565b60006020828403121561309e578081fd5b813561188c81613d5b565b6000602082840312156130ba578081fd5b815161188c81613d5b565b6000602082840312156130d6578081fd5b81356003811061188c578182fd5b6000806000606084860312156130f8578081fd5b61310184612de3565b925061310f60208501612de3565b9150604084015163ffffffff81168114613127578182fd5b809150509250925092565b60008060008060808587031215613147578182fd5b61315085612dfa565b935061315e60208601612dfa565b9250604085013561316e81613d38565b9150606085013567ffffffffffffffff811115612f0e578182fd5b60006020828403121561319a578081fd5b5051919050565b6000806000604084860312156131b5578081fd5b83359250602084013567ffffffffffffffff808211156131d3578283fd5b818601915086601f8301126131e6578283fd5b8135818111156131f4578384fd5b8760208083028501011115613207578384fd5b6020830194508093505050509250925092565b60008151808452613232816020860160208601613c60565b601f01601f19169290920160200192915050565b60609190911b6bffffffffffffffffffffffff1916815260140190565b918252602082015260400190565b60008351613283818460208801613c60565b835190830190613297818360208801613c60565b01949350505050565b6001600160a01b0391909116815260200190565b6001600160a01b0392831681529116602082015260400190565b6001600160a01b03858116825284166020820152604081018390526080606082018190526000906133019083018461321a565b9695505050505050565b6001600160a01b03929092168252602082015260400190565b600060018060a01b03851682528360208301526060604083015261334b606083018461321a565b95945050505050565b6020808252825182820181905260009190848201906040850190845b8181101561338c57835183529284019291840191600101613370565b50909695505050505050565b6020808252825482820181905260008481528281209092916040850190845b8181101561338c578354835260019384019392850192016133b7565b901515815260200190565b90815260200190565b93845260208401929092526001600160a01b03166040830152606082015260800190565b602081016003831061342d57634e487b7160e01b600052602160045260246000fd5b91905290565b60006020825261188c602083018461321a565b60208082526027908201527f596f75206861766520616c726561647920636c61696d656420596f75722057686040820152661a5d195b1a5cdd60ca1b606082015260800190565b6020808252602b908201527f455243373231456e756d657261626c653a206f776e657220696e646578206f7560408201526a74206f6620626f756e647360a81b606082015260800190565b60208082526032908201527f4552433732313a207472616e7366657220746f206e6f6e20455243373231526560408201527131b2b4bb32b91034b6b83632b6b2b73a32b960711b606082015260800190565b60208082526026908201527f4f776e61626c653a206e6577206f776e657220697320746865207a65726f206160408201526564647265737360d01b606082015260800190565b6020808252601c908201527f4552433732313a20746f6b656e20616c7265616479206d696e74656400000000604082015260600190565b60208082526024908201527f4552433732313a207472616e7366657220746f20746865207a65726f206164646040820152637265737360e01b606082015260800190565b60208082526019908201527f4552433732313a20617070726f766520746f2063616c6c657200000000000000604082015260600190565b6020808252602b908201527f4e6f7420656e6f756768204c494e4b202d2066696c6c20636f6e74726163742060408201526a1dda5d1a0819985d58d95d60aa1b606082015260800190565b6020808252602c908201527f4552433732313a206f70657261746f7220717565727920666f72206e6f6e657860408201526b34b9ba32b73a103a37b5b2b760a11b606082015260800190565b6020808252601d908201527f546f74616c206e756d626572206f6620646f6765732072656163686564000000604082015260600190565b60208082526014908201527343616e2774204d696e742074686174206d616e7960601b604082015260600190565b6020808252600e908201526d09cdee840cadcdeeaced040cae8d60931b604082015260600190565b60208082526038908201527f4552433732313a20617070726f76652063616c6c6572206973206e6f74206f7760408201527f6e6572206e6f7220617070726f76656420666f7220616c6c0000000000000000606082015260800190565b6020808252602a908201527f4552433732313a2062616c616e636520717565727920666f7220746865207a65604082015269726f206164647265737360b01b606082015260800190565b60208082526029908201527f4552433732313a206f776e657220717565727920666f72206e6f6e657869737460408201526832b73a103a37b5b2b760b91b606082015260800190565b60208082526019908201527f5075626c69632073616c65206973206e6f742061637469766500000000000000604082015260600190565b6020808252818101527f4552433732313a206d696e7420746f20746865207a65726f2061646472657373604082015260600190565b60208082526017908201527f596f7520617265206e6f742077686974656c6973746564000000000000000000604082015260600190565b6020808252602c908201527f4552433732313a20617070726f76656420717565727920666f72206e6f6e657860408201526b34b9ba32b73a103a37b5b2b760a11b606082015260800190565b6020808252818101527f4f776e61626c653a2063616c6c6572206973206e6f7420746865206f776e6572604082015260600190565b60208082526029908201527f4552433732313a207472616e73666572206f6620746f6b656e2074686174206960408201526839903737ba1037bbb760b91b606082015260800190565b6020808252602f908201527f4552433732314d657461646174613a2055524920717565727920666f72206e6f60408201526e3732bc34b9ba32b73a103a37b5b2b760891b606082015260800190565b6020808252601f908201527f4f6e6c7920565246436f6f7264696e61746f722063616e2066756c66696c6c00604082015260600190565b60208082526021908201527f4552433732313a20617070726f76616c20746f2063757272656e74206f776e656040820152603960f91b606082015260800190565b602080825260139082015272283932b9b0b6329034b9903737ba1027b832b760691b604082015260600190565b60208082526031908201527f4552433732313a207472616e736665722063616c6c6572206973206e6f74206f6040820152701ddb995c881b9bdc88185c1c1c9bdd9959607a1b606082015260800190565b6020808252602c908201527f455243373231456e756d657261626c653a20676c6f62616c20696e646578206f60408201526b7574206f6620626f756e647360a01b606082015260800190565b6020808252601f908201527f5265656e7472616e637947756172643a207265656e7472616e742063616c6c00604082015260600190565b600060808201868352602060808185015281875180845260a0860191508289019350845b81811015613bb45784516001600160a01b031683529383019391830191600101613b8f565b50506001600160a01b039690961660408501525050506060015292915050565b60405181810167ffffffffffffffff81118282101715613bf657613bf6613d22565b604052919050565b60008219821115613c1157613c11613cf6565b500190565b600082613c2557613c25613d0c565b500490565b6000816000190483118215151615613c4457613c44613cf6565b500290565b600082821015613c5b57613c5b613cf6565b500390565b60005b83811015613c7b578181015183820152602001613c63565b838111156115ee5750506000910152565b600281046001821680613ca057607f821691505b60208210811415613cc157634e487b7160e01b600052602260045260246000fd5b50919050565b6000600019821415613cdb57613cdb613cf6565b5060010190565b600082613cf157613cf1613d0c565b500690565b634e487b7160e01b600052601160045260246000fd5b634e487b7160e01b600052601260045260246000fd5b634e487b7160e01b600052604160045260246000fd5b6001600160a01b0381168114610fee57600080fd5b8015158114610fee57600080fd5b6001600160e01b031981168114610fee57600080fdfea2646970667358221220d6ebdbaf7eb409416320f589a8c016e7721a6cb847f0e0dfb67162d57380211b64736f6c63430008000033",
  "linkReferences": {},
  "deployedLinkReferences": {}
}