{
  "_format": "hh-sol-artifact-1",
  "contractName": "BabyDogeNFT",
  "sourceName": "contracts/BabyDogeNft.sol",
  "abi": [
    {
      "inputs": [
        {
          "internalType": "string",
          "name": "name",
          "type": "string"
        },
        {
          "internalType": "string",
          "name": "symbol",
          "type": "string"
        },
        {
          "internalType": "string",
          "name": "baseTokenURI",
          "type": "string"
        },
        {
          "internalType": "uint256",
          "name": "maxNftSupply",
          "type": "uint256"
        }
      ],
      "stateMutability": "nonpayable",
      "type": "constructor"
    },
    {
      "inputs": [],
      "name": "ApprovalCallerNotOwnerNorApproved",
      "type": "error"
    },
    {
      "inputs": [],
      "name": "ApprovalQueryForNonexistentToken",
      "type": "error"
    },
    {
      "inputs": [],
      "name": "ApprovalToCurrentOwner",
      "type": "error"
    },
    {
      "inputs": [],
      "name": "ApproveToCaller",
      "type": "error"
    },
    {
      "inputs": [],
      "name": "BalanceQueryForZeroAddress",
      "type": "error"
    },
    {
      "inputs": [],
      "name": "MintToZeroAddress",
      "type": "error"
    },
    {
      "inputs": [],
      "name": "MintZeroQuantity",
      "type": "error"
    },
    {
      "inputs": [],
      "name": "OwnerIndexOutOfBounds",
      "type": "error"
    },
    {
      "inputs": [],
      "name": "OwnerQueryForNonexistentToken",
      "type": "error"
    },
    {
      "inputs": [],
      "name": "TokenIndexOutOfBounds",
      "type": "error"
    },
    {
      "inputs": [],
      "name": "TransferCallerNotOwnerNorApproved",
      "type": "error"
    },
    {
      "inputs": [],
      "name": "TransferFromIncorrectOwner",
      "type": "error"
    },
    {
      "inputs": [],
      "name": "TransferToNonERC721ReceiverImplementer",
      "type": "error"
    },
    {
      "inputs": [],
      "name": "TransferToZeroAddress",
      "type": "error"
    },
    {
      "inputs": [],
      "name": "URIQueryForNonexistentToken",
      "type": "error"
    },
    {
      "anonymous": false,
      "inputs": [
        {
          "indexed": true,
          "internalType": "address",
          "name": "owner",
          "type": "address"
        },
        {
          "indexed": true,
          "internalType": "address",
          "name": "approved",
          "type": "address"
        },
        {
          "indexed": true,
          "internalType": "uint256",
          "name": "tokenId",
          "type": "uint256"
        }
      ],
      "name": "Approval",
      "type": "event"
    },
    {
      "anonymous": false,
      "inputs": [
        {
          "indexed": true,
          "internalType": "address",
          "name": "owner",
          "type": "address"
        },
        {
          "indexed": true,
          "internalType": "address",
          "name": "operator",
          "type": "address"
        },
        {
          "indexed": false,
          "internalType": "bool",
          "name": "approved",
          "type": "bool"
        }
      ],
      "name": "ApprovalForAll",
      "type": "event"
    },
    {
      "anonymous": false,
      "inputs": [
        {
          "indexed": false,
          "internalType": "bool",
          "name": "_ethPayout",
          "type": "bool"
        }
      ],
      "name": "FlipEthPayout",
      "type": "event"
    },
    {
      "anonymous": false,
      "inputs": [
        {
          "indexed": false,
          "internalType": "uint256",
          "name": "_id",
          "type": "uint256"
        },
        {
          "indexed": false,
          "internalType": "uint256",
          "name": "_prize",
          "type": "uint256"
        }
      ],
      "name": "LottoClaimed",
      "type": "event"
    },
    {
      "anonymous": false,
      "inputs": [
        {
          "indexed": false,
          "internalType": "uint256",
          "name": "_maxMint",
          "type": "uint256"
        }
      ],
      "name": "MaxMintSet",
      "type": "event"
    },
    {
      "anonymous": false,
      "inputs": [
        {
          "indexed": false,
          "internalType": "bytes32",
          "name": "_merkleRoot",
          "type": "bytes32"
        }
      ],
      "name": "MerkleRootSet",
      "type": "event"
    },
    {
      "anonymous": false,
      "inputs": [
        {
          "indexed": true,
          "internalType": "address",
          "name": "previousOwner",
          "type": "address"
        },
        {
          "indexed": true,
          "internalType": "address",
          "name": "newOwner",
          "type": "address"
        }
      ],
      "name": "OwnershipTransferred",
      "type": "event"
    },
    {
      "anonymous": false,
      "inputs": [
        {
          "indexed": false,
          "internalType": "uint256",
          "name": "_amount",
          "type": "uint256"
        }
      ],
      "name": "ReserveDoges",
      "type": "event"
    },
    {
      "anonymous": false,
      "inputs": [
        {
          "indexed": false,
          "internalType": "uint256",
          "name": "_timestamp",
          "type": "uint256"
        }
      ],
      "name": "RevealTimeSet",
      "type": "event"
    },
    {
      "anonymous": false,
      "inputs": [
        {
          "indexed": false,
          "internalType": "uint256",
          "name": "_saleStatus",
          "type": "uint256"
        }
      ],
      "name": "SaleStatusSet",
      "type": "event"
    },
    {
      "anonymous": false,
      "inputs": [
        {
          "indexed": false,
          "internalType": "uint256",
          "name": "_devTeamPercent",
          "type": "uint256"
        },
        {
          "indexed": false,
          "internalType": "uint256",
          "name": "_lotoPercent",
          "type": "uint256"
        },
        {
          "indexed": false,
          "internalType": "address",
          "name": "_babydoge",
          "type": "address"
        },
        {
          "indexed": false,
          "internalType": "string",
          "name": "_URI",
          "type": "string"
        }
      ],
      "name": "SetSettings",
      "type": "event"
    },
    {
      "anonymous": false,
      "inputs": [
        {
          "indexed": true,
          "internalType": "address",
          "name": "from",
          "type": "address"
        },
        {
          "indexed": true,
          "internalType": "address",
          "name": "to",
          "type": "address"
        },
        {
          "indexed": true,
          "internalType": "uint256",
          "name": "tokenId",
          "type": "uint256"
        }
      ],
      "name": "Transfer",
      "type": "event"
    },
    {
      "anonymous": false,
      "inputs": [
        {
          "indexed": false,
          "internalType": "uint256[]",
          "name": "_ids",
          "type": "uint256[]"
        }
      ],
      "name": "WinnersPicked",
      "type": "event"
    },
    {
      "anonymous": false,
      "inputs": [
        {
          "indexed": false,
          "internalType": "bool",
          "name": "_withdrawAndLock",
          "type": "bool"
        }
      ],
      "name": "WithdrawAndLock",
      "type": "event"
    },
    {
      "inputs": [],
      "name": "REVEAL_TIMESTAMP",
      "outputs": [
        {
          "internalType": "uint256",
          "name": "",
          "type": "uint256"
        }
      ],
      "stateMutability": "view",
      "type": "function"
    },
    {
      "inputs": [
        {
          "internalType": "address",
          "name": "to",
          "type": "address"
        },
        {
          "internalType": "uint256",
          "name": "tokenId",
          "type": "uint256"
        }
      ],
      "name": "approve",
      "outputs": [],
      "stateMutability": "nonpayable",
      "type": "function"
    },
    {
      "inputs": [
        {
          "internalType": "address",
          "name": "owner",
          "type": "address"
        }
      ],
      "name": "balanceOf",
      "outputs": [
        {
          "internalType": "uint256",
          "name": "",
          "type": "uint256"
        }
      ],
      "stateMutability": "view",
      "type": "function"
    },
    {
      "inputs": [],
      "name": "baseURI",
      "outputs": [
        {
          "internalType": "string",
          "name": "",
          "type": "string"
        }
      ],
      "stateMutability": "view",
      "type": "function"
    },
    {
      "inputs": [
        {
          "internalType": "uint256",
          "name": "_id",
          "type": "uint256"
        }
      ],
      "name": "claimLotto",
      "outputs": [],
      "stateMutability": "nonpayable",
      "type": "function"
    },
    {
      "inputs": [],
      "name": "currentIteration",
      "outputs": [
        {
          "internalType": "uint256",
          "name": "_value",
          "type": "uint256"
        }
      ],
      "stateMutability": "view",
      "type": "function"
    },
    {
      "inputs": [],
      "name": "dogePrice",
      "outputs": [
        {
          "internalType": "uint256",
          "name": "",
          "type": "uint256"
        }
      ],
      "stateMutability": "view",
      "type": "function"
    },
    {
      "inputs": [],
      "name": "ethPayout",
      "outputs": [
        {
          "internalType": "bool",
          "name": "",
          "type": "bool"
        }
      ],
      "stateMutability": "view",
      "type": "function"
    },
    {
      "inputs": [],
      "name": "flipEthPayout",
      "outputs": [],
      "stateMutability": "nonpayable",
      "type": "function"
    },
    {
      "inputs": [
        {
          "internalType": "uint256",
          "name": "tokenId",
          "type": "uint256"
        }
      ],
      "name": "getApproved",
      "outputs": [
        {
          "internalType": "address",
          "name": "",
          "type": "address"
        }
      ],
      "stateMutability": "view",
      "type": "function"
    },
    {
      "inputs": [],
      "name": "getCurrentWinners",
      "outputs": [
        {
          "internalType": "uint256[]",
          "name": "",
          "type": "uint256[]"
        }
      ],
      "stateMutability": "view",
      "type": "function"
    },
    {
      "inputs": [],
      "name": "getSaleStatus",
      "outputs": [
        {
          "internalType": "uint256",
          "name": "",
          "type": "uint256"
        }
      ],
      "stateMutability": "view",
      "type": "function"
    },
    {
      "inputs": [
        {
          "internalType": "address",
          "name": "owner",
          "type": "address"
        },
        {
          "internalType": "address",
          "name": "operator",
          "type": "address"
        }
      ],
      "name": "isApprovedForAll",
      "outputs": [
        {
          "internalType": "bool",
          "name": "",
          "type": "bool"
        }
      ],
      "stateMutability": "view",
      "type": "function"
    },
    {
      "inputs": [],
      "name": "maxDogePurchase",
      "outputs": [
        {
          "internalType": "uint256",
          "name": "",
          "type": "uint256"
        }
      ],
      "stateMutability": "view",
      "type": "function"
    },
    {
      "inputs": [],
      "name": "merkleRoot",
      "outputs": [
        {
          "internalType": "bytes32",
          "name": "",
          "type": "bytes32"
        }
      ],
      "stateMutability": "view",
      "type": "function"
    },
    {
      "inputs": [
        {
          "internalType": "uint256",
          "name": "numberOfTokens",
          "type": "uint256"
        }
      ],
      "name": "mintDoge",
      "outputs": [],
      "stateMutability": "payable",
      "type": "function"
    },
    {
      "inputs": [
        {
          "internalType": "uint256",
          "name": "numberOfTokens",
          "type": "uint256"
        },
        {
          "internalType": "bytes32[]",
          "name": "_merkleProof",
          "type": "bytes32[]"
        }
      ],
      "name": "mintWhitelistDoge",
      "outputs": [],
      "stateMutability": "payable",
      "type": "function"
    },
    {
      "inputs": [],
      "name": "name",
      "outputs": [
        {
          "internalType": "string",
          "name": "",
          "type": "string"
        }
      ],
      "stateMutability": "view",
      "type": "function"
    },
    {
      "inputs": [],
      "name": "nextRewardNonce",
      "outputs": [
        {
          "internalType": "bytes32",
          "name": "requestId",
          "type": "bytes32"
        }
      ],
      "stateMutability": "nonpayable",
      "type": "function"
    },
    {
      "inputs": [],
      "name": "owner",
      "outputs": [
        {
          "internalType": "address",
          "name": "",
          "type": "address"
        }
      ],
      "stateMutability": "view",
      "type": "function"
    },
    {
      "inputs": [
        {
          "internalType": "uint256",
          "name": "tokenId",
          "type": "uint256"
        }
      ],
      "name": "ownerOf",
      "outputs": [
        {
          "internalType": "address",
          "name": "",
          "type": "address"
        }
      ],
      "stateMutability": "view",
      "type": "function"
    },
    {
      "inputs": [],
      "name": "prizePool",
      "outputs": [
        {
          "internalType": "uint256",
          "name": "",
          "type": "uint256"
        }
      ],
      "stateMutability": "view",
      "type": "function"
    },
    {
      "inputs": [
        {
          "internalType": "bytes32",
          "name": "requestId",
          "type": "bytes32"
        },
        {
          "internalType": "uint256",
          "name": "randomness",
          "type": "uint256"
        }
      ],
      "name": "rawFulfillRandomness",
      "outputs": [],
      "stateMutability": "nonpayable",
      "type": "function"
    },
    {
      "inputs": [],
      "name": "renounceOwnership",
      "outputs": [],
      "stateMutability": "nonpayable",
      "type": "function"
    },
    {
      "inputs": [
        {
          "internalType": "uint256",
          "name": "_amount",
          "type": "uint256"
        }
      ],
      "name": "reserveDoges",
      "outputs": [],
      "stateMutability": "nonpayable",
      "type": "function"
    },
    {
      "inputs": [
        {
          "internalType": "address",
          "name": "from",
          "type": "address"
        },
        {
          "internalType": "address",
          "name": "to",
          "type": "address"
        },
        {
          "internalType": "uint256",
          "name": "tokenId",
          "type": "uint256"
        }
      ],
      "name": "safeTransferFrom",
      "outputs": [],
      "stateMutability": "nonpayable",
      "type": "function"
    },
    {
      "inputs": [
        {
          "internalType": "address",
          "name": "from",
          "type": "address"
        },
        {
          "internalType": "address",
          "name": "to",
          "type": "address"
        },
        {
          "internalType": "uint256",
          "name": "tokenId",
          "type": "uint256"
        },
        {
          "internalType": "bytes",
          "name": "_data",
          "type": "bytes"
        }
      ],
      "name": "safeTransferFrom",
      "outputs": [],
      "stateMutability": "nonpayable",
      "type": "function"
    },
    {
      "inputs": [],
      "name": "saleStatus",
      "outputs": [
        {
          "internalType": "enum BabyDogeNFT.SaleStatus",
          "name": "",
          "type": "uint8"
        }
      ],
      "stateMutability": "view",
      "type": "function"
    },
    {
      "inputs": [
        {
          "internalType": "address",
          "name": "operator",
          "type": "address"
        },
        {
          "internalType": "bool",
          "name": "approved",
          "type": "bool"
        }
      ],
      "name": "setApprovalForAll",
      "outputs": [],
      "stateMutability": "nonpayable",
      "type": "function"
    },
    {
      "inputs": [
        {
          "internalType": "uint256",
          "name": "_price",
          "type": "uint256"
        }
      ],
      "name": "setDogePrice",
      "outputs": [],
      "stateMutability": "nonpayable",
      "type": "function"
    },
    {
      "inputs": [
        {
          "internalType": "uint256",
          "name": "_maxDogePurchase",
          "type": "uint256"
        }
      ],
      "name": "setMaxMint",
      "outputs": [],
      "stateMutability": "nonpayable",
      "type": "function"
    },
    {
      "inputs": [
        {
          "internalType": "bytes32",
          "name": "_merkleRoot",
          "type": "bytes32"
        }
      ],
      "name": "setMerkleRoot",
      "outputs": [],
      "stateMutability": "nonpayable",
      "type": "function"
    },
    {
      "inputs": [
        {
          "internalType": "uint256",
          "name": "revealTimeStamp",
          "type": "uint256"
        }
      ],
      "name": "setRevealTimestamp",
      "outputs": [],
      "stateMutability": "nonpayable",
      "type": "function"
    },
    {
      "inputs": [
        {
          "internalType": "enum BabyDogeNFT.SaleStatus",
          "name": "_saleStatus",
          "type": "uint8"
        }
      ],
      "name": "setSaleStatus",
      "outputs": [],
      "stateMutability": "nonpayable",
      "type": "function"
    },
    {
      "inputs": [
        {
          "internalType": "uint16",
          "name": "_devTeamPercent",
          "type": "uint16"
        },
        {
          "internalType": "uint16",
          "name": "_lotoPercent",
          "type": "uint16"
        },
        {
          "internalType": "address",
          "name": "_babyDogeToken",
          "type": "address"
        },
        {
          "internalType": "string",
          "name": "_baseURILink",
          "type": "string"
        }
      ],
      "name": "setSettings",
      "outputs": [],
      "stateMutability": "nonpayable",
      "type": "function"
    },
    {
      "inputs": [
        {
          "internalType": "bytes4",
          "name": "interfaceId",
          "type": "bytes4"
        }
      ],
      "name": "supportsInterface",
      "outputs": [
        {
          "internalType": "bool",
          "name": "",
          "type": "bool"
        }
      ],
      "stateMutability": "view",
      "type": "function"
    },
    {
      "inputs": [],
      "name": "symbol",
      "outputs": [
        {
          "internalType": "string",
          "name": "",
          "type": "string"
        }
      ],
      "stateMutability": "view",
      "type": "function"
    },
    {
      "inputs": [
        {
          "internalType": "uint256",
          "name": "index",
          "type": "uint256"
        }
      ],
      "name": "tokenByIndex",
      "outputs": [
        {
          "internalType": "uint256",
          "name": "",
          "type": "uint256"
        }
      ],
      "stateMutability": "view",
      "type": "function"
    },
    {
      "inputs": [
        {
          "internalType": "address",
          "name": "owner",
          "type": "address"
        },
        {
          "internalType": "uint256",
          "name": "index",
          "type": "uint256"
        }
      ],
      "name": "tokenOfOwnerByIndex",
      "outputs": [
        {
          "internalType": "uint256",
          "name": "",
          "type": "uint256"
        }
      ],
      "stateMutability": "view",
      "type": "function"
    },
    {
      "inputs": [
        {
          "internalType": "uint256",
          "name": "tokenId",
          "type": "uint256"
        }
      ],
      "name": "tokenURI",
      "outputs": [
        {
          "internalType": "string",
          "name": "",
          "type": "string"
        }
      ],
      "stateMutability": "view",
      "type": "function"
    },
    {
      "inputs": [],
      "name": "totalSupply",
      "outputs": [
        {
          "internalType": "uint256",
          "name": "",
          "type": "uint256"
        }
      ],
      "stateMutability": "view",
      "type": "function"
    },
    {
      "inputs": [
        {
          "internalType": "address",
          "name": "from",
          "type": "address"
        },
        {
          "internalType": "address",
          "name": "to",
          "type": "address"
        },
        {
          "internalType": "uint256",
          "name": "tokenId",
          "type": "uint256"
        }
      ],
      "name": "transferFrom",
      "outputs": [],
      "stateMutability": "nonpayable",
      "type": "function"
    },
    {
      "inputs": [
        {
          "internalType": "address",
          "name": "newOwner",
          "type": "address"
        }
      ],
      "name": "transferOwnership",
      "outputs": [],
      "stateMutability": "nonpayable",
      "type": "function"
    },
    {
      "inputs": [
        {
          "internalType": "uint256",
          "name": "",
          "type": "uint256"
        }
      ],
      "name": "winners",
      "outputs": [
        {
          "internalType": "uint256",
          "name": "",
          "type": "uint256"
        }
      ],
      "stateMutability": "view",
      "type": "function"
    },
    {
      "inputs": [],
      "name": "withdrawAndLock",
      "outputs": [],
      "stateMutability": "nonpayable",
      "type": "function"
    },
    {
      "stateMutability": "payable",
      "type": "receive"
    }
  ],
  "bytecode": "0x61012060405267016345785d8a0000600f5560016010556011805461ff0019166101001790553480156200003257600080fd5b5060405162004233380380620042338339810160408190526200005591620002f0565b7fb3dccb4cf7a26f6cf6b120cf5a73875b7bbc655b00000000000000000000000060a0527f01be23585060835e02b77ef475b0cc51aa1e0709000000000000000000000000608052835184908490620000b690600290602085019062000197565b508051620000cc90600390602084019062000197565b505050620000e9620000e36200014160201b60201c565b62000145565b600160095581516200010390600b90602085019062000197565b5060e05250507f2ed0feb3e7fd2022120aa84fab1945545a9f2ffc9076fd6156fa96eaff4c131160c05250671bc16d674ec8000061010052620003d8565b3390565b600880546001600160a01b038381166001600160a01b0319831681179093556040519116919082907f8be0079c531659141344cd1fd0a4f28419497f9722a3daafe3b4186f6b6457e090600090a35050565b828054620001a59062000385565b90600052602060002090601f016020900481019282620001c9576000855562000214565b82601f10620001e457805160ff191683800117855562000214565b8280016001018555821562000214579182015b8281111562000214578251825591602001919060010190620001f7565b506200022292915062000226565b5090565b5b8082111562000222576000815560010162000227565b600082601f8301126200024e578081fd5b81516001600160401b03808211156200026b576200026b620003c2565b604051601f8301601f19908116603f01168101908282118183101715620002965762000296620003c2565b81604052838152602092508683858801011115620002b2578485fd5b8491505b83821015620002d55785820183015181830184015290820190620002b6565b83821115620002e657848385830101525b9695505050505050565b6000806000806080858703121562000306578384fd5b84516001600160401b03808211156200031d578586fd5b6200032b888389016200023d565b9550602087015191508082111562000341578485fd5b6200034f888389016200023d565b9450604087015191508082111562000365578384fd5b5062000374878288016200023d565b606096909601519497939650505050565b600181811c908216806200039a57607f821691505b60208210811415620003bc57634e487b7160e01b600052602260045260246000fd5b50919050565b634e487b7160e01b600052604160045260246000fd5b60805160601c60a05160601c60c05160e05161010051613de66200044d60003960008181610b950152610e93015260008181611b1801528181611d0401528181611ee40152611fdd01526000610e72015260008181611745015261236a015260008181610bb7015261233b0152613de66000f3fe6080604052600436106102765760003560e01c8063715018a61161014f5780639d5719b1116100c1578063c87b56dd1161007a578063c87b56dd14610700578063cac4ee0514610720578063db57e74514610740578063e985e9c514610753578063f2fde38b1461079c578063f9020e33146107bc57600080fd5b80639d5719b114610656578063a22cb4651461066b578063a2fb11751461068b578063a3bc9336146106ab578063b88d4fde146106cd578063bcfa950e146106ed57600080fd5b806388c6abf81161011357806388c6abf8146105c15780638ad78f80146105d85780638c3c4b34146105ee5780638da5cb5b1461060357806394985ddd1461062157806395d89b411461064157600080fd5b8063715018a614610536578063719ce73e1461054b57806379d49bb0146105615780637cb647591461058157806385142339146105a157600080fd5b80632eb4a7ab116101e8578063513d29ce116101ac578063513d29ce1461048c578063547520fe146104ac5780636352211e146104cc5780636c0360eb146104ec5780636c62ef141461050157806370a082311461051657600080fd5b80632eb4a7ab146103f65780632f745c591461040c57806342842e0e1461042c5780634891ad881461044c5780634f6ccce71461046c57600080fd5b8063095ea7b31161023a578063095ea7b3146103575780630a213e0414610377578063107fb6421461039657806318160ddd146103ab57806318e20a38146103c057806323b872dd146103d657600080fd5b8063018a2c371461028257806301ffc9a7146102a457806306095f59146102d957806306fdde03146102fd578063081812fc1461031f57600080fd5b3661027d57005b600080fd5b34801561028e57600080fd5b506102a261029d36600461373a565b6107e3565b005b3480156102b057600080fd5b506102c46102bf366004613773565b610852565b60405190151581526020015b60405180910390f35b3480156102e557600080fd5b506102ef600f5481565b6040519081526020016102d0565b34801561030957600080fd5b506103126108bf565b6040516102d09190613a8c565b34801561032b57600080fd5b5061033f61033a36600461373a565b610951565b6040516001600160a01b0390911681526020016102d0565b34801561036357600080fd5b506102a261037236600461364b565b610997565b34801561038357600080fd5b506011546102c490610100900460ff1681565b3480156103a257600080fd5b506102ef610a25565b3480156103b757600080fd5b506001546102ef565b3480156103cc57600080fd5b506102ef600d5481565b3480156103e257600080fd5b506102a26103f1366004613561565b610ec3565b34801561040257600080fd5b506102ef60195481565b34801561041857600080fd5b506102ef61042736600461364b565b610ece565b34801561043857600080fd5b506102a2610447366004613561565b610fb3565b34801561045857600080fd5b506102a26104673660046137ab565b610fce565b34801561047857600080fd5b506102ef61048736600461373a565b61107f565b34801561049857600080fd5b506102a26104a7366004613818565b6110ad565b3480156104b857600080fd5b506102a26104c736600461373a565b6111ec565b3480156104d857600080fd5b5061033f6104e736600461373a565b61124b565b3480156104f857600080fd5b5061031261125d565b34801561050d57600080fd5b506102a261126c565b34801561052257600080fd5b506102ef6105313660046134f1565b6112fd565b34801561054257600080fd5b506102a261134b565b34801561055757600080fd5b506102ef60125481565b34801561056d57600080fd5b506102a261057c36600461373a565b611381565b34801561058d57600080fd5b506102a261059c36600461373a565b6113e5565b3480156105ad57600080fd5b506102a26105bc36600461373a565b611444565b3480156105cd57600080fd5b506018546102ef9081565b3480156105e457600080fd5b506102ef60105481565b3480156105fa57600080fd5b506102ef611712565b34801561060f57600080fd5b506008546001600160a01b031661033f565b34801561062d57600080fd5b506102a261063c366004613752565b61173a565b34801561064d57600080fd5b506103126117c0565b34801561066257600080fd5b506102a26117cf565b34801561067757600080fd5b506102a261068636600461361e565b6118a8565b34801561069757600080fd5b506102ef6106a636600461373a565b61193e565b3480156106b757600080fd5b506106c061195f565b6040516102d091906139e5565b3480156106d957600080fd5b506102a26106e83660046135a1565b6119b6565b6102a26106fb366004613887565b6119f0565b34801561070c57600080fd5b5061031261071b36600461373a565b611d49565b34801561072c57600080fd5b506102a261073b36600461373a565b611dd0565b6102a261074e36600461373a565b611dff565b34801561075f57600080fd5b506102c461076e366004613529565b6001600160a01b03918216600090815260076020908152604080832093909416825291909152205460ff1690565b3480156107a857600080fd5b506102a26107b73660046134f1565b612020565b3480156107c857600080fd5b506015546107d69060ff1681565b6040516102d09190613a64565b6008546001600160a01b031633146108165760405162461bcd60e51b815260040161080d90613a9f565b60405180910390fd5b600d8190556040518181527fd227248b3540871674d341a3d15918c6eaed5a6704bae91d238aa95b5edaab89906020015b60405180910390a150565b60006001600160e01b031982166380ac58cd60e01b148061088357506001600160e01b03198216635b5e139f60e01b145b8061089e57506001600160e01b0319821663780e9d6360e01b145b806108b957506301ffc9a760e01b6001600160e01b03198316145b92915050565b6060600280546108ce90613ccb565b80601f01602080910402602001604051908101604052809291908181526020018280546108fa90613ccb565b80156109475780601f1061091c57610100808354040283529160200191610947565b820191906000526020600020905b81548152906001019060200180831161092a57829003601f168201915b5050505050905090565b600061095e826001541190565b61097b576040516333d1c03960e21b815260040160405180910390fd5b506000908152600660205260409020546001600160a01b031690565b60006109a28261124b565b9050806001600160a01b0316836001600160a01b031614156109d75760405163250fdee360e21b815260040160405180910390fd5b336001600160a01b038216148015906109f757506109f5813361076e565b155b15610a15576040516367d9dca160e11b815260040160405180910390fd5b610a208383836120b8565b505050565b600060026009541415610a7a5760405162461bcd60e51b815260206004820152601f60248201527f5265656e7472616e637947756172643a207265656e7472616e742063616c6c00604482015260640161080d565b600260095560115460ff16610af75760405162461bcd60e51b815260206004820152603960248201527f6572726f723a2063616e27742063616c6c206e6578745265776172644e6f6e6360448201527f65206265666f7265207468652073616c65206973206f76657200000000000000606482015260840161080d565b60006224ea0060166000610b0a60185490565b815260200190815260200160002054610b239190613c3d565b4211610b805760405162461bcd60e51b815260206004820152602660248201527f6572726f723a20697465726174696f6e20706572696f6420686173206e6f74206044820152651c185cdcd95960d21b606482015260840161080d565b6040516370a0823160e01b81523060048201527f0000000000000000000000000000000000000000000000000000000000000000907f00000000000000000000000000000000000000000000000000000000000000006001600160a01b0316906370a082319060240160206040518083038186803b158015610c0157600080fd5b505afa158015610c15573d6000803e3d6000fd5b505050506040513d601f19601f82011682018060405250810190610c39919061386f565b1015610c995760405162461bcd60e51b815260206004820152602960248201527f4e6f7420656e6f756768204c494e4b202d2066696c6c20636f6e74726163742060448201526877697468204c696e6b60b81b606482015260840161080d565b610ca7601880546001019055565b4260166000610cb560185490565b815260208101919091526040016000205560015460176000610cd660185490565b8152602001908152602001600020819055506000601160019054906101000a900460ff1615610d755750600a54479061271090610d179061ffff1683613c69565b610d219190613c55565b9150610d4882610d396008546001600160a01b031690565b6001600160a01b031690612114565b600a5461271090610d639062010000900461ffff1683613c69565b610d6d9190613c55565b601255610e6d565b610d7d61222d565b600c546040516370a0823160e01b81523060048201526001600160a01b03909116906370a082319060240160206040518083038186803b158015610dc057600080fd5b505afa158015610dd4573d6000803e3d6000fd5b505050506040513d601f19601f82011682018060405250810190610df8919061386f565b600a5490915061271090610e109061ffff1683613c69565b610e1a9190613c55565b9150610e44610e316008546001600160a01b031690565b600c546001600160a01b031690846122e5565b600a5461271090610e5f9062010000900461ffff1683613c69565b610e699190613c55565b6012555b610eb77f00000000000000000000000000000000000000000000000000000000000000007f0000000000000000000000000000000000000000000000000000000000000000612337565b92505050600160095590565b610a208383836124c1565b6000610ed9836112fd565b8210610ef8576040516306ed618760e11b815260040160405180910390fd5b6000610f0360015490565b905060008060005b83811015610f9c576000818152600460209081526040918290208251808401909352546001600160a01b038116808452600160a01b90910467ffffffffffffffff169183019190915215610f5e57805192505b876001600160a01b0316836001600160a01b03161415610f935786841415610f8c575093506108b992505050565b6001909301925b50600101610f0b565b50634e487b7160e01b600052600160045260246000fd5b610a20838383604051806020016040528060008152506119b6565b6008546001600160a01b03163314610ff85760405162461bcd60e51b815260040161080d90613a9f565b6015805482919060ff1916600183600281111561102557634e487b7160e01b600052602160045260246000fd5b02179055506015547f5f393514fe885345bf6ba49c7009fef8081ddf42042464e8dfe04a17f001cddf9060ff16600281111561107157634e487b7160e01b600052602160045260246000fd5b604051908152602001610847565b600061108a60015490565b82106110a9576040516329c8c00760e21b815260040160405180910390fd5b5090565b6008546001600160a01b031633146110d75760405162461bcd60e51b815260040161080d90613a9f565b6001600160a01b03821661113c5760405162461bcd60e51b815260206004820152602660248201527f4572726f723a20546f6b656e2063616e277420626520746865207a65726f206160448201526564647265737360d01b606482015260840161080d565b600a805461ffff858116620100000263ffffffff1990921690871617179055600c80546001600160a01b0384166001600160a01b0319909116179055805161118b90600b90602084019061339c565b50600a54600c546040517e89f6d806b406160fe53ec387c78595e885ca4881db758f4e83ca7ddc069b88926111de9261ffff808316936201000090930416916001600160a01b0390911690600b90613ad4565b60405180910390a150505050565b6008546001600160a01b031633146112165760405162461bcd60e51b815260040161080d90613a9f565b60108190556040518181527f3b64f5d0ae4de41d36db0948fc83ffbba5d86eb79841008d6047a25f46ed2b7990602001610847565b6000611256826126e0565b5192915050565b6060611267612775565b905090565b6008546001600160a01b031633146112965760405162461bcd60e51b815260040161080d90613a9f565b6011805461ff001981166101009182900460ff16159091021790556112b9610a25565b5060115460405161010090910460ff16151581527fa52383c36c234ecf24255806fe74d869b31d0a0d26073e975ddeb5f871886262906020015b60405180910390a1565b60006001600160a01b038216611326576040516323d3ad8160e21b815260040160405180910390fd5b506001600160a01b03166000908152600560205260409020546001600160801b031690565b6008546001600160a01b031633146113755760405162461bcd60e51b815260040161080d90613a9f565b61137f6000612784565b565b6008546001600160a01b031633146113ab5760405162461bcd60e51b815260040161080d90613a9f565b6113b533826127d6565b6040518181527fffa76519d7df0608ca65c5af555ef0723f461afa7dadac8ccb5b3f7a8019e3ef90602001610847565b6008546001600160a01b0316331461140f5760405162461bcd60e51b815260040161080d90613a9f565b60198190556040518181527f42cbc405e4dbf1b691e85b9a34b08ecfcf7a9ad9078bf4d645ccfa1fac11c10b90602001610847565b600260095414156114975760405162461bcd60e51b815260206004820152601f60248201527f5265656e7472616e637947756172643a207265656e7472616e742063616c6c00604482015260640161080d565b6002600955336114a68261124b565b6001600160a01b0316146115075760405162461bcd60e51b815260206004820152602260248201527f6572726f723a20796f7520646f6e74206f776e20612077696e6e696e6720646f604482015261676560f01b606482015260840161080d565b6000805b60145481101561167357826014828154811061153757634e487b7160e01b600052603260045260246000fd5b90600052602060002001541415611661576014546012546115589190613c55565b9150816012546115689190613c88565b601255805b60145461157c90600190613c88565b8110156115f8576014611590826001613c3d565b815481106115ae57634e487b7160e01b600052603260045260246000fd5b9060005260206000200154601482815481106115da57634e487b7160e01b600052603260045260246000fd5b600091825260209091200155806115f081613d06565b91505061156d565b50601480548061161857634e487b7160e01b600052603160045260246000fd5b60019003818190600052602060002001600090559055601160019054906101000a900460ff16156116555761165082610d398561124b565b611661565b611661610e318461124b565b8061166b81613d06565b91505061150b565b50600081116116d05760405162461bcd60e51b815260206004820152602360248201527f6572726f723a207072697a65206d75737420626520677265617465722074686560448201526206e20360ec1b606482015260840161080d565b60408051838152602081018390527ff4338f56dc8b8e2b8c87ae4eb8008d2290a524a16c153183ef0b116ef4834d7d910160405180910390a150506001600955565b60155460009060ff16600281111561126757634e487b7160e01b600052602160045260246000fd5b336001600160a01b037f000000000000000000000000000000000000000000000000000000000000000016146117b25760405162461bcd60e51b815260206004820152601f60248201527f4f6e6c7920565246436f6f7264696e61746f722063616e2066756c66696c6c00604482015260640161080d565b6117bc82826127f0565b5050565b6060600380546108ce90613ccb565b6008546001600160a01b031633146117f95760405162461bcd60e51b815260040161080d90613a9f565b60115460ff161561184c5760405162461bcd60e51b815260206004820181905260248201527f43616e206f6e6c792063616c6c20746869732066756e6374696f6e206f6e6365604482015260640161080d565b6011805460ff1916600117905561186f47610d396008546001600160a01b031690565b60115460405160ff909116151581527fd5dc719472ee802e529d4afc3a953b5d8ea1790730213eafdcfce3433d2ea225906020016112f3565b6001600160a01b0382163314156118d25760405163b06307db60e01b815260040160405180910390fd5b3360008181526007602090815260408083206001600160a01b03871680855290835292819020805460ff191686151590811790915590519081529192917f17307eab39ab6107e8899845ad3d59bd9653f200f220920489ca2b5937696c31910160405180910390a35050565b6013818154811061194e57600080fd5b600091825260209091200154905081565b6060601380548060200260200160405190810160405280929190818152602001828054801561094757602002820191906000526020600020905b815481526020019060010190808311611999575050505050905090565b6119c18484846124c1565b6119cd848484846128f5565b6119ea576040516368d2bf6b60e11b815260040160405180910390fd5b50505050565b600160155460ff166002811115611a1757634e487b7160e01b600052602160045260246000fd5b14611a645760405162461bcd60e51b815260206004820152601e60248201527f57686974656c6973742073616c6520686173206e6f7420737461727465640000604482015260640161080d565b336000908152601a602052604090205460ff1615611ac45760405162461bcd60e51b815260206004820152601760248201527f596f75206861766520616c7265616479204d696e746564000000000000000000604482015260640161080d565b601054831115611b165760405162461bcd60e51b815260206004820152601e60248201527f596f752063616e2774206d696e742074686174206d616e7920446f6765730000604482015260640161080d565b7f000000000000000000000000000000000000000000000000000000000000000083611b4160015490565b611b4b9190613c3d565b1115611bbf5760405162461bcd60e51b815260206004820152603b60248201527f556e61626c6520746f206d696e743a20776f756c642065786365656420746f7460448201527f616c20737570706c792c20747279206d696e74696e67206c6573730000000000606482015260840161080d565b3483600f54611bce9190613c69565b1115611c0d5760405162461bcd60e51b815260206004820152600e60248201526d09cdee840cadcdeeaced0408aa8960931b604482015260640161080d565b6040516bffffffffffffffffffffffff193360601b166020820152600090603401604051602081830303815290604052805190602001209050611c87838380806020026020016040519081016040528093929190818152602001838360200280828437600092019190915250506019549150849050612a03565b611cd35760405162461bcd60e51b815260206004820152601b60248201527f596f75206172656e2774206f6e207468652077686974656c6973740000000000604482015260640161080d565b336000818152601a60205260409020805460ff19166001179055611cf790856127d6565b600e54158015611d3a57507f0000000000000000000000000000000000000000000000000000000000000000611d2c60015490565b1480611d3a5750600d544210155b156119ea5743600e5550505050565b6060611d56826001541190565b611d7357604051630a14c4b560e41b815260040160405180910390fd5b6000611d7d612775565b9050805160001415611d9e5760405180602001604052806000815250611dc9565b80611da884612a19565b604051602001611db9929190613949565b6040516020818303038152906040525b9392505050565b6008546001600160a01b03163314611dfa5760405162461bcd60e51b815260040161080d90613a9f565b600f55565b600260155460ff166002811115611e2657634e487b7160e01b600052602160045260246000fd5b14611e825760405162461bcd60e51b815260206004820152602660248201527f6572726f723a207075626c69632073616c6520686173206e6f742073746172746044820152651959081e595d60d21b606482015260840161080d565b601054811115611ee25760405162461bcd60e51b815260206004820152602560248201527f6572726f723a20796f752063616e2774206d696e742074686174206d616e7920604482015264646f67657360d81b606482015260840161080d565b7f000000000000000000000000000000000000000000000000000000000000000081611f0d60015490565b611f179190613c3d565b1115611f715760405162461bcd60e51b8152602060048201526024808201527f6572726f723a20746f74616c20737570706c7920686173206265656e2072656160448201526318da195960e21b606482015260840161080d565b3481600f54611f809190613c69565b1115611fc65760405162461bcd60e51b81526020600482015260156024820152740cae4e4dee47440dcdee840cadcdeeaced0408ae8d605b1b604482015260640161080d565b611fd033826127d6565b600e5415801561201357507f000000000000000000000000000000000000000000000000000000000000000061200560015490565b14806120135750600d544210155b1561201d5743600e555b50565b6008546001600160a01b0316331461204a5760405162461bcd60e51b815260040161080d90613a9f565b6001600160a01b0381166120af5760405162461bcd60e51b815260206004820152602660248201527f4f776e61626c653a206e6577206f776e657220697320746865207a65726f206160448201526564647265737360d01b606482015260840161080d565b61201d81612784565b60008281526006602052604080822080546001600160a01b0319166001600160a01b0387811691821790925591518593918516917f8c5be1e5ebec7d5bd14f71427d1e84f3dd0314c0f7b2291e5b200ac8c7c3b92591a4505050565b804710156121645760405162461bcd60e51b815260206004820152601d60248201527f416464726573733a20696e73756666696369656e742062616c616e6365000000604482015260640161080d565b6000826001600160a01b03168260405160006040518083038185875af1925050503d80600081146121b1576040519150601f19603f3d011682016040523d82523d6000602084013e6121b6565b606091505b5050905080610a205760405162461bcd60e51b815260206004820152603a60248201527f416464726573733a20756e61626c6520746f2073656e642076616c75652c207260448201527f6563697069656e74206d61792068617665207265766572746564000000000000606482015260840161080d565b61137f600c60009054906101000a90046001600160a01b03166122e047737a250d5630b4cf539739df2c5dacb4c659f2488d6001600160a01b031663ad5c46486040518163ffffffff1660e01b815260040160206040518083038186803b15801561229757600080fd5b505afa1580156122ab573d6000803e3d6000fd5b505050506040513d601f19601f820116820180604052508101906122cf919061350d565b600c546001600160a01b0316612b33565b612d4c565b604080516001600160a01b038416602482015260448082018490528251808303909101815260649091019091526020810180516001600160e01b031663a9059cbb60e01b179052610a20908490612f44565b60007f00000000000000000000000000000000000000000000000000000000000000006001600160a01b0316634000aea07f0000000000000000000000000000000000000000000000000000000000000000848660006040516020016123a7929190918252602082015260400190565b6040516020818303038152906040526040518463ffffffff1660e01b81526004016123d4939291906139b5565b602060405180830381600087803b1580156123ee57600080fd5b505af1158015612402573d6000803e3d6000fd5b505050506040513d601f19601f82011682018060405250810190612426919061371e565b5060008381526020818152604080832054815180840188905280830185905230606082015260808082018390528351808303909101815260a090910190925281519183019190912086845292909152612480906001613c3d565b60008581526020818152604091829020929092558051808301879052808201849052815180820383018152606090910190915280519101205b949350505050565b60006124cc826126e0565b80519091506000906001600160a01b0316336001600160a01b031614806125035750336124f884610951565b6001600160a01b0316145b8061251557508151612515903361076e565b90508061253557604051632ce44b5f60e11b815260040160405180910390fd5b846001600160a01b031682600001516001600160a01b03161461256a5760405162a1148160e81b815260040160405180910390fd5b6001600160a01b03841661259157604051633a954ecd60e21b815260040160405180910390fd5b6125a160008484600001516120b8565b6001600160a01b03858116600090815260056020908152604080832080546001600160801b03198082166001600160801b03928316600019018316179092558986168086528386208054938416938316600190810190931693909317909255888552600490935281842080546001600160e01b031916909117600160a01b4267ffffffffffffffff160217905590860180835291205490911661269657612649816001541190565b15612696578251600082815260046020908152604090912080549186015167ffffffffffffffff16600160a01b026001600160e01b03199092166001600160a01b03909316929092171790555b5082846001600160a01b0316866001600160a01b03167fddf252ad1be2c89b69c2b068fc378daa952ba7f163c4a11628f55a4df523b3ef60405160405180910390a45b5050505050565b60408051808201909152600080825260208201526126ff826001541190565b61271c57604051636f96cda160e11b815260040160405180910390fd5b815b6000818152600460209081526040918290208251808401909352546001600160a01b038116808452600160a01b90910467ffffffffffffffff16918301919091521561276b579392505050565b506000190161271e565b6060600b80546108ce90613ccb565b600880546001600160a01b038381166001600160a01b0319831681179093556040519116919082907f8be0079c531659141344cd1fd0a4f28419497f9722a3daafe3b4186f6b6457e090600090a35050565b6117bc828260405180602001604052806000815250613016565b60006101f46127fe60015490565b6128089084613d21565b6128129190613c88565b90506040518060800160405280828152602001826101f46128339190613c3d565b815260200161284483610190613c3d565b81526020016128558361012c613c3d565b905261286590601390600461341c565b506040518060800160405280828152602001826101f46128859190613c3d565b815260200161289683610190613c3d565b81526020016128a78361012c613c3d565b90526128b790601490600461341c565b507f11609bf0dfcab1cd8696cdc747ee705ba9c458e0b7e701b1ebd4e1dfb6b5fb2460136040516128e89190613a29565b60405180910390a1505050565b60006001600160a01b0384163b156129f857604051630a85bd0160e11b81526001600160a01b0385169063150b7a0290612939903390899088908890600401613978565b602060405180830381600087803b15801561295357600080fd5b505af1925050508015612983575060408051601f3d908101601f191682019092526129809181019061378f565b60015b6129de573d8080156129b1576040519150601f19603f3d011682016040523d82523d6000602084013e6129b6565b606091505b5080516129d6576040516368d2bf6b60e11b815260040160405180910390fd5b805181602001fd5b6001600160e01b031916630a85bd0160e11b1490506124b9565b506001949350505050565b600082612a108584613023565b14949350505050565b606081612a3d5750506040805180820190915260018152600360fc1b602082015290565b8160005b8115612a675780612a5181613d06565b9150612a609050600a83613c55565b9150612a41565b60008167ffffffffffffffff811115612a9057634e487b7160e01b600052604160045260246000fd5b6040519080825280601f01601f191660200182016040528015612aba576020820181803683370190505b5090505b84156124b957612acf600183613c88565b9150612adc600a86613d21565b612ae7906030613c3d565b60f81b818381518110612b0a57634e487b7160e01b600052603260045260246000fd5b60200101906001600160f81b031916908160001a905350612b2c600a86613c55565b9450612abe565b60405163e6a4390560e01b81526001600160a01b038084166004830152821660248201526000908190735c69bee701ef814a2b6a3edd4b1652cb9cc5aa6f9063e6a439059060440160206040518083038186803b158015612b9357600080fd5b505afa158015612ba7573d6000803e3d6000fd5b505050506040513d601f19601f82011682018060405250810190612bcb919061350d565b9050600080826001600160a01b0316630902f1ac6040518163ffffffff1660e01b815260040160606040518083038186803b158015612c0957600080fd5b505afa158015612c1d573d6000803e3d6000fd5b505050506040513d601f19601f82011682018060405250810190612c4191906137ca565b506001600160701b031691506001600160701b031691506000836001600160a01b0316630dfe16816040518163ffffffff1660e01b815260040160206040518083038186803b158015612c9357600080fd5b505afa158015612ca7573d6000803e3d6000fd5b505050506040513d601f19601f82011682018060405250810190612ccb919061350d565b9050600080886001600160a01b0316836001600160a01b031614612cf0578385612cf3565b84845b90925090506000612d068b6103e5613c69565b90506000612d148383613c69565b9050600082612d25866103e8613c69565b612d2f9190613c3d565b9050612d3b8183613c55565b9d9c50505050505050505050505050565b60408051600280825260608201835247926000929190602083019080368337019050509050737a250d5630b4cf539739df2c5dacb4c659f2488d6001600160a01b031663ad5c46486040518163ffffffff1660e01b815260040160206040518083038186803b158015612dbe57600080fd5b505afa158015612dd2573d6000803e3d6000fd5b505050506040513d601f19601f82011682018060405250810190612df6919061350d565b81600081518110612e1757634e487b7160e01b600052603260045260246000fd5b60200260200101906001600160a01b031690816001600160a01b0316815250508381600181518110612e5957634e487b7160e01b600052603260045260246000fd5b6001600160a01b0390921660209283029190910190910152737a250d5630b4cf539739df2c5dacb4c659f2488d637ff36ab583858430612e9b426102bc613c3d565b6040518663ffffffff1660e01b8152600401612eba9493929190613ba3565b6000604051808303818588803b158015612ed357600080fd5b505af1158015612ee7573d6000803e3d6000fd5b50505050506040513d6000823e601f3d908101601f19168201604052612f109190810190613676565b60018251612f1e9190613c88565b81518110612f3c57634e487b7160e01b600052603260045260246000fd5b505050505050565b6000612f99826040518060400160405280602081526020017f5361666545524332303a206c6f772d6c6576656c2063616c6c206661696c6564815250856001600160a01b03166130dd9092919063ffffffff16565b805190915015610a205780806020019051810190612fb7919061371e565b610a205760405162461bcd60e51b815260206004820152602a60248201527f5361666545524332303a204552433230206f7065726174696f6e20646964206e6044820152691bdd081cdd58d8d9595960b21b606482015260840161080d565b610a2083838360016130ec565b600081815b84518110156130d557600085828151811061305357634e487b7160e01b600052603260045260246000fd5b602002602001015190508083116130955760408051602081018590529081018290526060016040516020818303038152906040528051906020012092506130c2565b60408051602081018390529081018490526060016040516020818303038152906040528051906020012092505b50806130cd81613d06565b915050613028565b509392505050565b60606124b9848460008561323b565b6001546001600160a01b03851661311557604051622e076360e81b815260040160405180910390fd5b836131335760405163b562e8dd60e01b815260040160405180910390fd5b6001600160a01b03851660008181526005602090815260408083208054600160801b6001600160801b031982166001600160801b039283168c01831690811782900483168c01909216021790558483526004909152812080546001600160e01b031916909217600160a01b4267ffffffffffffffff16021790915581905b858110156132325760405182906001600160a01b038916906000907fddf252ad1be2c89b69c2b068fc378daa952ba7f163c4a11628f55a4df523b3ef908290a4838015613208575061320660008884886128f5565b155b15613226576040516368d2bf6b60e11b815260040160405180910390fd5b600191820191016131b1565b506001556126d9565b60608247101561329c5760405162461bcd60e51b815260206004820152602660248201527f416464726573733a20696e73756666696369656e742062616c616e636520666f6044820152651c8818d85b1b60d21b606482015260840161080d565b843b6132ea5760405162461bcd60e51b815260206004820152601d60248201527f416464726573733a2063616c6c20746f206e6f6e2d636f6e7472616374000000604482015260640161080d565b600080866001600160a01b03168587604051613306919061392d565b60006040518083038185875af1925050503d8060008114613343576040519150601f19603f3d011682016040523d82523d6000602084013e613348565b606091505b5091509150613358828286613363565b979650505050505050565b60608315613372575081611dc9565b8251156133825782518084602001fd5b8160405162461bcd60e51b815260040161080d9190613a8c565b8280546133a890613ccb565b90600052602060002090601f0160209004810192826133ca5760008555613410565b82601f106133e357805160ff1916838001178555613410565b82800160010185558215613410579182015b828111156134105782518255916020019190600101906133f5565b506110a9929150613456565b82805482825590600052602060002090810192821561341057916020028201828111156134105782518255916020019190600101906133f5565b5b808211156110a95760008155600101613457565b600067ffffffffffffffff83111561348557613485613d61565b613498601f8401601f1916602001613c0c565b90508281528383830111156134ac57600080fd5b828260208301376000602084830101529392505050565b80516001600160701b03811681146134da57600080fd5b919050565b803561ffff811681146134da57600080fd5b600060208284031215613502578081fd5b8135611dc981613d77565b60006020828403121561351e578081fd5b8151611dc981613d77565b6000806040838503121561353b578081fd5b823561354681613d77565b9150602083013561355681613d77565b809150509250929050565b600080600060608486031215613575578081fd5b833561358081613d77565b9250602084013561359081613d77565b929592945050506040919091013590565b600080600080608085870312156135b6578081fd5b84356135c181613d77565b935060208501356135d181613d77565b925060408501359150606085013567ffffffffffffffff8111156135f3578182fd5b8501601f81018713613603578182fd5b6136128782356020840161346b565b91505092959194509250565b60008060408385031215613630578182fd5b823561363b81613d77565b9150602083013561355681613d8c565b6000806040838503121561365d578182fd5b823561366881613d77565b946020939093013593505050565b60006020808385031215613688578182fd5b825167ffffffffffffffff8082111561369f578384fd5b818501915085601f8301126136b2578384fd5b8151818111156136c4576136c4613d61565b8060051b91506136d5848301613c0c565b8181528481019084860184860187018a10156136ef578788fd5b8795505b838610156137115780518352600195909501949186019186016136f3565b5098975050505050505050565b60006020828403121561372f578081fd5b8151611dc981613d8c565b60006020828403121561374b578081fd5b5035919050565b60008060408385031215613764578182fd5b50508035926020909101359150565b600060208284031215613784578081fd5b8135611dc981613d9a565b6000602082840312156137a0578081fd5b8151611dc981613d9a565b6000602082840312156137bc578081fd5b813560038110611dc9578182fd5b6000806000606084860312156137de578081fd5b6137e7846134c3565b92506137f5602085016134c3565b9150604084015163ffffffff8116811461380d578182fd5b809150509250925092565b6000806000806080858703121561382d578182fd5b613836856134df565b9350613844602086016134df565b9250604085013561385481613d77565b9150606085013567ffffffffffffffff8111156135f3578182fd5b600060208284031215613880578081fd5b5051919050565b60008060006040848603121561389b578081fd5b83359250602084013567ffffffffffffffff808211156138b9578283fd5b818601915086601f8301126138cc578283fd5b8135818111156138da578384fd5b8760208260051b85010111156138ee578384fd5b6020830194508093505050509250925092565b60008151808452613919816020860160208601613c9f565b601f01601f19169290920160200192915050565b6000825161393f818460208701613c9f565b9190910192915050565b6000835161395b818460208801613c9f565b83519083019061396f818360208801613c9f565b01949350505050565b6001600160a01b03858116825284166020820152604081018390526080606082018190526000906139ab90830184613901565b9695505050505050565b60018060a01b03841681528260208201526060604082015260006139dc6060830184613901565b95945050505050565b6020808252825182820181905260009190848201906040850190845b81811015613a1d57835183529284019291840191600101613a01565b50909695505050505050565b6020808252825482820181905260008481528281209092916040850190845b81811015613a1d57835483526001938401939285019201613a48565b6020810160038310613a8657634e487b7160e01b600052602160045260246000fd5b91905290565b602081526000611dc96020830184613901565b6020808252818101527f4f776e61626c653a2063616c6c6572206973206e6f7420746865206f776e6572604082015260600190565b61ffff858116825284166020808301919091526001600160a01b03841660408301526080606083015282546000918291600181811c9082811680613b1957607f831692505b848310811415613b3757634e487b7160e01b87526022600452602487fd5b6080880183905260a08801818015613b565760018114613b6757613b91565b60ff19861682528682019750613b91565b60008b815260209020895b86811015613b8b57815484820152908501908801613b72565b83019850505b50959c9b505050505050505050505050565b600060808201868352602060808185015281875180845260a0860191508289019350845b81811015613bec5784516001600160a01b031683529383019391830191600101613bc7565b50506001600160a01b039690961660408501525050506060015292915050565b604051601f8201601f1916810167ffffffffffffffff81118282101715613c3557613c35613d61565b604052919050565b60008219821115613c5057613c50613d35565b500190565b600082613c6457613c64613d4b565b500490565b6000816000190483118215151615613c8357613c83613d35565b500290565b600082821015613c9a57613c9a613d35565b500390565b60005b83811015613cba578181015183820152602001613ca2565b838111156119ea5750506000910152565b600181811c90821680613cdf57607f821691505b60208210811415613d0057634e487b7160e01b600052602260045260246000fd5b50919050565b6000600019821415613d1a57613d1a613d35565b5060010190565b600082613d3057613d30613d4b565b500690565b634e487b7160e01b600052601160045260246000fd5b634e487b7160e01b600052601260045260246000fd5b634e487b7160e01b600052604160045260246000fd5b6001600160a01b038116811461201d57600080fd5b801515811461201d57600080fd5b6001600160e01b03198116811461201d57600080fdfea26469706673582212201db8f78a411840ed46425fa0ce805eeca61ba32cf8f074dda4fff4d6d28ab62664736f6c63430008040033",
  "linkReferences": {},
  "deployedLinkReferences": {}
}