{
  "_format": "hh-sol-artifact-1",
  "contractName": "BabyDogeNFT",
  "sourceName": "contracts/BabyDogeNft.sol",
  "abi": [
    {
      "inputs": [
        {
          "internalType": "string",
          "name": "name",
          "type": "string"
        },
        {
          "internalType": "string",
          "name": "symbol",
          "type": "string"
        },
        {
          "internalType": "string",
          "name": "baseTokenURI",
          "type": "string"
        },
        {
          "internalType": "uint256",
          "name": "maxNftSupply",
          "type": "uint256"
        }
      ],
      "stateMutability": "nonpayable",
      "type": "constructor"
    },
    {
      "inputs": [],
      "name": "ApprovalCallerNotOwnerNorApproved",
      "type": "error"
    },
    {
      "inputs": [],
      "name": "ApprovalQueryForNonexistentToken",
      "type": "error"
    },
    {
      "inputs": [],
      "name": "ApprovalToCurrentOwner",
      "type": "error"
    },
    {
      "inputs": [],
      "name": "ApproveToCaller",
      "type": "error"
    },
    {
      "inputs": [],
      "name": "BalanceQueryForZeroAddress",
      "type": "error"
    },
    {
      "inputs": [],
      "name": "MintToZeroAddress",
      "type": "error"
    },
    {
      "inputs": [],
      "name": "MintZeroQuantity",
      "type": "error"
    },
    {
      "inputs": [],
      "name": "OwnerIndexOutOfBounds",
      "type": "error"
    },
    {
      "inputs": [],
      "name": "OwnerQueryForNonexistentToken",
      "type": "error"
    },
    {
      "inputs": [],
      "name": "TokenIndexOutOfBounds",
      "type": "error"
    },
    {
      "inputs": [],
      "name": "TransferCallerNotOwnerNorApproved",
      "type": "error"
    },
    {
      "inputs": [],
      "name": "TransferFromIncorrectOwner",
      "type": "error"
    },
    {
      "inputs": [],
      "name": "TransferToNonERC721ReceiverImplementer",
      "type": "error"
    },
    {
      "inputs": [],
      "name": "TransferToZeroAddress",
      "type": "error"
    },
    {
      "inputs": [],
      "name": "URIQueryForNonexistentToken",
      "type": "error"
    },
    {
      "anonymous": false,
      "inputs": [
        {
          "indexed": true,
          "internalType": "address",
          "name": "owner",
          "type": "address"
        },
        {
          "indexed": true,
          "internalType": "address",
          "name": "approved",
          "type": "address"
        },
        {
          "indexed": true,
          "internalType": "uint256",
          "name": "tokenId",
          "type": "uint256"
        }
      ],
      "name": "Approval",
      "type": "event"
    },
    {
      "anonymous": false,
      "inputs": [
        {
          "indexed": true,
          "internalType": "address",
          "name": "owner",
          "type": "address"
        },
        {
          "indexed": true,
          "internalType": "address",
          "name": "operator",
          "type": "address"
        },
        {
          "indexed": false,
          "internalType": "bool",
          "name": "approved",
          "type": "bool"
        }
      ],
      "name": "ApprovalForAll",
      "type": "event"
    },
    {
      "anonymous": false,
      "inputs": [
        {
          "indexed": false,
          "internalType": "bool",
          "name": "_ethPayout",
          "type": "bool"
        }
      ],
      "name": "FlipEthPayout",
      "type": "event"
    },
    {
      "anonymous": false,
      "inputs": [
        {
          "indexed": false,
          "internalType": "uint256",
          "name": "_id",
          "type": "uint256"
        },
        {
          "indexed": false,
          "internalType": "uint256",
          "name": "_prize",
          "type": "uint256"
        }
      ],
      "name": "LottoClaimed",
      "type": "event"
    },
    {
      "anonymous": false,
      "inputs": [
        {
          "indexed": false,
          "internalType": "uint256",
          "name": "_maxMint",
          "type": "uint256"
        }
      ],
      "name": "MaxMintSet",
      "type": "event"
    },
    {
      "anonymous": false,
      "inputs": [
        {
          "indexed": false,
          "internalType": "bytes32",
          "name": "_merkleRoot",
          "type": "bytes32"
        }
      ],
      "name": "MerkleRootSet",
      "type": "event"
    },
    {
      "anonymous": false,
      "inputs": [
        {
          "indexed": true,
          "internalType": "address",
          "name": "previousOwner",
          "type": "address"
        },
        {
          "indexed": true,
          "internalType": "address",
          "name": "newOwner",
          "type": "address"
        }
      ],
      "name": "OwnershipTransferred",
      "type": "event"
    },
    {
      "anonymous": false,
      "inputs": [
        {
          "indexed": false,
          "internalType": "uint256",
          "name": "_amount",
          "type": "uint256"
        }
      ],
      "name": "ReserveDoges",
      "type": "event"
    },
    {
      "anonymous": false,
      "inputs": [
        {
          "indexed": false,
          "internalType": "uint256",
          "name": "_timestamp",
          "type": "uint256"
        }
      ],
      "name": "RevealTimeSet",
      "type": "event"
    },
    {
      "anonymous": false,
      "inputs": [
        {
          "indexed": false,
          "internalType": "uint256",
          "name": "_saleStatus",
          "type": "uint256"
        }
      ],
      "name": "SaleStatusSet",
      "type": "event"
    },
    {
      "anonymous": false,
      "inputs": [
        {
          "indexed": false,
          "internalType": "uint256",
          "name": "_devTeamPercent",
          "type": "uint256"
        },
        {
          "indexed": false,
          "internalType": "uint256",
          "name": "_lotoPercent",
          "type": "uint256"
        },
        {
          "indexed": false,
          "internalType": "address",
          "name": "_babydoge",
          "type": "address"
        },
        {
          "indexed": false,
          "internalType": "string",
          "name": "_URI",
          "type": "string"
        }
      ],
      "name": "SetSettings",
      "type": "event"
    },
    {
      "anonymous": false,
      "inputs": [
        {
          "indexed": true,
          "internalType": "address",
          "name": "from",
          "type": "address"
        },
        {
          "indexed": true,
          "internalType": "address",
          "name": "to",
          "type": "address"
        },
        {
          "indexed": true,
          "internalType": "uint256",
          "name": "tokenId",
          "type": "uint256"
        }
      ],
      "name": "Transfer",
      "type": "event"
    },
    {
      "anonymous": false,
      "inputs": [
        {
          "indexed": false,
          "internalType": "uint256[]",
          "name": "_ids",
          "type": "uint256[]"
        }
      ],
      "name": "WinnersPicked",
      "type": "event"
    },
    {
      "anonymous": false,
      "inputs": [
        {
          "indexed": false,
          "internalType": "bool",
          "name": "_withdrawAndLock",
          "type": "bool"
        }
      ],
      "name": "WithdrawAndLock",
      "type": "event"
    },
    {
      "inputs": [],
      "name": "REVEAL_TIMESTAMP",
      "outputs": [
        {
          "internalType": "uint256",
          "name": "",
          "type": "uint256"
        }
      ],
      "stateMutability": "view",
      "type": "function"
    },
    {
      "inputs": [
        {
          "internalType": "address",
          "name": "to",
          "type": "address"
        },
        {
          "internalType": "uint256",
          "name": "tokenId",
          "type": "uint256"
        }
      ],
      "name": "approve",
      "outputs": [],
      "stateMutability": "nonpayable",
      "type": "function"
    },
    {
      "inputs": [
        {
          "internalType": "address",
          "name": "owner",
          "type": "address"
        }
      ],
      "name": "balanceOf",
      "outputs": [
        {
          "internalType": "uint256",
          "name": "",
          "type": "uint256"
        }
      ],
      "stateMutability": "view",
      "type": "function"
    },
    {
      "inputs": [],
      "name": "baseURI",
      "outputs": [
        {
          "internalType": "string",
          "name": "",
          "type": "string"
        }
      ],
      "stateMutability": "view",
      "type": "function"
    },
    {
      "inputs": [
        {
          "internalType": "uint256",
          "name": "_id",
          "type": "uint256"
        }
      ],
      "name": "claimLotto",
      "outputs": [],
      "stateMutability": "nonpayable",
      "type": "function"
    },
    {
      "inputs": [],
      "name": "currentIteration",
      "outputs": [
        {
          "internalType": "uint256",
          "name": "_value",
          "type": "uint256"
        }
      ],
      "stateMutability": "view",
      "type": "function"
    },
    {
      "inputs": [],
      "name": "dogePrice",
      "outputs": [
        {
          "internalType": "uint256",
          "name": "",
          "type": "uint256"
        }
      ],
      "stateMutability": "view",
      "type": "function"
    },
    {
      "inputs": [],
      "name": "ethPayout",
      "outputs": [
        {
          "internalType": "bool",
          "name": "",
          "type": "bool"
        }
      ],
      "stateMutability": "view",
      "type": "function"
    },
    {
      "inputs": [],
      "name": "flipEthPayout",
      "outputs": [],
      "stateMutability": "nonpayable",
      "type": "function"
    },
    {
      "inputs": [
        {
          "internalType": "uint256",
          "name": "tokenId",
          "type": "uint256"
        }
      ],
      "name": "getApproved",
      "outputs": [
        {
          "internalType": "address",
          "name": "",
          "type": "address"
        }
      ],
      "stateMutability": "view",
      "type": "function"
    },
    {
      "inputs": [],
      "name": "getCurrentPrice",
      "outputs": [
        {
          "internalType": "uint256",
          "name": "currentPrice",
          "type": "uint256"
        }
      ],
      "stateMutability": "view",
      "type": "function"
    },
    {
      "inputs": [],
      "name": "getCurrentWinners",
      "outputs": [
        {
          "internalType": "uint256[]",
          "name": "",
          "type": "uint256[]"
        }
      ],
      "stateMutability": "view",
      "type": "function"
    },
    {
      "inputs": [],
      "name": "getSaleStatus",
      "outputs": [
        {
          "internalType": "uint256",
          "name": "",
          "type": "uint256"
        }
      ],
      "stateMutability": "view",
      "type": "function"
    },
    {
      "inputs": [
        {
          "internalType": "address",
          "name": "owner",
          "type": "address"
        },
        {
          "internalType": "address",
          "name": "operator",
          "type": "address"
        }
      ],
      "name": "isApprovedForAll",
      "outputs": [
        {
          "internalType": "bool",
          "name": "",
          "type": "bool"
        }
      ],
      "stateMutability": "view",
      "type": "function"
    },
    {
      "inputs": [],
      "name": "merkleRoot",
      "outputs": [
        {
          "internalType": "bytes32",
          "name": "",
          "type": "bytes32"
        }
      ],
      "stateMutability": "view",
      "type": "function"
    },
    {
      "inputs": [
        {
          "internalType": "uint256",
          "name": "numberOfTokens",
          "type": "uint256"
        }
      ],
      "name": "mintDoge",
      "outputs": [],
      "stateMutability": "payable",
      "type": "function"
    },
    {
      "inputs": [
        {
          "internalType": "uint256",
          "name": "numberOfTokens",
          "type": "uint256"
        },
        {
          "internalType": "bytes32[]",
          "name": "_merkleProof",
          "type": "bytes32[]"
        }
      ],
      "name": "mintWhitelistDoge",
      "outputs": [],
      "stateMutability": "payable",
      "type": "function"
    },
    {
      "inputs": [],
      "name": "name",
      "outputs": [
        {
          "internalType": "string",
          "name": "",
          "type": "string"
        }
      ],
      "stateMutability": "view",
      "type": "function"
    },
    {
      "inputs": [],
      "name": "nextRewardNonce",
      "outputs": [
        {
          "internalType": "bytes32",
          "name": "requestId",
          "type": "bytes32"
        }
      ],
      "stateMutability": "nonpayable",
      "type": "function"
    },
    {
      "inputs": [],
      "name": "owner",
      "outputs": [
        {
          "internalType": "address",
          "name": "",
          "type": "address"
        }
      ],
      "stateMutability": "view",
      "type": "function"
    },
    {
      "inputs": [
        {
          "internalType": "uint256",
          "name": "tokenId",
          "type": "uint256"
        }
      ],
      "name": "ownerOf",
      "outputs": [
        {
          "internalType": "address",
          "name": "",
          "type": "address"
        }
      ],
      "stateMutability": "view",
      "type": "function"
    },
    {
      "inputs": [],
      "name": "prizePool",
      "outputs": [
        {
          "internalType": "uint256",
          "name": "",
          "type": "uint256"
        }
      ],
      "stateMutability": "view",
      "type": "function"
    },
    {
      "inputs": [
        {
          "internalType": "bytes32",
          "name": "requestId",
          "type": "bytes32"
        },
        {
          "internalType": "uint256",
          "name": "randomness",
          "type": "uint256"
        }
      ],
      "name": "rawFulfillRandomness",
      "outputs": [],
      "stateMutability": "nonpayable",
      "type": "function"
    },
    {
      "inputs": [],
      "name": "renounceOwnership",
      "outputs": [],
      "stateMutability": "nonpayable",
      "type": "function"
    },
    {
      "inputs": [
        {
          "internalType": "uint256",
          "name": "_amount",
          "type": "uint256"
        }
      ],
      "name": "reserveDoges",
      "outputs": [],
      "stateMutability": "nonpayable",
      "type": "function"
    },
    {
      "inputs": [
        {
          "internalType": "address",
          "name": "from",
          "type": "address"
        },
        {
          "internalType": "address",
          "name": "to",
          "type": "address"
        },
        {
          "internalType": "uint256",
          "name": "tokenId",
          "type": "uint256"
        }
      ],
      "name": "safeTransferFrom",
      "outputs": [],
      "stateMutability": "nonpayable",
      "type": "function"
    },
    {
      "inputs": [
        {
          "internalType": "address",
          "name": "from",
          "type": "address"
        },
        {
          "internalType": "address",
          "name": "to",
          "type": "address"
        },
        {
          "internalType": "uint256",
          "name": "tokenId",
          "type": "uint256"
        },
        {
          "internalType": "bytes",
          "name": "_data",
          "type": "bytes"
        }
      ],
      "name": "safeTransferFrom",
      "outputs": [],
      "stateMutability": "nonpayable",
      "type": "function"
    },
    {
      "inputs": [],
      "name": "saleStatus",
      "outputs": [
        {
          "internalType": "enum BabyDogeNFT.SaleStatus",
          "name": "",
          "type": "uint8"
        }
      ],
      "stateMutability": "view",
      "type": "function"
    },
    {
      "inputs": [
        {
          "internalType": "address",
          "name": "operator",
          "type": "address"
        },
        {
          "internalType": "bool",
          "name": "approved",
          "type": "bool"
        }
      ],
      "name": "setApprovalForAll",
      "outputs": [],
      "stateMutability": "nonpayable",
      "type": "function"
    },
    {
      "inputs": [
        {
          "internalType": "uint256",
          "name": "_maxDogePurchase",
          "type": "uint256"
        }
      ],
      "name": "setMaxMint",
      "outputs": [],
      "stateMutability": "nonpayable",
      "type": "function"
    },
    {
      "inputs": [
        {
          "internalType": "bytes32",
          "name": "_merkleRoot",
          "type": "bytes32"
        }
      ],
      "name": "setMerkleRoot",
      "outputs": [],
      "stateMutability": "nonpayable",
      "type": "function"
    },
    {
      "inputs": [
        {
          "internalType": "uint256",
          "name": "revealTimeStamp",
          "type": "uint256"
        }
      ],
      "name": "setRevealTimestamp",
      "outputs": [],
      "stateMutability": "nonpayable",
      "type": "function"
    },
    {
      "inputs": [
        {
          "internalType": "enum BabyDogeNFT.SaleStatus",
          "name": "_saleStatus",
          "type": "uint8"
        }
      ],
      "name": "setSaleStatus",
      "outputs": [],
      "stateMutability": "nonpayable",
      "type": "function"
    },
    {
      "inputs": [
        {
          "internalType": "uint16",
          "name": "_devTeamPercent",
          "type": "uint16"
        },
        {
          "internalType": "uint16",
          "name": "_lotoPercent",
          "type": "uint16"
        },
        {
          "internalType": "address",
          "name": "_babyDogeToken",
          "type": "address"
        },
        {
          "internalType": "string",
          "name": "_baseURILink",
          "type": "string"
        }
      ],
      "name": "setSettings",
      "outputs": [],
      "stateMutability": "nonpayable",
      "type": "function"
    },
    {
      "inputs": [
        {
          "internalType": "bytes4",
          "name": "interfaceId",
          "type": "bytes4"
        }
      ],
      "name": "supportsInterface",
      "outputs": [
        {
          "internalType": "bool",
          "name": "",
          "type": "bool"
        }
      ],
      "stateMutability": "view",
      "type": "function"
    },
    {
      "inputs": [],
      "name": "symbol",
      "outputs": [
        {
          "internalType": "string",
          "name": "",
          "type": "string"
        }
      ],
      "stateMutability": "view",
      "type": "function"
    },
    {
      "inputs": [
        {
          "internalType": "uint256",
          "name": "index",
          "type": "uint256"
        }
      ],
      "name": "tokenByIndex",
      "outputs": [
        {
          "internalType": "uint256",
          "name": "",
          "type": "uint256"
        }
      ],
      "stateMutability": "view",
      "type": "function"
    },
    {
      "inputs": [
        {
          "internalType": "address",
          "name": "owner",
          "type": "address"
        },
        {
          "internalType": "uint256",
          "name": "index",
          "type": "uint256"
        }
      ],
      "name": "tokenOfOwnerByIndex",
      "outputs": [
        {
          "internalType": "uint256",
          "name": "",
          "type": "uint256"
        }
      ],
      "stateMutability": "view",
      "type": "function"
    },
    {
      "inputs": [
        {
          "internalType": "uint256",
          "name": "tokenId",
          "type": "uint256"
        }
      ],
      "name": "tokenURI",
      "outputs": [
        {
          "internalType": "string",
          "name": "",
          "type": "string"
        }
      ],
      "stateMutability": "view",
      "type": "function"
    },
    {
      "inputs": [],
      "name": "totalSupply",
      "outputs": [
        {
          "internalType": "uint256",
          "name": "",
          "type": "uint256"
        }
      ],
      "stateMutability": "view",
      "type": "function"
    },
    {
      "inputs": [
        {
          "internalType": "address",
          "name": "from",
          "type": "address"
        },
        {
          "internalType": "address",
          "name": "to",
          "type": "address"
        },
        {
          "internalType": "uint256",
          "name": "tokenId",
          "type": "uint256"
        }
      ],
      "name": "transferFrom",
      "outputs": [],
      "stateMutability": "nonpayable",
      "type": "function"
    },
    {
      "inputs": [
        {
          "internalType": "address",
          "name": "newOwner",
          "type": "address"
        }
      ],
      "name": "transferOwnership",
      "outputs": [],
      "stateMutability": "nonpayable",
      "type": "function"
    },
    {
      "inputs": [
        {
          "internalType": "uint256",
          "name": "",
          "type": "uint256"
        }
      ],
      "name": "winners",
      "outputs": [
        {
          "internalType": "uint256",
          "name": "",
          "type": "uint256"
        }
      ],
      "stateMutability": "view",
      "type": "function"
    },
    {
      "inputs": [],
      "name": "withdrawAndLock",
      "outputs": [],
      "stateMutability": "nonpayable",
      "type": "function"
    },
    {
      "stateMutability": "payable",
      "type": "receive"
    }
  ],
  "bytecode": "0x610120604052670de0b6b3a7640000600f5560026010556011805461ff00191661010017905560006019553480156200003757600080fd5b50604051620042c4380380620042c48339810160408190526200005a91620002f5565b7fb3dccb4cf7a26f6cf6b120cf5a73875b7bbc655b00000000000000000000000060a0527f01be23585060835e02b77ef475b0cc51aa1e0709000000000000000000000000608052835184908490620000bb9060029060208501906200019c565b508051620000d19060039060208401906200019c565b505050620000ee620000e86200014660201b60201c565b6200014a565b600160095581516200010890600b9060208501906200019c565b5060e05250507f2ed0feb3e7fd2022120aa84fab1945545a9f2ffc9076fd6156fa96eaff4c131160c05250671bc16d674ec8000061010052620003dd565b3390565b600880546001600160a01b038381166001600160a01b0319831681179093556040519116919082907f8be0079c531659141344cd1fd0a4f28419497f9722a3daafe3b4186f6b6457e090600090a35050565b828054620001aa906200038a565b90600052602060002090601f016020900481019282620001ce576000855562000219565b82601f10620001e957805160ff191683800117855562000219565b8280016001018555821562000219579182015b8281111562000219578251825591602001919060010190620001fc565b50620002279291506200022b565b5090565b5b808211156200022757600081556001016200022c565b600082601f83011262000253578081fd5b81516001600160401b0380821115620002705762000270620003c7565b604051601f8301601f19908116603f011681019082821181831017156200029b576200029b620003c7565b81604052838152602092508683858801011115620002b7578485fd5b8491505b83821015620002da5785820183015181830184015290820190620002bb565b83821115620002eb57848385830101525b9695505050505050565b600080600080608085870312156200030b578384fd5b84516001600160401b038082111562000322578586fd5b620003308883890162000242565b9550602087015191508082111562000346578485fd5b620003548883890162000242565b945060408701519150808211156200036a578384fd5b50620003798782880162000242565b606096909601519497939650505050565b600181811c908216806200039f57607f821691505b60208210811415620003c157634e487b7160e01b600052602260045260246000fd5b50919050565b634e487b7160e01b600052604160045260246000fd5b60805160601c60a05160601c60c05160e05161010051613e726200045260003960008181610b690152610e67015260008181611b1901528181611d1001528181611ec40152611fc501526000610e4601526000818161174601526123fe015260008181610b8b01526123cf0152613e726000f3fe60806040526004361061026b5760003560e01c8063715018a611610144578063a22cb465116100b6578063c87b56dd1161007a578063c87b56dd146106df578063db57e745146106ff578063e985e9c514610712578063eb91d37e1461075b578063f2fde38b14610770578063f9020e331461079057600080fd5b8063a22cb4651461064a578063a2fb11751461066a578063a3bc93361461068a578063b88d4fde146106ac578063bcfa950e146106cc57600080fd5b806388c6abf81161010857806388c6abf8146105b65780638c3c4b34146105cd5780638da5cb5b146105e257806394985ddd1461060057806395d89b41146106205780639d5719b11461063557600080fd5b8063715018a61461052b578063719ce73e1461054057806379d49bb0146105565780637cb6475914610576578063851423391461059657600080fd5b80632eb4a7ab116101dd578063513d29ce116101a1578063513d29ce14610481578063547520fe146104a15780636352211e146104c15780636c0360eb146104e15780636c62ef14146104f657806370a082311461050b57600080fd5b80632eb4a7ab146103eb5780632f745c591461040157806342842e0e146104215780634891ad88146104415780634f6ccce71461046157600080fd5b8063095ea7b31161022f578063095ea7b31461034c5780630a213e041461036c578063107fb6421461038b57806318160ddd146103a057806318e20a38146103b557806323b872dd146103cb57600080fd5b8063018a2c371461027757806301ffc9a71461029957806306095f59146102ce57806306fdde03146102f2578063081812fc1461031457600080fd5b3661027257005b600080fd5b34801561028357600080fd5b506102976102923660046137c6565b6107b7565b005b3480156102a557600080fd5b506102b96102b43660046137ff565b610826565b60405190151581526020015b60405180910390f35b3480156102da57600080fd5b506102e4600f5481565b6040519081526020016102c5565b3480156102fe57600080fd5b50610307610893565b6040516102c59190613b18565b34801561032057600080fd5b5061033461032f3660046137c6565b610925565b6040516001600160a01b0390911681526020016102c5565b34801561035857600080fd5b506102976103673660046136d7565b61096b565b34801561037857600080fd5b506011546102b990610100900460ff1681565b34801561039757600080fd5b506102e46109f9565b3480156103ac57600080fd5b506001546102e4565b3480156103c157600080fd5b506102e4600d5481565b3480156103d757600080fd5b506102976103e63660046135ed565b610e97565b3480156103f757600080fd5b506102e4601a5481565b34801561040d57600080fd5b506102e461041c3660046136d7565b610ea2565b34801561042d57600080fd5b5061029761043c3660046135ed565b610f87565b34801561044d57600080fd5b5061029761045c366004613837565b610fa2565b34801561046d57600080fd5b506102e461047c3660046137c6565b611080565b34801561048d57600080fd5b5061029761049c3660046138a4565b6110ae565b3480156104ad57600080fd5b506102976104bc3660046137c6565b6111ed565b3480156104cd57600080fd5b506103346104dc3660046137c6565b61124c565b3480156104ed57600080fd5b5061030761125e565b34801561050257600080fd5b5061029761126d565b34801561051757600080fd5b506102e461052636600461357d565b6112fe565b34801561053757600080fd5b5061029761134c565b34801561054c57600080fd5b506102e460125481565b34801561056257600080fd5b506102976105713660046137c6565b611382565b34801561058257600080fd5b506102976105913660046137c6565b6113e6565b3480156105a257600080fd5b506102976105b13660046137c6565b611445565b3480156105c257600080fd5b506018546102e49081565b3480156105d957600080fd5b506102e4611713565b3480156105ee57600080fd5b506008546001600160a01b0316610334565b34801561060c57600080fd5b5061029761061b3660046137de565b61173b565b34801561062c57600080fd5b506103076117c1565b34801561064157600080fd5b506102976117d0565b34801561065657600080fd5b506102976106653660046136aa565b6118a9565b34801561067657600080fd5b506102e46106853660046137c6565b61193f565b34801561069657600080fd5b5061069f611960565b6040516102c59190613a71565b3480156106b857600080fd5b506102976106c736600461362d565b6119b7565b6102976106da366004613913565b6119f1565b3480156106eb57600080fd5b506103076106fa3660046137c6565b611d58565b61029761070d3660046137c6565b611ddf565b34801561071e57600080fd5b506102b961072d3660046135b5565b6001600160a01b03918216600090815260076020908152604080832093909416825291909152205460ff1690565b34801561076757600080fd5b506102e4612008565b34801561077c57600080fd5b5061029761078b36600461357d565b6120b1565b34801561079c57600080fd5b506015546107aa9060ff1681565b6040516102c59190613af0565b6008546001600160a01b031633146107ea5760405162461bcd60e51b81526004016107e190613b2b565b60405180910390fd5b600d8190556040518181527fd227248b3540871674d341a3d15918c6eaed5a6704bae91d238aa95b5edaab89906020015b60405180910390a150565b60006001600160e01b031982166380ac58cd60e01b148061085757506001600160e01b03198216635b5e139f60e01b145b8061087257506001600160e01b0319821663780e9d6360e01b145b8061088d57506301ffc9a760e01b6001600160e01b03198316145b92915050565b6060600280546108a290613d57565b80601f01602080910402602001604051908101604052809291908181526020018280546108ce90613d57565b801561091b5780601f106108f05761010080835404028352916020019161091b565b820191906000526020600020905b8154815290600101906020018083116108fe57829003601f168201915b5050505050905090565b6000610932826001541190565b61094f576040516333d1c03960e21b815260040160405180910390fd5b506000908152600660205260409020546001600160a01b031690565b60006109768261124c565b9050806001600160a01b0316836001600160a01b031614156109ab5760405163250fdee360e21b815260040160405180910390fd5b336001600160a01b038216148015906109cb57506109c9813361072d565b155b156109e9576040516367d9dca160e11b815260040160405180910390fd5b6109f483838361214c565b505050565b600060026009541415610a4e5760405162461bcd60e51b815260206004820152601f60248201527f5265656e7472616e637947756172643a207265656e7472616e742063616c6c0060448201526064016107e1565b600260095560115460ff16610acb5760405162461bcd60e51b815260206004820152603960248201527f6572726f723a2063616e27742063616c6c206e6578745265776172644e6f6e6360448201527f65206265666f7265207468652073616c65206973206f7665720000000000000060648201526084016107e1565b60006224ea0060166000610ade60185490565b815260200190815260200160002054610af79190613cc9565b4211610b545760405162461bcd60e51b815260206004820152602660248201527f6572726f723a20697465726174696f6e20706572696f6420686173206e6f74206044820152651c185cdcd95960d21b60648201526084016107e1565b6040516370a0823160e01b81523060048201527f0000000000000000000000000000000000000000000000000000000000000000907f00000000000000000000000000000000000000000000000000000000000000006001600160a01b0316906370a082319060240160206040518083038186803b158015610bd557600080fd5b505afa158015610be9573d6000803e3d6000fd5b505050506040513d601f19601f82011682018060405250810190610c0d91906138fb565b1015610c6d5760405162461bcd60e51b815260206004820152602960248201527f4e6f7420656e6f756768204c494e4b202d2066696c6c20636f6e74726163742060448201526877697468204c696e6b60b81b60648201526084016107e1565b610c7b601880546001019055565b4260166000610c8960185490565b815260208101919091526040016000205560015460176000610caa60185490565b8152602001908152602001600020819055506000601160019054906101000a900460ff1615610d495750600a54479061271090610ceb9061ffff1683613cf5565b610cf59190613ce1565b9150610d1c82610d0d6008546001600160a01b031690565b6001600160a01b0316906121a8565b600a5461271090610d379062010000900461ffff1683613cf5565b610d419190613ce1565b601255610e41565b610d516122c1565b600c546040516370a0823160e01b81523060048201526001600160a01b03909116906370a082319060240160206040518083038186803b158015610d9457600080fd5b505afa158015610da8573d6000803e3d6000fd5b505050506040513d601f19601f82011682018060405250810190610dcc91906138fb565b600a5490915061271090610de49061ffff1683613cf5565b610dee9190613ce1565b9150610e18610e056008546001600160a01b031690565b600c546001600160a01b03169084612379565b600a5461271090610e339062010000900461ffff1683613cf5565b610e3d9190613ce1565b6012555b610e8b7f00000000000000000000000000000000000000000000000000000000000000007f00000000000000000000000000000000000000000000000000000000000000006123cb565b92505050600160095590565b6109f4838383612555565b6000610ead836112fe565b8210610ecc576040516306ed618760e11b815260040160405180910390fd5b6000610ed760015490565b905060008060005b83811015610f70576000818152600460209081526040918290208251808401909352546001600160a01b038116808452600160a01b90910467ffffffffffffffff169183019190915215610f3257805192505b876001600160a01b0316836001600160a01b03161415610f675786841415610f605750935061088d92505050565b6001909301925b50600101610edf565b50634e487b7160e01b600052600160045260246000fd5b6109f4838383604051806020016040528060008152506119b7565b6008546001600160a01b03163314610fcc5760405162461bcd60e51b81526004016107e190613b2b565b6015805482919060ff19166001836002811115610ff957634e487b7160e01b600052602160045260246000fd5b021790555080600281111561101e57634e487b7160e01b600052602160045260246000fd5b6002141561102b57426019555b6015547f5f393514fe885345bf6ba49c7009fef8081ddf42042464e8dfe04a17f001cddf9060ff16600281111561107257634e487b7160e01b600052602160045260246000fd5b60405190815260200161081b565b600061108b60015490565b82106110aa576040516329c8c00760e21b815260040160405180910390fd5b5090565b6008546001600160a01b031633146110d85760405162461bcd60e51b81526004016107e190613b2b565b6001600160a01b03821661113d5760405162461bcd60e51b815260206004820152602660248201527f4572726f723a20546f6b656e2063616e277420626520746865207a65726f206160448201526564647265737360d01b60648201526084016107e1565b600a805461ffff858116620100000263ffffffff1990921690871617179055600c80546001600160a01b0384166001600160a01b0319909116179055805161118c90600b906020840190613428565b50600a54600c546040517e89f6d806b406160fe53ec387c78595e885ca4881db758f4e83ca7ddc069b88926111df9261ffff808316936201000090930416916001600160a01b0390911690600b90613b60565b60405180910390a150505050565b6008546001600160a01b031633146112175760405162461bcd60e51b81526004016107e190613b2b565b60108190556040518181527f3b64f5d0ae4de41d36db0948fc83ffbba5d86eb79841008d6047a25f46ed2b799060200161081b565b600061125782612774565b5192915050565b6060611268612809565b905090565b6008546001600160a01b031633146112975760405162461bcd60e51b81526004016107e190613b2b565b6011805461ff001981166101009182900460ff16159091021790556112ba6109f9565b5060115460405161010090910460ff16151581527fa52383c36c234ecf24255806fe74d869b31d0a0d26073e975ddeb5f871886262906020015b60405180910390a1565b60006001600160a01b038216611327576040516323d3ad8160e21b815260040160405180910390fd5b506001600160a01b03166000908152600560205260409020546001600160801b031690565b6008546001600160a01b031633146113765760405162461bcd60e51b81526004016107e190613b2b565b6113806000612818565b565b6008546001600160a01b031633146113ac5760405162461bcd60e51b81526004016107e190613b2b565b6113b6338261286a565b6040518181527fffa76519d7df0608ca65c5af555ef0723f461afa7dadac8ccb5b3f7a8019e3ef9060200161081b565b6008546001600160a01b031633146114105760405162461bcd60e51b81526004016107e190613b2b565b601a8190556040518181527f42cbc405e4dbf1b691e85b9a34b08ecfcf7a9ad9078bf4d645ccfa1fac11c10b9060200161081b565b600260095414156114985760405162461bcd60e51b815260206004820152601f60248201527f5265656e7472616e637947756172643a207265656e7472616e742063616c6c0060448201526064016107e1565b6002600955336114a78261124c565b6001600160a01b0316146115085760405162461bcd60e51b815260206004820152602260248201527f6572726f723a20796f7520646f6e74206f776e20612077696e6e696e6720646f604482015261676560f01b60648201526084016107e1565b6000805b60145481101561167457826014828154811061153857634e487b7160e01b600052603260045260246000fd5b90600052602060002001541415611662576014546012546115599190613ce1565b9150816012546115699190613d14565b601255805b60145461157d90600190613d14565b8110156115f9576014611591826001613cc9565b815481106115af57634e487b7160e01b600052603260045260246000fd5b9060005260206000200154601482815481106115db57634e487b7160e01b600052603260045260246000fd5b600091825260209091200155806115f181613d92565b91505061156e565b50601480548061161957634e487b7160e01b600052603160045260246000fd5b60019003818190600052602060002001600090559055601160019054906101000a900460ff16156116565761165182610d0d8561124c565b611662565b611662610e058461124c565b8061166c81613d92565b91505061150c565b50600081116116d15760405162461bcd60e51b815260206004820152602360248201527f6572726f723a207072697a65206d75737420626520677265617465722074686560448201526206e20360ec1b60648201526084016107e1565b60408051838152602081018390527ff4338f56dc8b8e2b8c87ae4eb8008d2290a524a16c153183ef0b116ef4834d7d910160405180910390a150506001600955565b60155460009060ff16600281111561126857634e487b7160e01b600052602160045260246000fd5b336001600160a01b037f000000000000000000000000000000000000000000000000000000000000000016146117b35760405162461bcd60e51b815260206004820152601f60248201527f4f6e6c7920565246436f6f7264696e61746f722063616e2066756c66696c6c0060448201526064016107e1565b6117bd8282612884565b5050565b6060600380546108a290613d57565b6008546001600160a01b031633146117fa5760405162461bcd60e51b81526004016107e190613b2b565b60115460ff161561184d5760405162461bcd60e51b815260206004820181905260248201527f43616e206f6e6c792063616c6c20746869732066756e6374696f6e206f6e636560448201526064016107e1565b6011805460ff1916600117905561187047610d0d6008546001600160a01b031690565b60115460405160ff909116151581527fd5dc719472ee802e529d4afc3a953b5d8ea1790730213eafdcfce3433d2ea225906020016112f4565b6001600160a01b0382163314156118d35760405163b06307db60e01b815260040160405180910390fd5b3360008181526007602090815260408083206001600160a01b03871680855290835292819020805460ff191686151590811790915590519081529192917f17307eab39ab6107e8899845ad3d59bd9653f200f220920489ca2b5937696c31910160405180910390a35050565b6013818154811061194f57600080fd5b600091825260209091200154905081565b6060601380548060200260200160405190810160405280929190818152602001828054801561091b57602002820191906000526020600020905b81548152602001906001019080831161199a575050505050905090565b6119c2848484612555565b6119ce84848484612989565b6119eb576040516368d2bf6b60e11b815260040160405180910390fd5b50505050565b600160155460ff166002811115611a1857634e487b7160e01b600052602160045260246000fd5b14611a655760405162461bcd60e51b815260206004820152601e60248201527f57686974656c6973742073616c6520686173206e6f742073746172746564000060448201526064016107e1565b336000908152601b602052604090205460ff1615611ac55760405162461bcd60e51b815260206004820152601760248201527f596f75206861766520616c7265616479204d696e74656400000000000000000060448201526064016107e1565b601054831115611b175760405162461bcd60e51b815260206004820152601e60248201527f596f752063616e2774206d696e742074686174206d616e7920446f676573000060448201526064016107e1565b7f000000000000000000000000000000000000000000000000000000000000000083611b4260015490565b611b4c9190613cc9565b1115611bc05760405162461bcd60e51b815260206004820152603b60248201527f556e61626c6520746f206d696e743a20776f756c642065786365656420746f7460448201527f616c20737570706c792c20747279206d696e74696e67206c657373000000000060648201526084016107e1565b6000611bca612008565b905034611bd78583613cf5565b1115611c165760405162461bcd60e51b815260206004820152600e60248201526d09cdee840cadcdeeaced0408aa8960931b60448201526064016107e1565b6040516bffffffffffffffffffffffff193360601b166020820152600090603401604051602081830303815290604052805190602001209050611c9084848080602002602001604051908101604052809392919081815260200183836020028082843760009201919091525050601a549150849050612a97565b611cdc5760405162461bcd60e51b815260206004820152601b60248201527f596f75206172656e2774206f6e207468652077686974656c697374000000000060448201526064016107e1565b336000818152601b60205260409020805460ff19166001179055606090611d03908761286a565b600e54158015611d4657507f0000000000000000000000000000000000000000000000000000000000000000611d3860015490565b1480611d465750600d544210155b15611d505743600e555b505050505050565b6060611d65826001541190565b611d8257604051630a14c4b560e41b815260040160405180910390fd5b6000611d8c612809565b9050805160001415611dad5760405180602001604052806000815250611dd8565b80611db784612aad565b604051602001611dc89291906139d5565b6040516020818303038152906040525b9392505050565b600260155460ff166002811115611e0657634e487b7160e01b600052602160045260246000fd5b14611e625760405162461bcd60e51b815260206004820152602660248201527f6572726f723a207075626c69632073616c6520686173206e6f742073746172746044820152651959081e595d60d21b60648201526084016107e1565b601054811115611ec25760405162461bcd60e51b815260206004820152602560248201527f6572726f723a20796f752063616e2774206d696e742074686174206d616e7920604482015264646f67657360d81b60648201526084016107e1565b7f000000000000000000000000000000000000000000000000000000000000000081611eed60015490565b611ef79190613cc9565b1115611f515760405162461bcd60e51b8152602060048201526024808201527f6572726f723a20746f74616c20737570706c7920686173206265656e2072656160448201526318da195960e21b60648201526084016107e1565b6000611f5b612008565b905034611f688383613cf5565b1115611fae5760405162461bcd60e51b81526020600482015260156024820152740cae4e4dee47440dcdee840cadcdeeaced0408ae8d605b1b60448201526064016107e1565b611fb8338361286a565b600e54158015611ffb57507f0000000000000000000000000000000000000000000000000000000000000000611fed60015490565b1480611ffb5750600d544210155b156117bd5743600e555050565b600f5460195460009190158015906120275750612023611713565b6002145b15612083576000600a6019544261203e9190613d14565b6120489190613ce1565b61205a9067016345785d8a0000613cf5565b9050808210156120725767016345785d8a000061207c565b61207c8183613d14565b9250505090565b61208b611713565b600114156120a25767016345785d8a000091505090565b670de0b6b3a764000091505090565b6008546001600160a01b031633146120db5760405162461bcd60e51b81526004016107e190613b2b565b6001600160a01b0381166121405760405162461bcd60e51b815260206004820152602660248201527f4f776e61626c653a206e6577206f776e657220697320746865207a65726f206160448201526564647265737360d01b60648201526084016107e1565b61214981612818565b50565b60008281526006602052604080822080546001600160a01b0319166001600160a01b0387811691821790925591518593918516917f8c5be1e5ebec7d5bd14f71427d1e84f3dd0314c0f7b2291e5b200ac8c7c3b92591a4505050565b804710156121f85760405162461bcd60e51b815260206004820152601d60248201527f416464726573733a20696e73756666696369656e742062616c616e636500000060448201526064016107e1565b6000826001600160a01b03168260405160006040518083038185875af1925050503d8060008114612245576040519150601f19603f3d011682016040523d82523d6000602084013e61224a565b606091505b50509050806109f45760405162461bcd60e51b815260206004820152603a60248201527f416464726573733a20756e61626c6520746f2073656e642076616c75652c207260448201527f6563697069656e74206d6179206861766520726576657274656400000000000060648201526084016107e1565b611380600c60009054906101000a90046001600160a01b031661237447737a250d5630b4cf539739df2c5dacb4c659f2488d6001600160a01b031663ad5c46486040518163ffffffff1660e01b815260040160206040518083038186803b15801561232b57600080fd5b505afa15801561233f573d6000803e3d6000fd5b505050506040513d601f19601f820116820180604052508101906123639190613599565b600c546001600160a01b0316612bc7565b612de0565b604080516001600160a01b038416602482015260448082018490528251808303909101815260649091019091526020810180516001600160e01b031663a9059cbb60e01b1790526109f4908490612fd0565b60007f00000000000000000000000000000000000000000000000000000000000000006001600160a01b0316634000aea07f00000000000000000000000000000000000000000000000000000000000000008486600060405160200161243b929190918252602082015260400190565b6040516020818303038152906040526040518463ffffffff1660e01b815260040161246893929190613a41565b602060405180830381600087803b15801561248257600080fd5b505af1158015612496573d6000803e3d6000fd5b505050506040513d601f19601f820116820180604052508101906124ba91906137aa565b5060008381526020818152604080832054815180840188905280830185905230606082015260808082018390528351808303909101815260a090910190925281519183019190912086845292909152612514906001613cc9565b60008581526020818152604091829020929092558051808301879052808201849052815180820383018152606090910190915280519101205b949350505050565b600061256082612774565b80519091506000906001600160a01b0316336001600160a01b0316148061259757503361258c84610925565b6001600160a01b0316145b806125a9575081516125a9903361072d565b9050806125c957604051632ce44b5f60e11b815260040160405180910390fd5b846001600160a01b031682600001516001600160a01b0316146125fe5760405162a1148160e81b815260040160405180910390fd5b6001600160a01b03841661262557604051633a954ecd60e21b815260040160405180910390fd5b612635600084846000015161214c565b6001600160a01b03858116600090815260056020908152604080832080546001600160801b03198082166001600160801b03928316600019018316179092558986168086528386208054938416938316600190810190931693909317909255888552600490935281842080546001600160e01b031916909117600160a01b4267ffffffffffffffff160217905590860180835291205490911661272a576126dd816001541190565b1561272a578251600082815260046020908152604090912080549186015167ffffffffffffffff16600160a01b026001600160e01b03199092166001600160a01b03909316929092171790555b5082846001600160a01b0316866001600160a01b03167fddf252ad1be2c89b69c2b068fc378daa952ba7f163c4a11628f55a4df523b3ef60405160405180910390a45b5050505050565b6040805180820190915260008082526020820152612793826001541190565b6127b057604051636f96cda160e11b815260040160405180910390fd5b815b6000818152600460209081526040918290208251808401909352546001600160a01b038116808452600160a01b90910467ffffffffffffffff1691830191909152156127ff579392505050565b50600019016127b2565b6060600b80546108a290613d57565b600880546001600160a01b038381166001600160a01b0319831681179093556040519116919082907f8be0079c531659141344cd1fd0a4f28419497f9722a3daafe3b4186f6b6457e090600090a35050565b6117bd8282604051806020016040528060008152506130a2565b60006101f461289260015490565b61289c9084613dad565b6128a69190613d14565b90506040518060800160405280828152602001826101f46128c79190613cc9565b81526020016128d883610190613cc9565b81526020016128e98361012c613cc9565b90526128f99060139060046134a8565b506040518060800160405280828152602001826101f46129199190613cc9565b815260200161292a83610190613cc9565b815260200161293b8361012c613cc9565b905261294b9060149060046134a8565b507f11609bf0dfcab1cd8696cdc747ee705ba9c458e0b7e701b1ebd4e1dfb6b5fb24601360405161297c9190613ab5565b60405180910390a1505050565b60006001600160a01b0384163b15612a8c57604051630a85bd0160e11b81526001600160a01b0385169063150b7a02906129cd903390899088908890600401613a04565b602060405180830381600087803b1580156129e757600080fd5b505af1925050508015612a17575060408051601f3d908101601f19168201909252612a149181019061381b565b60015b612a72573d808015612a45576040519150601f19603f3d011682016040523d82523d6000602084013e612a4a565b606091505b508051612a6a576040516368d2bf6b60e11b815260040160405180910390fd5b805181602001fd5b6001600160e01b031916630a85bd0160e11b14905061254d565b506001949350505050565b600082612aa485846130af565b14949350505050565b606081612ad15750506040805180820190915260018152600360fc1b602082015290565b8160005b8115612afb5780612ae581613d92565b9150612af49050600a83613ce1565b9150612ad5565b60008167ffffffffffffffff811115612b2457634e487b7160e01b600052604160045260246000fd5b6040519080825280601f01601f191660200182016040528015612b4e576020820181803683370190505b5090505b841561254d57612b63600183613d14565b9150612b70600a86613dad565b612b7b906030613cc9565b60f81b818381518110612b9e57634e487b7160e01b600052603260045260246000fd5b60200101906001600160f81b031916908160001a905350612bc0600a86613ce1565b9450612b52565b60405163e6a4390560e01b81526001600160a01b038084166004830152821660248201526000908190735c69bee701ef814a2b6a3edd4b1652cb9cc5aa6f9063e6a439059060440160206040518083038186803b158015612c2757600080fd5b505afa158015612c3b573d6000803e3d6000fd5b505050506040513d601f19601f82011682018060405250810190612c5f9190613599565b9050600080826001600160a01b0316630902f1ac6040518163ffffffff1660e01b815260040160606040518083038186803b158015612c9d57600080fd5b505afa158015612cb1573d6000803e3d6000fd5b505050506040513d601f19601f82011682018060405250810190612cd59190613856565b506001600160701b031691506001600160701b031691506000836001600160a01b0316630dfe16816040518163ffffffff1660e01b815260040160206040518083038186803b158015612d2757600080fd5b505afa158015612d3b573d6000803e3d6000fd5b505050506040513d601f19601f82011682018060405250810190612d5f9190613599565b9050600080886001600160a01b0316836001600160a01b031614612d84578385612d87565b84845b90925090506000612d9a8b6103e5613cf5565b90506000612da88383613cf5565b9050600082612db9866103e8613cf5565b612dc39190613cc9565b9050612dcf8183613ce1565b9d9c50505050505050505050505050565b60408051600280825260608201835247926000929190602083019080368337019050509050737a250d5630b4cf539739df2c5dacb4c659f2488d6001600160a01b031663ad5c46486040518163ffffffff1660e01b815260040160206040518083038186803b158015612e5257600080fd5b505afa158015612e66573d6000803e3d6000fd5b505050506040513d601f19601f82011682018060405250810190612e8a9190613599565b81600081518110612eab57634e487b7160e01b600052603260045260246000fd5b60200260200101906001600160a01b031690816001600160a01b0316815250508381600181518110612eed57634e487b7160e01b600052603260045260246000fd5b6001600160a01b0390921660209283029190910190910152737a250d5630b4cf539739df2c5dacb4c659f2488d637ff36ab583858430612f2f426102bc613cc9565b6040518663ffffffff1660e01b8152600401612f4e9493929190613c2f565b6000604051808303818588803b158015612f6757600080fd5b505af1158015612f7b573d6000803e3d6000fd5b50505050506040513d6000823e601f3d908101601f19168201604052612fa49190810190613702565b60018251612fb29190613d14565b81518110611d5057634e487b7160e01b600052603260045260246000fd5b6000613025826040518060400160405280602081526020017f5361666545524332303a206c6f772d6c6576656c2063616c6c206661696c6564815250856001600160a01b03166131699092919063ffffffff16565b8051909150156109f4578080602001905181019061304391906137aa565b6109f45760405162461bcd60e51b815260206004820152602a60248201527f5361666545524332303a204552433230206f7065726174696f6e20646964206e6044820152691bdd081cdd58d8d9595960b21b60648201526084016107e1565b6109f48383836001613178565b600081815b84518110156131615760008582815181106130df57634e487b7160e01b600052603260045260246000fd5b6020026020010151905080831161312157604080516020810185905290810182905260600160405160208183030381529060405280519060200120925061314e565b60408051602081018390529081018490526060016040516020818303038152906040528051906020012092505b508061315981613d92565b9150506130b4565b509392505050565b606061254d84846000856132c7565b6001546001600160a01b0385166131a157604051622e076360e81b815260040160405180910390fd5b836131bf5760405163b562e8dd60e01b815260040160405180910390fd5b6001600160a01b03851660008181526005602090815260408083208054600160801b6001600160801b031982166001600160801b039283168c01831690811782900483168c01909216021790558483526004909152812080546001600160e01b031916909217600160a01b4267ffffffffffffffff16021790915581905b858110156132be5760405182906001600160a01b038916906000907fddf252ad1be2c89b69c2b068fc378daa952ba7f163c4a11628f55a4df523b3ef908290a483801561329457506132926000888488612989565b155b156132b2576040516368d2bf6b60e11b815260040160405180910390fd5b6001918201910161323d565b5060015561276d565b6060824710156133285760405162461bcd60e51b815260206004820152602660248201527f416464726573733a20696e73756666696369656e742062616c616e636520666f6044820152651c8818d85b1b60d21b60648201526084016107e1565b843b6133765760405162461bcd60e51b815260206004820152601d60248201527f416464726573733a2063616c6c20746f206e6f6e2d636f6e747261637400000060448201526064016107e1565b600080866001600160a01b0316858760405161339291906139b9565b60006040518083038185875af1925050503d80600081146133cf576040519150601f19603f3d011682016040523d82523d6000602084013e6133d4565b606091505b50915091506133e48282866133ef565b979650505050505050565b606083156133fe575081611dd8565b82511561340e5782518084602001fd5b8160405162461bcd60e51b81526004016107e19190613b18565b82805461343490613d57565b90600052602060002090601f016020900481019282613456576000855561349c565b82601f1061346f57805160ff191683800117855561349c565b8280016001018555821561349c579182015b8281111561349c578251825591602001919060010190613481565b506110aa9291506134e2565b82805482825590600052602060002090810192821561349c579160200282018281111561349c578251825591602001919060010190613481565b5b808211156110aa57600081556001016134e3565b600067ffffffffffffffff83111561351157613511613ded565b613524601f8401601f1916602001613c98565b905082815283838301111561353857600080fd5b828260208301376000602084830101529392505050565b80516001600160701b038116811461356657600080fd5b919050565b803561ffff8116811461356657600080fd5b60006020828403121561358e578081fd5b8135611dd881613e03565b6000602082840312156135aa578081fd5b8151611dd881613e03565b600080604083850312156135c7578081fd5b82356135d281613e03565b915060208301356135e281613e03565b809150509250929050565b600080600060608486031215613601578081fd5b833561360c81613e03565b9250602084013561361c81613e03565b929592945050506040919091013590565b60008060008060808587031215613642578081fd5b843561364d81613e03565b9350602085013561365d81613e03565b925060408501359150606085013567ffffffffffffffff81111561367f578182fd5b8501601f8101871361368f578182fd5b61369e878235602084016134f7565b91505092959194509250565b600080604083850312156136bc578182fd5b82356136c781613e03565b915060208301356135e281613e18565b600080604083850312156136e9578182fd5b82356136f481613e03565b946020939093013593505050565b60006020808385031215613714578182fd5b825167ffffffffffffffff8082111561372b578384fd5b818501915085601f83011261373e578384fd5b81518181111561375057613750613ded565b8060051b9150613761848301613c98565b8181528481019084860184860187018a101561377b578788fd5b8795505b8386101561379d57805183526001959095019491860191860161377f565b5098975050505050505050565b6000602082840312156137bb578081fd5b8151611dd881613e18565b6000602082840312156137d7578081fd5b5035919050565b600080604083850312156137f0578182fd5b50508035926020909101359150565b600060208284031215613810578081fd5b8135611dd881613e26565b60006020828403121561382c578081fd5b8151611dd881613e26565b600060208284031215613848578081fd5b813560038110611dd8578182fd5b60008060006060848603121561386a578081fd5b6138738461354f565b92506138816020850161354f565b9150604084015163ffffffff81168114613899578182fd5b809150509250925092565b600080600080608085870312156138b9578182fd5b6138c28561356b565b93506138d06020860161356b565b925060408501356138e081613e03565b9150606085013567ffffffffffffffff81111561367f578182fd5b60006020828403121561390c578081fd5b5051919050565b600080600060408486031215613927578081fd5b83359250602084013567ffffffffffffffff80821115613945578283fd5b818601915086601f830112613958578283fd5b813581811115613966578384fd5b8760208260051b850101111561397a578384fd5b6020830194508093505050509250925092565b600081518084526139a5816020860160208601613d2b565b601f01601f19169290920160200192915050565b600082516139cb818460208701613d2b565b9190910192915050565b600083516139e7818460208801613d2b565b8351908301906139fb818360208801613d2b565b01949350505050565b6001600160a01b0385811682528416602082015260408101839052608060608201819052600090613a379083018461398d565b9695505050505050565b60018060a01b0384168152826020820152606060408201526000613a68606083018461398d565b95945050505050565b6020808252825182820181905260009190848201906040850190845b81811015613aa957835183529284019291840191600101613a8d565b50909695505050505050565b6020808252825482820181905260008481528281209092916040850190845b81811015613aa957835483526001938401939285019201613ad4565b6020810160038310613b1257634e487b7160e01b600052602160045260246000fd5b91905290565b602081526000611dd8602083018461398d565b6020808252818101527f4f776e61626c653a2063616c6c6572206973206e6f7420746865206f776e6572604082015260600190565b61ffff858116825284166020808301919091526001600160a01b03841660408301526080606083015282546000918291600181811c9082811680613ba557607f831692505b848310811415613bc357634e487b7160e01b87526022600452602487fd5b6080880183905260a08801818015613be25760018114613bf357613c1d565b60ff19861682528682019750613c1d565b60008b815260209020895b86811015613c1757815484820152908501908801613bfe565b83019850505b50959c9b505050505050505050505050565b600060808201868352602060808185015281875180845260a0860191508289019350845b81811015613c785784516001600160a01b031683529383019391830191600101613c53565b50506001600160a01b039690961660408501525050506060015292915050565b604051601f8201601f1916810167ffffffffffffffff81118282101715613cc157613cc1613ded565b604052919050565b60008219821115613cdc57613cdc613dc1565b500190565b600082613cf057613cf0613dd7565b500490565b6000816000190483118215151615613d0f57613d0f613dc1565b500290565b600082821015613d2657613d26613dc1565b500390565b60005b83811015613d46578181015183820152602001613d2e565b838111156119eb5750506000910152565b600181811c90821680613d6b57607f821691505b60208210811415613d8c57634e487b7160e01b600052602260045260246000fd5b50919050565b6000600019821415613da657613da6613dc1565b5060010190565b600082613dbc57613dbc613dd7565b500690565b634e487b7160e01b600052601160045260246000fd5b634e487b7160e01b600052601260045260246000fd5b634e487b7160e01b600052604160045260246000fd5b6001600160a01b038116811461214957600080fd5b801515811461214957600080fd5b6001600160e01b03198116811461214957600080fdfea26469706673582212203ee3f2b0f3bc1b76d3597328f02b8af86da0d62bce424f1e6af5b6788bd7bfce64736f6c63430008040033",
  "linkReferences": {},
  "deployedLinkReferences": {}
}